{"abi":[{"constant":false,"inputs":[{"internalType":"string","name":"topicContent","type":"string"},{"internalType":"uint256","name":"minInvestment","type":"uint256"},{"internalType":"uint256","name":"hoursAvailable","type":"uint256"}],"name":"createTopic","outputs":[],"payable":true,"stateMutability":"payable","type":"function"},{"constant":true,"inputs":[],"name":"getDeployedTopics","outputs":[{"internalType":"address[]","name":"","type":"address[]"}],"payable":false,"stateMutability":"view","type":"function"},{"constant":true,"inputs":[{"internalType":"uint256","name":"","type":"uint256"}],"name":"deployedTopics","outputs":[{"internalType":"address","name":"","type":"address"}],"payable":false,"stateMutability":"view","type":"function"}],"devdoc":{"methods":{}},"evm":{"assembly":"    /* \"TopicFactory.sol\":53:635  contract TopicFactory {\r... */\n  mstore(0x40, 0x80)\n  callvalue\n    /* \"--CODEGEN--\":8:17   */\n  dup1\n    /* \"--CODEGEN--\":5:7   */\n  iszero\n  tag_1\n  jumpi\n    /* \"--CODEGEN--\":30:31   */\n  0x00\n    /* \"--CODEGEN--\":27:28   */\n  dup1\n    /* \"--CODEGEN--\":20:32   */\n  revert\n    /* \"--CODEGEN--\":5:7   */\ntag_1:\n    /* \"TopicFactory.sol\":53:635  contract TopicFactory {\r... */\n  pop\n  dataSize(sub_0)\n  dup1\n  dataOffset(sub_0)\n  0x00\n  codecopy\n  0x00\n  return\nstop\n\nsub_0: assembly {\n        /* \"TopicFactory.sol\":53:635  contract TopicFactory {\r... */\n      mstore(0x40, 0x80)\n      jumpi(tag_1, lt(calldatasize, 0x04))\n      shr(0xe0, calldataload(0x00))\n      dup1\n      0x0a5e47bb\n      eq\n      tag_2\n      jumpi\n      dup1\n      0xb93ad27a\n      eq\n      tag_3\n      jumpi\n      dup1\n      0xd7f0007a\n      eq\n      tag_4\n      jumpi\n    tag_1:\n      0x00\n      dup1\n      revert\n        /* \"TopicFactory.sol\":122:516  function createTopic(string memory topicContent, uint minInvestment, uint hoursAvailable) payable public {\r... */\n    tag_2:\n      tag_5\n      0x04\n      dup1\n      calldatasize\n      sub\n        /* \"--CODEGEN--\":13:15   */\n      0x60\n        /* \"--CODEGEN--\":8:11   */\n      dup2\n        /* \"--CODEGEN--\":5:16   */\n      lt\n        /* \"--CODEGEN--\":2:4   */\n      iszero\n      tag_6\n      jumpi\n        /* \"--CODEGEN--\":29:30   */\n      0x00\n        /* \"--CODEGEN--\":26:27   */\n      dup1\n        /* \"--CODEGEN--\":19:31   */\n      revert\n        /* \"--CODEGEN--\":2:4   */\n    tag_6:\n        /* \"TopicFactory.sol\":122:516  function createTopic(string memory topicContent, uint minInvestment, uint hoursAvailable) payable public {\r... */\n      dup2\n      add\n      swap1\n      dup1\n      dup1\n      calldataload\n      swap1\n      0x20\n      add\n      swap1\n        /* \"--CODEGEN--\":21:32   */\n      0x0100000000\n        /* \"--CODEGEN--\":8:19   */\n      dup2\n        /* \"--CODEGEN--\":5:33   */\n      gt\n        /* \"--CODEGEN--\":2:4   */\n      iszero\n      tag_7\n      jumpi\n        /* \"--CODEGEN--\":46:47   */\n      0x00\n        /* \"--CODEGEN--\":43:44   */\n      dup1\n        /* \"--CODEGEN--\":36:48   */\n      revert\n        /* \"--CODEGEN--\":2:4   */\n    tag_7:\n        /* \"TopicFactory.sol\":122:516  function createTopic(string memory topicContent, uint minInvestment, uint hoursAvailable) payable public {\r... */\n      dup3\n      add\n        /* \"--CODEGEN--\":35:44   */\n      dup4\n        /* \"--CODEGEN--\":28:32   */\n      0x20\n        /* \"--CODEGEN--\":12:26   */\n      dup3\n        /* \"--CODEGEN--\":8:33   */\n      add\n        /* \"--CODEGEN--\":5:45   */\n      gt\n        /* \"--CODEGEN--\":2:4   */\n      iszero\n      tag_8\n      jumpi\n        /* \"--CODEGEN--\":58:59   */\n      0x00\n        /* \"--CODEGEN--\":55:56   */\n      dup1\n        /* \"--CODEGEN--\":48:60   */\n      revert\n        /* \"--CODEGEN--\":2:4   */\n    tag_8:\n        /* \"TopicFactory.sol\":122:516  function createTopic(string memory topicContent, uint minInvestment, uint hoursAvailable) payable public {\r... */\n      dup1\n      calldataload\n      swap1\n      0x20\n      add\n      swap2\n        /* \"--CODEGEN--\":100:109   */\n      dup5\n        /* \"--CODEGEN--\":95:96   */\n      0x01\n        /* \"--CODEGEN--\":81:93   */\n      dup4\n        /* \"--CODEGEN--\":77:97   */\n      mul\n        /* \"--CODEGEN--\":67:75   */\n      dup5\n        /* \"--CODEGEN--\":63:98   */\n      add\n        /* \"--CODEGEN--\":60:110   */\n      gt\n        /* \"--CODEGEN--\":39:50   */\n      0x0100000000\n        /* \"--CODEGEN--\":25:37   */\n      dup4\n        /* \"--CODEGEN--\":22:51   */\n      gt\n        /* \"--CODEGEN--\":11:118   */\n      or\n        /* \"--CODEGEN--\":8:10   */\n      iszero\n      tag_9\n      jumpi\n        /* \"--CODEGEN--\":131:132   */\n      0x00\n        /* \"--CODEGEN--\":128:129   */\n      dup1\n        /* \"--CODEGEN--\":121:133   */\n      revert\n        /* \"--CODEGEN--\":8:10   */\n    tag_9:\n        /* \"TopicFactory.sol\":122:516  function createTopic(string memory topicContent, uint minInvestment, uint hoursAvailable) payable public {\r... */\n      swap2\n      swap1\n      dup1\n      dup1\n      0x1f\n      add\n      0x20\n      dup1\n      swap2\n      div\n      mul\n      0x20\n      add\n      mload(0x40)\n      swap1\n      dup2\n      add\n      0x40\n      mstore\n      dup1\n      swap4\n      swap3\n      swap2\n      swap1\n      dup2\n      dup2\n      mstore\n      0x20\n      add\n      dup4\n      dup4\n        /* \"--CODEGEN--\":30:33   */\n      dup1\n        /* \"--CODEGEN--\":22:28   */\n      dup3\n        /* \"--CODEGEN--\":14:20   */\n      dup5\n        /* \"--CODEGEN--\":1:34   */\n      calldatacopy\n        /* \"--CODEGEN--\":99:100   */\n      0x00\n        /* \"--CODEGEN--\":93:96   */\n      dup2\n        /* \"--CODEGEN--\":85:91   */\n      dup5\n        /* \"--CODEGEN--\":81:97   */\n      add\n        /* \"--CODEGEN--\":74:101   */\n      mstore\n        /* \"--CODEGEN--\":137:141   */\n      0x1f\n        /* \"--CODEGEN--\":133:142   */\n      not\n        /* \"--CODEGEN--\":126:130   */\n      0x1f\n        /* \"--CODEGEN--\":121:124   */\n      dup3\n        /* \"--CODEGEN--\":117:131   */\n      add\n        /* \"--CODEGEN--\":113:143   */\n      and\n        /* \"--CODEGEN--\":106:143   */\n      swap1\n      pop\n        /* \"--CODEGEN--\":169:172   */\n      dup1\n        /* \"--CODEGEN--\":161:167   */\n      dup4\n        /* \"--CODEGEN--\":157:173   */\n      add\n        /* \"--CODEGEN--\":147:173   */\n      swap3\n      pop\n        /* \"TopicFactory.sol\":122:516  function createTopic(string memory topicContent, uint minInvestment, uint hoursAvailable) payable public {\r... */\n      pop\n      pop\n      pop\n      pop\n      pop\n      pop\n      swap2\n      swap3\n      swap2\n      swap3\n      swap1\n      dup1\n      calldataload\n      swap1\n      0x20\n      add\n      swap1\n      swap3\n      swap2\n      swap1\n      dup1\n      calldataload\n      swap1\n      0x20\n      add\n      swap1\n      swap3\n      swap2\n      swap1\n      pop\n      pop\n      pop\n      tag_10\n      jump\t// in\n    tag_5:\n      stop\n        /* \"TopicFactory.sol\":524:632  function getDeployedTopics() public view returns (address[] memory) {\r... */\n    tag_3:\n      callvalue\n        /* \"--CODEGEN--\":8:17   */\n      dup1\n        /* \"--CODEGEN--\":5:7   */\n      iszero\n      tag_11\n      jumpi\n        /* \"--CODEGEN--\":30:31   */\n      0x00\n        /* \"--CODEGEN--\":27:28   */\n      dup1\n        /* \"--CODEGEN--\":20:32   */\n      revert\n        /* \"--CODEGEN--\":5:7   */\n    tag_11:\n        /* \"TopicFactory.sol\":524:632  function getDeployedTopics() public view returns (address[] memory) {\r... */\n      pop\n      tag_12\n      tag_13\n      jump\t// in\n    tag_12:\n      mload(0x40)\n      dup1\n      dup1\n      0x20\n      add\n      dup3\n      dup2\n      sub\n      dup3\n      mstore\n      dup4\n      dup2\n      dup2\n      mload\n      dup2\n      mstore\n      0x20\n      add\n      swap2\n      pop\n      dup1\n      mload\n      swap1\n      0x20\n      add\n      swap1\n      0x20\n      mul\n      dup1\n      dup4\n      dup4\n        /* \"--CODEGEN--\":23:24   */\n      0x00\n        /* \"--CODEGEN--\":8:108   */\n    tag_14:\n        /* \"--CODEGEN--\":33:36   */\n      dup4\n        /* \"--CODEGEN--\":30:31   */\n      dup2\n        /* \"--CODEGEN--\":27:37   */\n      lt\n        /* \"--CODEGEN--\":8:108   */\n      iszero\n      tag_16\n      jumpi\n        /* \"--CODEGEN--\":99:100   */\n      dup1\n        /* \"--CODEGEN--\":94:97   */\n      dup3\n        /* \"--CODEGEN--\":90:101   */\n      add\n        /* \"--CODEGEN--\":84:102   */\n      mload\n        /* \"--CODEGEN--\":80:81   */\n      dup2\n        /* \"--CODEGEN--\":75:78   */\n      dup5\n        /* \"--CODEGEN--\":71:82   */\n      add\n        /* \"--CODEGEN--\":64:103   */\n      mstore\n        /* \"--CODEGEN--\":52:54   */\n      0x20\n        /* \"--CODEGEN--\":49:50   */\n      dup2\n        /* \"--CODEGEN--\":45:55   */\n      add\n        /* \"--CODEGEN--\":40:55   */\n      swap1\n      pop\n        /* \"--CODEGEN--\":8:108   */\n      jump(tag_14)\n    tag_16:\n        /* \"--CODEGEN--\":12:26   */\n      pop\n        /* \"TopicFactory.sol\":524:632  function getDeployedTopics() public view returns (address[] memory) {\r... */\n      pop\n      pop\n      pop\n      swap1\n      pop\n      add\n      swap3\n      pop\n      pop\n      pop\n      mload(0x40)\n      dup1\n      swap2\n      sub\n      swap1\n      return\n        /* \"TopicFactory.sol\":82:113  address[] public deployedTopics */\n    tag_4:\n      callvalue\n        /* \"--CODEGEN--\":8:17   */\n      dup1\n        /* \"--CODEGEN--\":5:7   */\n      iszero\n      tag_17\n      jumpi\n        /* \"--CODEGEN--\":30:31   */\n      0x00\n        /* \"--CODEGEN--\":27:28   */\n      dup1\n        /* \"--CODEGEN--\":20:32   */\n      revert\n        /* \"--CODEGEN--\":5:7   */\n    tag_17:\n        /* \"TopicFactory.sol\":82:113  address[] public deployedTopics */\n      pop\n      tag_18\n      0x04\n      dup1\n      calldatasize\n      sub\n        /* \"--CODEGEN--\":13:15   */\n      0x20\n        /* \"--CODEGEN--\":8:11   */\n      dup2\n        /* \"--CODEGEN--\":5:16   */\n      lt\n        /* \"--CODEGEN--\":2:4   */\n      iszero\n      tag_19\n      jumpi\n        /* \"--CODEGEN--\":29:30   */\n      0x00\n        /* \"--CODEGEN--\":26:27   */\n      dup1\n        /* \"--CODEGEN--\":19:31   */\n      revert\n        /* \"--CODEGEN--\":2:4   */\n    tag_19:\n        /* \"TopicFactory.sol\":82:113  address[] public deployedTopics */\n      dup2\n      add\n      swap1\n      dup1\n      dup1\n      calldataload\n      swap1\n      0x20\n      add\n      swap1\n      swap3\n      swap2\n      swap1\n      pop\n      pop\n      pop\n      tag_20\n      jump\t// in\n    tag_18:\n      mload(0x40)\n      dup1\n      dup3\n      0xffffffffffffffffffffffffffffffffffffffff\n      and\n      0xffffffffffffffffffffffffffffffffffffffff\n      and\n      dup2\n      mstore\n      0x20\n      add\n      swap2\n      pop\n      pop\n      mload(0x40)\n      dup1\n      swap2\n      sub\n      swap1\n      return\n        /* \"TopicFactory.sol\":122:516  function createTopic(string memory topicContent, uint minInvestment, uint hoursAvailable) payable public {\r... */\n    tag_10:\n        /* \"TopicFactory.sol\":238:252  Topic newTopic */\n      0x00\n        /* \"TopicFactory.sol\":265:277  topicContent */\n      dup4\n        /* \"TopicFactory.sol\":279:292  minInvestment */\n      dup4\n        /* \"TopicFactory.sol\":294:308  hoursAvailable */\n      dup4\n        /* \"TopicFactory.sol\":310:320  msg.sender */\n      caller\n        /* \"TopicFactory.sol\":255:321  new Topic(topicContent, minInvestment, hoursAvailable, msg.sender) */\n      mload(0x40)\n      tag_22\n      swap1\n      tag_23\n      jump\t// in\n    tag_22:\n      dup1\n      dup1\n      0x20\n      add\n      dup6\n      dup2\n      mstore\n      0x20\n      add\n      dup5\n      dup2\n      mstore\n      0x20\n      add\n      dup4\n      0xffffffffffffffffffffffffffffffffffffffff\n      and\n      0xffffffffffffffffffffffffffffffffffffffff\n      and\n      dup2\n      mstore\n      0x20\n      add\n      dup3\n      dup2\n      sub\n      dup3\n      mstore\n      dup7\n      dup2\n      dup2\n      mload\n      dup2\n      mstore\n      0x20\n      add\n      swap2\n      pop\n      dup1\n      mload\n      swap1\n      0x20\n      add\n      swap1\n      dup1\n      dup4\n      dup4\n        /* \"--CODEGEN--\":23:24   */\n      0x00\n        /* \"--CODEGEN--\":8:108   */\n    tag_24:\n        /* \"--CODEGEN--\":33:36   */\n      dup4\n        /* \"--CODEGEN--\":30:31   */\n      dup2\n        /* \"--CODEGEN--\":27:37   */\n      lt\n        /* \"--CODEGEN--\":8:108   */\n      iszero\n      tag_26\n      jumpi\n        /* \"--CODEGEN--\":99:100   */\n      dup1\n        /* \"--CODEGEN--\":94:97   */\n      dup3\n        /* \"--CODEGEN--\":90:101   */\n      add\n        /* \"--CODEGEN--\":84:102   */\n      mload\n        /* \"--CODEGEN--\":80:81   */\n      dup2\n        /* \"--CODEGEN--\":75:78   */\n      dup5\n        /* \"--CODEGEN--\":71:82   */\n      add\n        /* \"--CODEGEN--\":64:103   */\n      mstore\n        /* \"--CODEGEN--\":52:54   */\n      0x20\n        /* \"--CODEGEN--\":49:50   */\n      dup2\n        /* \"--CODEGEN--\":45:55   */\n      add\n        /* \"--CODEGEN--\":40:55   */\n      swap1\n      pop\n        /* \"--CODEGEN--\":8:108   */\n      jump(tag_24)\n    tag_26:\n        /* \"--CODEGEN--\":12:26   */\n      pop\n        /* \"TopicFactory.sol\":255:321  new Topic(topicContent, minInvestment, hoursAvailable, msg.sender) */\n      pop\n      pop\n      pop\n      swap1\n      pop\n      swap1\n      dup2\n      add\n      swap1\n      0x1f\n      and\n      dup1\n      iszero\n      tag_27\n      jumpi\n      dup1\n      dup3\n      sub\n      dup1\n      mload\n      0x01\n      dup4\n      0x20\n      sub\n      0x0100\n      exp\n      sub\n      not\n      and\n      dup2\n      mstore\n      0x20\n      add\n      swap2\n      pop\n    tag_27:\n      pop\n      swap6\n      pop\n      pop\n      pop\n      pop\n      pop\n      pop\n      mload(0x40)\n      dup1\n      swap2\n      sub\n      swap1\n      0x00\n      create\n      dup1\n      iszero\n        /* \"--CODEGEN--\":8:17   */\n      dup1\n        /* \"--CODEGEN--\":5:7   */\n      iszero\n      tag_28\n      jumpi\n        /* \"--CODEGEN--\":45:61   */\n      returndatasize\n        /* \"--CODEGEN--\":42:43   */\n      0x00\n        /* \"--CODEGEN--\":39:40   */\n      dup1\n        /* \"--CODEGEN--\":24:62   */\n      returndatacopy\n        /* \"--CODEGEN--\":77:93   */\n      returndatasize\n        /* \"--CODEGEN--\":74:75   */\n      0x00\n        /* \"--CODEGEN--\":67:94   */\n      revert\n        /* \"--CODEGEN--\":5:7   */\n    tag_28:\n        /* \"TopicFactory.sol\":255:321  new Topic(topicContent, minInvestment, hoursAvailable, msg.sender) */\n      pop\n        /* \"TopicFactory.sol\":238:321  Topic newTopic = new Topic(topicContent, minInvestment, hoursAvailable, msg.sender) */\n      swap1\n      pop\n        /* \"TopicFactory.sol\":332:363  address payable newTopicAddress */\n      0x00\n        /* \"TopicFactory.sol\":390:398  newTopic */\n      dup2\n        /* \"TopicFactory.sol\":332:401  address payable newTopicAddress = address(uint160(address(newTopic))) */\n      swap1\n      pop\n        /* \"TopicFactory.sol\":412:427  newTopicAddress */\n      dup1\n        /* \"TopicFactory.sol\":412:436  newTopicAddress.transfer */\n      0xffffffffffffffffffffffffffffffffffffffff\n      and\n        /* \"TopicFactory.sol\":412:459  newTopicAddress.transfer(address(this).balance) */\n      0x08fc\n        /* \"TopicFactory.sol\":445:449  this */\n      address\n        /* \"TopicFactory.sol\":437:458  address(this).balance */\n      0xffffffffffffffffffffffffffffffffffffffff\n      and\n      balance\n        /* \"TopicFactory.sol\":412:459  newTopicAddress.transfer(address(this).balance) */\n      swap1\n      dup2\n      iszero\n      mul\n      swap1\n      mload(0x40)\n      0x00\n      mload(0x40)\n      dup1\n      dup4\n      sub\n      dup2\n      dup6\n      dup9\n      dup9\n      call\n      swap4\n      pop\n      pop\n      pop\n      pop\n      iszero\n        /* \"--CODEGEN--\":8:17   */\n      dup1\n        /* \"--CODEGEN--\":5:7   */\n      iszero\n      tag_29\n      jumpi\n        /* \"--CODEGEN--\":45:61   */\n      returndatasize\n        /* \"--CODEGEN--\":42:43   */\n      0x00\n        /* \"--CODEGEN--\":39:40   */\n      dup1\n        /* \"--CODEGEN--\":24:62   */\n      returndatacopy\n        /* \"--CODEGEN--\":77:93   */\n      returndatasize\n        /* \"--CODEGEN--\":74:75   */\n      0x00\n        /* \"--CODEGEN--\":67:94   */\n      revert\n        /* \"--CODEGEN--\":5:7   */\n    tag_29:\n        /* \"TopicFactory.sol\":412:459  newTopicAddress.transfer(address(this).balance) */\n      pop\n        /* \"TopicFactory.sol\":470:484  deployedTopics */\n      0x00\n        /* \"TopicFactory.sol\":498:506  newTopic */\n      dup3\n        /* \"TopicFactory.sol\":470:508  deployedTopics.push(address(newTopic)) */\n      swap1\n      dup1\n        /* \"--CODEGEN--\":39:40   */\n      0x01\n        /* \"--CODEGEN--\":33:36   */\n      dup2\n        /* \"--CODEGEN--\":27:37   */\n      sload\n        /* \"--CODEGEN--\":23:41   */\n      add\n        /* \"--CODEGEN--\":57:67   */\n      dup1\n        /* \"--CODEGEN--\":52:55   */\n      dup3\n        /* \"--CODEGEN--\":45:68   */\n      sstore\n        /* \"--CODEGEN--\":79:89   */\n      dup1\n        /* \"--CODEGEN--\":72:89   */\n      swap2\n      pop\n        /* \"--CODEGEN--\":0:93   */\n      pop\n        /* \"TopicFactory.sol\":470:508  deployedTopics.push(address(newTopic)) */\n      swap1\n      0x01\n      dup3\n      sub\n      swap1\n      0x00\n      mstore\n      keccak256(0x00, 0x20)\n      add\n      0x00\n      swap1\n      swap2\n      swap3\n      swap1\n      swap2\n      swap1\n      swap2\n      0x0100\n      exp\n      dup2\n      sload\n      dup2\n      0xffffffffffffffffffffffffffffffffffffffff\n      mul\n      not\n      and\n      swap1\n      dup4\n      0xffffffffffffffffffffffffffffffffffffffff\n      and\n      mul\n      or\n      swap1\n      sstore\n      pop\n      pop\n        /* \"TopicFactory.sol\":122:516  function createTopic(string memory topicContent, uint minInvestment, uint hoursAvailable) payable public {\r... */\n      pop\n      pop\n      pop\n      pop\n      pop\n      jump\t// out\n        /* \"TopicFactory.sol\":524:632  function getDeployedTopics() public view returns (address[] memory) {\r... */\n    tag_13:\n        /* \"TopicFactory.sol\":574:590  address[] memory */\n      0x60\n        /* \"TopicFactory.sol\":610:624  deployedTopics */\n      0x00\n        /* \"TopicFactory.sol\":603:624  return deployedTopics */\n      dup1\n      sload\n      dup1\n      0x20\n      mul\n      0x20\n      add\n      mload(0x40)\n      swap1\n      dup2\n      add\n      0x40\n      mstore\n      dup1\n      swap3\n      swap2\n      swap1\n      dup2\n      dup2\n      mstore\n      0x20\n      add\n      dup3\n      dup1\n      sload\n      dup1\n      iszero\n      tag_32\n      jumpi\n      0x20\n      mul\n      dup3\n      add\n      swap2\n      swap1\n      0x00\n      mstore\n      keccak256(0x00, 0x20)\n      swap1\n    tag_33:\n      dup2\n      0x00\n      swap1\n      sload\n      swap1\n      0x0100\n      exp\n      swap1\n      div\n      0xffffffffffffffffffffffffffffffffffffffff\n      and\n      0xffffffffffffffffffffffffffffffffffffffff\n      and\n      dup2\n      mstore\n      0x20\n      add\n      swap1\n      0x01\n      add\n      swap1\n      dup1\n      dup4\n      gt\n      tag_33\n      jumpi\n    tag_32:\n      pop\n      pop\n      pop\n      pop\n      pop\n      swap1\n      pop\n        /* \"TopicFactory.sol\":524:632  function getDeployedTopics() public view returns (address[] memory) {\r... */\n      swap1\n      jump\t// out\n        /* \"TopicFactory.sol\":82:113  address[] public deployedTopics */\n    tag_20:\n      0x00\n      dup2\n      dup2\n      sload\n      dup2\n      lt\n      tag_34\n      jumpi\n      invalid\n    tag_34:\n      swap1\n      0x00\n      mstore\n      keccak256(0x00, 0x20)\n      add\n      0x00\n      swap2\n      pop\n      sload\n      swap1\n      0x0100\n      exp\n      swap1\n      div\n      0xffffffffffffffffffffffffffffffffffffffff\n      and\n      dup2\n      jump\t// out\n        /* \"TopicFactory.sol\":53:635  contract TopicFactory {\r... */\n    tag_23:\n      dataSize(sub_0)\n      dup1\n      dataOffset(sub_0)\n      dup4\n      codecopy\n      add\n      swap1\n      jump\t// out\n    stop\n\n    sub_0: assembly {\n            /* \"Topic.sol\":28:8429  contract Topic {\r... */\n          mstore(0x40, 0x80)\n            /* \"Topic.sol\":1696:2215  constructor(string memory topicContent, uint minInvestment, uint hoursAvailable, address sender) public {\r... */\n          callvalue\n            /* \"--CODEGEN--\":8:17   */\n          dup1\n            /* \"--CODEGEN--\":5:7   */\n          iszero\n          tag_1\n          jumpi\n            /* \"--CODEGEN--\":30:31   */\n          0x00\n            /* \"--CODEGEN--\":27:28   */\n          dup1\n            /* \"--CODEGEN--\":20:32   */\n          revert\n            /* \"--CODEGEN--\":5:7   */\n        tag_1:\n            /* \"Topic.sol\":1696:2215  constructor(string memory topicContent, uint minInvestment, uint hoursAvailable, address sender) public {\r... */\n          pop\n          mload(0x40)\n          sub(codesize, bytecodeSize)\n          dup1\n          bytecodeSize\n          dup4\n          codecopy\n          dup2\n          dup2\n          add\n          0x40\n          mstore\n            /* \"--CODEGEN--\":13:16   */\n          0x80\n            /* \"--CODEGEN--\":8:11   */\n          dup2\n            /* \"--CODEGEN--\":5:17   */\n          lt\n            /* \"--CODEGEN--\":2:4   */\n          iszero\n          tag_2\n          jumpi\n            /* \"--CODEGEN--\":30:31   */\n          0x00\n            /* \"--CODEGEN--\":27:28   */\n          dup1\n            /* \"--CODEGEN--\":20:32   */\n          revert\n            /* \"--CODEGEN--\":2:4   */\n        tag_2:\n            /* \"Topic.sol\":1696:2215  constructor(string memory topicContent, uint minInvestment, uint hoursAvailable, address sender) public {\r... */\n          dup2\n          add\n          swap1\n          dup1\n          dup1\n          mload\n          mload(0x40)\n          swap4\n          swap3\n          swap2\n          swap1\n          dup5\n            /* \"--CODEGEN--\":19:30   */\n          0x0100000000\n            /* \"--CODEGEN--\":14:17   */\n          dup3\n            /* \"--CODEGEN--\":11:31   */\n          gt\n            /* \"--CODEGEN--\":8:10   */\n          iszero\n          tag_3\n          jumpi\n            /* \"--CODEGEN--\":44:45   */\n          0x00\n            /* \"--CODEGEN--\":41:42   */\n          dup1\n            /* \"--CODEGEN--\":34:46   */\n          revert\n            /* \"--CODEGEN--\":8:10   */\n        tag_3:\n            /* \"--CODEGEN--\":71:82   */\n          dup4\n            /* \"--CODEGEN--\":66:69   */\n          dup3\n            /* \"--CODEGEN--\":62:83   */\n          add\n            /* \"--CODEGEN--\":55:83   */\n          swap2\n          pop\n            /* \"--CODEGEN--\":123:127   */\n          0x20\n            /* \"--CODEGEN--\":118:121   */\n          dup3\n            /* \"--CODEGEN--\":114:128   */\n          add\n            /* \"--CODEGEN--\":159:168   */\n          dup6\n            /* \"--CODEGEN--\":141:157   */\n          dup2\n            /* \"--CODEGEN--\":138:169   */\n          gt\n            /* \"--CODEGEN--\":135:137   */\n          iszero\n          tag_4\n          jumpi\n            /* \"--CODEGEN--\":182:183   */\n          0x00\n            /* \"--CODEGEN--\":179:180   */\n          dup1\n            /* \"--CODEGEN--\":172:184   */\n          revert\n            /* \"--CODEGEN--\":135:137   */\n        tag_4:\n            /* \"--CODEGEN--\":219:222   */\n          dup3\n            /* \"--CODEGEN--\":213:223   */\n          mload\n            /* \"--CODEGEN--\":330:339   */\n          dup7\n            /* \"--CODEGEN--\":325:326   */\n          0x01\n            /* \"--CODEGEN--\":311:323   */\n          dup3\n            /* \"--CODEGEN--\":307:327   */\n          mul\n            /* \"--CODEGEN--\":289:305   */\n          dup4\n            /* \"--CODEGEN--\":285:328   */\n          add\n            /* \"--CODEGEN--\":282:340   */\n          gt\n            /* \"--CODEGEN--\":261:272   */\n          0x0100000000\n            /* \"--CODEGEN--\":247:259   */\n          dup3\n            /* \"--CODEGEN--\":244:273   */\n          gt\n            /* \"--CODEGEN--\":233:348   */\n          or\n            /* \"--CODEGEN--\":230:232   */\n          iszero\n          tag_5\n          jumpi\n            /* \"--CODEGEN--\":361:362   */\n          0x00\n            /* \"--CODEGEN--\":358:359   */\n          dup1\n            /* \"--CODEGEN--\":351:363   */\n          revert\n            /* \"--CODEGEN--\":230:232   */\n        tag_5:\n            /* \"--CODEGEN--\":384:396   */\n          dup1\n            /* \"--CODEGEN--\":379:382   */\n          dup4\n            /* \"--CODEGEN--\":372:397   */\n          mstore\n            /* \"--CODEGEN--\":420:424   */\n          0x20\n            /* \"--CODEGEN--\":415:418   */\n          dup4\n            /* \"--CODEGEN--\":411:425   */\n          add\n            /* \"--CODEGEN--\":404:425   */\n          swap3\n          pop\n            /* \"--CODEGEN--\":0:432   */\n          pop\n          pop\n            /* \"Topic.sol\":1696:2215  constructor(string memory topicContent, uint minInvestment, uint hoursAvailable, address sender) public {\r... */\n          swap1\n          dup1\n          mload\n          swap1\n          0x20\n          add\n          swap1\n          dup1\n          dup4\n          dup4\n            /* \"--CODEGEN--\":23:24   */\n          0x00\n            /* \"--CODEGEN--\":8:108   */\n        tag_6:\n            /* \"--CODEGEN--\":33:36   */\n          dup4\n            /* \"--CODEGEN--\":30:31   */\n          dup2\n            /* \"--CODEGEN--\":27:37   */\n          lt\n            /* \"--CODEGEN--\":8:108   */\n          iszero\n          tag_8\n          jumpi\n            /* \"--CODEGEN--\":99:100   */\n          dup1\n            /* \"--CODEGEN--\":94:97   */\n          dup3\n            /* \"--CODEGEN--\":90:101   */\n          add\n            /* \"--CODEGEN--\":84:102   */\n          mload\n            /* \"--CODEGEN--\":80:81   */\n          dup2\n            /* \"--CODEGEN--\":75:78   */\n          dup5\n            /* \"--CODEGEN--\":71:82   */\n          add\n            /* \"--CODEGEN--\":64:103   */\n          mstore\n            /* \"--CODEGEN--\":52:54   */\n          0x20\n            /* \"--CODEGEN--\":49:50   */\n          dup2\n            /* \"--CODEGEN--\":45:55   */\n          add\n            /* \"--CODEGEN--\":40:55   */\n          swap1\n          pop\n            /* \"--CODEGEN--\":8:108   */\n          jump(tag_6)\n        tag_8:\n            /* \"--CODEGEN--\":12:26   */\n          pop\n            /* \"Topic.sol\":1696:2215  constructor(string memory topicContent, uint minInvestment, uint hoursAvailable, address sender) public {\r... */\n          pop\n          pop\n          pop\n          swap1\n          pop\n          swap1\n          dup2\n          add\n          swap1\n          0x1f\n          and\n          dup1\n          iszero\n          tag_9\n          jumpi\n          dup1\n          dup3\n          sub\n          dup1\n          mload\n          0x01\n          dup4\n          0x20\n          sub\n          0x0100\n          exp\n          sub\n          not\n          and\n          dup2\n          mstore\n          0x20\n          add\n          swap2\n          pop\n        tag_9:\n          pop\n          0x40\n          mstore\n          0x20\n          add\n          dup1\n          mload\n          swap1\n          0x20\n          add\n          swap1\n          swap3\n          swap2\n          swap1\n          dup1\n          mload\n          swap1\n          0x20\n          add\n          swap1\n          swap3\n          swap2\n          swap1\n          dup1\n          mload\n          swap1\n          0x20\n          add\n          swap1\n          swap3\n          swap2\n          swap1\n          pop\n          pop\n          pop\n            /* \"Topic.sol\":1821:1833  topicContent */\n          dup4\n            /* \"Topic.sol\":1811:1818  content */\n          0x00\n            /* \"Topic.sol\":1811:1833  content = topicContent */\n          swap1\n          dup1\n          mload\n          swap1\n          0x20\n          add\n          swap1\n          tag_12\n          swap3\n          swap2\n          swap1\n          tag_13\n          jump\t// in\n        tag_12:\n          pop\n            /* \"Topic.sol\":1864:1877  minInvestment */\n          dup3\n            /* \"Topic.sol\":1844:1861  minimumInvestment */\n          0x02\n            /* \"Topic.sol\":1844:1877  minimumInvestment = minInvestment */\n          dup2\n          swap1\n          sstore\n          pop\n            /* \"Topic.sol\":1898:1904  sender */\n          dup1\n            /* \"Topic.sol\":1888:1895  creator */\n          0x01\n          0x00\n            /* \"Topic.sol\":1888:1904  creator = sender */\n          0x0100\n          exp\n          dup2\n          sload\n          dup2\n          0xffffffffffffffffffffffffffffffffffffffff\n          mul\n          not\n          and\n          swap1\n          dup4\n          0xffffffffffffffffffffffffffffffffffffffff\n          and\n          mul\n          or\n          swap1\n          sstore\n          pop\n            /* \"Topic.sol\":1926:1931  false */\n          0x00\n            /* \"Topic.sol\":1915:1923  isPublic */\n          0x01\n          0x14\n            /* \"Topic.sol\":1915:1931  isPublic = false */\n          0x0100\n          exp\n          dup2\n          sload\n          dup2\n          0xff\n          mul\n          not\n          and\n          swap1\n          dup4\n          iszero\n          iszero\n          mul\n          or\n          swap1\n          sstore\n          pop\n            /* \"Topic.sol\":1953:1954  0 */\n          0x00\n            /* \"Topic.sol\":1942:1950  majority */\n          0x0a\n            /* \"Topic.sol\":1942:1954  majority = 0 */\n          dup2\n          swap1\n          sstore\n          pop\n            /* \"Topic.sol\":1984:1985  0 */\n          0x00\n            /* \"Topic.sol\":1965:1981  payPerIndividual */\n          0x0b\n            /* \"Topic.sol\":1965:1985  payPerIndividual = 0 */\n          dup2\n          swap1\n          sstore\n          pop\n            /* \"Topic.sol\":2042:2051  1 seconds */\n          0x01\n            /* \"Topic.sol\":2024:2038  hoursAvailable */\n          dup3\n            /* \"Topic.sol\":2024:2051  hoursAvailable  * 1 seconds */\n          mul\n            /* \"Topic.sol\":2006:2021  block.timestamp */\n          timestamp\n            /* \"Topic.sol\":2006:2051  block.timestamp + hoursAvailable  * 1 seconds */\n          add\n            /* \"Topic.sol\":1996:2003  endTime */\n          0x03\n            /* \"Topic.sol\":1996:2051  endTime = block.timestamp + hoursAvailable  * 1 seconds */\n          dup2\n          swap1\n          sstore\n          pop\n            /* \"Topic.sol\":2120:2207  createArgument('You have not chosen yet whether the statement is true or false', false) */\n          tag_14\n          mload(0x40)\n          dup1\n          0x60\n          add\n          0x40\n          mstore\n          dup1\n          0x3e\n          dup2\n          mstore\n          0x20\n          add\n          data_aa34df7392f94c823c9355455ea589580c646b3576ea8448d1271c2c6cadfb70\n          0x3e\n          swap2\n          codecopy\n            /* \"Topic.sol\":2201:2206  false */\n          0x00\n            /* \"Topic.sol\":2120:2134  createArgument */\n          shl(0x20, tag_15)\n            /* \"Topic.sol\":2120:2207  createArgument('You have not chosen yet whether the statement is true or false', false) */\n          0x20\n          shr\n          jump\t// in\n        tag_14:\n            /* \"Topic.sol\":1696:2215  constructor(string memory topicContent, uint minInvestment, uint hoursAvailable, address sender) public {\r... */\n          pop\n          pop\n          pop\n          pop\n            /* \"Topic.sol\":28:8429  contract Topic {\r... */\n          jump(tag_16)\n            /* \"Topic.sol\":3265:3877  function createArgument(string memory argumentContent, bool belief) public _mustBeWithinTimeFrame {\r... */\n        tag_15:\n            /* \"Topic.sol\":1575:1582  endTime */\n          sload(0x03)\n            /* \"Topic.sol\":1557:1572  block.timestamp */\n          timestamp\n            /* \"Topic.sol\":1557:1582  block.timestamp < endTime */\n          lt\n            /* \"Topic.sol\":1549:1630  require(block.timestamp < endTime, 'The period for the Topic has already ended.') */\n          tag_18\n          jumpi\n          mload(0x40)\n          0x08c379a000000000000000000000000000000000000000000000000000000000\n          dup2\n          mstore\n          0x04\n          add\n          dup1\n          dup1\n          0x20\n          add\n          dup3\n          dup2\n          sub\n          dup3\n          mstore\n          0x2b\n          dup2\n          mstore\n          0x20\n          add\n          dup1\n          data_9f7f122b70f117f8950311c325d9279ba88d6a0d2b593ed4f11b7663b9f48d07\n          0x2b\n          swap2\n          codecopy\n          0x40\n          add\n          swap2\n          pop\n          pop\n          mload(0x40)\n          dup1\n          swap2\n          sub\n          swap1\n          revert\n        tag_18:\n            /* \"Topic.sol\":3544:3549  false */\n          0x00\n            /* \"Topic.sol\":3513:3549  createdArgument[msg.sender] == false */\n          iszero\n          iszero\n            /* \"Topic.sol\":3513:3528  createdArgument */\n          0x06\n            /* \"Topic.sol\":3513:3540  createdArgument[msg.sender] */\n          0x00\n            /* \"Topic.sol\":3529:3539  msg.sender */\n          caller\n            /* \"Topic.sol\":3513:3540  createdArgument[msg.sender] */\n          0xffffffffffffffffffffffffffffffffffffffff\n          and\n          0xffffffffffffffffffffffffffffffffffffffff\n          and\n          dup2\n          mstore\n          0x20\n          add\n          swap1\n          dup2\n          mstore\n          0x20\n          add\n          0x00\n          keccak256\n          0x00\n          swap1\n          sload\n          swap1\n          0x0100\n          exp\n          swap1\n          div\n          0xff\n          and\n            /* \"Topic.sol\":3513:3549  createdArgument[msg.sender] == false */\n          iszero\n          iszero\n          eq\n            /* \"Topic.sol\":3505:3591  require(createdArgument[msg.sender] == false, 'You have already created an argument.') */\n          tag_20\n          jumpi\n          mload(0x40)\n          0x08c379a000000000000000000000000000000000000000000000000000000000\n          dup2\n          mstore\n          0x04\n          add\n          dup1\n          dup1\n          0x20\n          add\n          dup3\n          dup2\n          sub\n          dup3\n          mstore\n          0x25\n          dup2\n          mstore\n          0x20\n          add\n          dup1\n          data_8912f675a50e382e9fd7b592cf1cd9595235c43ce4309904b1bd35e2a18fc4ee\n          0x25\n          swap2\n          codecopy\n          0x40\n          add\n          swap2\n          pop\n          pop\n          mload(0x40)\n          dup1\n          swap2\n          sub\n          swap1\n          revert\n        tag_20:\n            /* \"Topic.sol\":3604:3631  Argument memory newArgument */\n          tag_21\n          tag_22\n          jump\t// in\n        tag_21:\n            /* \"Topic.sol\":3634:3784  Argument({\r... */\n          mload(0x40)\n          dup1\n          0x80\n          add\n          0x40\n          mstore\n          dup1\n            /* \"Topic.sol\":3667:3682  argumentContent */\n          dup5\n            /* \"Topic.sol\":3634:3784  Argument({\r... */\n          dup2\n          mstore\n          0x20\n          add\n            /* \"Topic.sol\":3705:3711  belief */\n          dup4\n            /* \"Topic.sol\":3634:3784  Argument({\r... */\n          iszero\n          iszero\n          dup2\n          mstore\n          0x20\n          add\n            /* \"Topic.sol\":3735:3745  msg.sender */\n          caller\n            /* \"Topic.sol\":3634:3784  Argument({\r... */\n          0xffffffffffffffffffffffffffffffffffffffff\n          and\n          dup2\n          mstore\n          0x20\n          add\n            /* \"Topic.sol\":3771:3772  0 */\n          0x00\n            /* \"Topic.sol\":3634:3784  Argument({\r... */\n          dup2\n          mstore\n          pop\n            /* \"Topic.sol\":3604:3784  Argument memory newArgument = Argument({\r... */\n          swap1\n          pop\n            /* \"Topic.sol\":3795:3804  arguments */\n          0x04\n            /* \"Topic.sol\":3810:3821  newArgument */\n          dup2\n            /* \"Topic.sol\":3795:3822  arguments.push(newArgument) */\n          swap1\n          dup1\n            /* \"--CODEGEN--\":39:40   */\n          0x01\n            /* \"--CODEGEN--\":33:36   */\n          dup2\n            /* \"--CODEGEN--\":27:37   */\n          sload\n            /* \"--CODEGEN--\":23:41   */\n          add\n            /* \"--CODEGEN--\":57:67   */\n          dup1\n            /* \"--CODEGEN--\":52:55   */\n          dup3\n            /* \"--CODEGEN--\":45:68   */\n          sstore\n            /* \"--CODEGEN--\":79:89   */\n          dup1\n            /* \"--CODEGEN--\":72:89   */\n          swap2\n          pop\n            /* \"--CODEGEN--\":0:93   */\n          pop\n            /* \"Topic.sol\":3795:3822  arguments.push(newArgument) */\n          swap1\n          0x01\n          dup3\n          sub\n          swap1\n          0x00\n          mstore\n          keccak256(0x00, 0x20)\n          swap1\n          0x03\n          mul\n          add\n          0x00\n          swap1\n          swap2\n          swap3\n          swap1\n          swap2\n          swap1\n          swap2\n          pop\n          0x00\n          dup3\n          add\n          mload\n          dup2\n          0x00\n          add\n          swap1\n          dup1\n          mload\n          swap1\n          0x20\n          add\n          swap1\n          tag_24\n          swap3\n          swap2\n          swap1\n          tag_25\n          jump\t// in\n        tag_24:\n          pop\n          0x20\n          dup3\n          add\n          mload\n          dup2\n          0x01\n          add\n          exp(0x0100, 0x00)\n          dup2\n          sload\n          dup2\n          0xff\n          mul\n          not\n          and\n          swap1\n          dup4\n          iszero\n          iszero\n          mul\n          or\n          swap1\n          sstore\n          pop\n          0x40\n          dup3\n          add\n          mload\n          dup2\n          0x01\n          add\n          exp(0x0100, 0x01)\n          dup2\n          sload\n          dup2\n          0xffffffffffffffffffffffffffffffffffffffff\n          mul\n          not\n          and\n          swap1\n          dup4\n          0xffffffffffffffffffffffffffffffffffffffff\n          and\n          mul\n          or\n          swap1\n          sstore\n          pop\n          0x60\n          dup3\n          add\n          mload\n          dup2\n          0x02\n          add\n          sstore\n          pop\n          pop\n          pop\n            /* \"Topic.sol\":3865:3869  true */\n          0x01\n            /* \"Topic.sol\":3835:3850  createdArgument */\n          0x06\n            /* \"Topic.sol\":3835:3862  createdArgument[msg.sender] */\n          0x00\n            /* \"Topic.sol\":3851:3861  msg.sender */\n          caller\n            /* \"Topic.sol\":3835:3862  createdArgument[msg.sender] */\n          0xffffffffffffffffffffffffffffffffffffffff\n          and\n          0xffffffffffffffffffffffffffffffffffffffff\n          and\n          dup2\n          mstore\n          0x20\n          add\n          swap1\n          dup2\n          mstore\n          0x20\n          add\n          0x00\n          keccak256\n          0x00\n            /* \"Topic.sol\":3835:3869  createdArgument[msg.sender] = true */\n          0x0100\n          exp\n          dup2\n          sload\n          dup2\n          0xff\n          mul\n          not\n          and\n          swap1\n          dup4\n          iszero\n          iszero\n          mul\n          or\n          swap1\n          sstore\n          pop\n            /* \"Topic.sol\":1641:1642  _ */\n          pop\n            /* \"Topic.sol\":3265:3877  function createArgument(string memory argumentContent, bool belief) public _mustBeWithinTimeFrame {\r... */\n          pop\n          pop\n          jump\t// out\n            /* \"Topic.sol\":28:8429  contract Topic {\r... */\n        tag_13:\n          dup3\n          dup1\n          sload\n          0x01\n          dup2\n          0x01\n          and\n          iszero\n          0x0100\n          mul\n          sub\n          and\n          0x02\n          swap1\n          div\n          swap1\n          0x00\n          mstore\n          keccak256(0x00, 0x20)\n          swap1\n          0x1f\n          add\n          0x20\n          swap1\n          div\n          dup2\n          add\n          swap3\n          dup3\n          0x1f\n          lt\n          tag_27\n          jumpi\n          dup1\n          mload\n          not(0xff)\n          and\n          dup4\n          dup1\n          add\n          or\n          dup6\n          sstore\n          jump(tag_26)\n        tag_27:\n          dup3\n          dup1\n          add\n          0x01\n          add\n          dup6\n          sstore\n          dup3\n          iszero\n          tag_26\n          jumpi\n          swap2\n          dup3\n          add\n        tag_28:\n          dup3\n          dup2\n          gt\n          iszero\n          tag_29\n          jumpi\n          dup3\n          mload\n          dup3\n          sstore\n          swap2\n          0x20\n          add\n          swap2\n          swap1\n          0x01\n          add\n          swap1\n          jump(tag_28)\n        tag_29:\n        tag_26:\n          pop\n          swap1\n          pop\n          tag_30\n          swap2\n          swap1\n          tag_31\n          jump\t// in\n        tag_30:\n          pop\n          swap1\n          jump\t// out\n        tag_22:\n          mload(0x40)\n          dup1\n          0x80\n          add\n          0x40\n          mstore\n          dup1\n          0x60\n          dup2\n          mstore\n          0x20\n          add\n          iszero(iszero(0x00))\n          dup2\n          mstore\n          0x20\n          add\n          and(0xffffffffffffffffffffffffffffffffffffffff, 0x00)\n          dup2\n          mstore\n          0x20\n          add\n          0x00\n          dup2\n          mstore\n          pop\n          swap1\n          jump\t// out\n        tag_25:\n          dup3\n          dup1\n          sload\n          0x01\n          dup2\n          0x01\n          and\n          iszero\n          0x0100\n          mul\n          sub\n          and\n          0x02\n          swap1\n          div\n          swap1\n          0x00\n          mstore\n          keccak256(0x00, 0x20)\n          swap1\n          0x1f\n          add\n          0x20\n          swap1\n          div\n          dup2\n          add\n          swap3\n          dup3\n          0x1f\n          lt\n          tag_33\n          jumpi\n          dup1\n          mload\n          not(0xff)\n          and\n          dup4\n          dup1\n          add\n          or\n          dup6\n          sstore\n          jump(tag_32)\n        tag_33:\n          dup3\n          dup1\n          add\n          0x01\n          add\n          dup6\n          sstore\n          dup3\n          iszero\n          tag_32\n          jumpi\n          swap2\n          dup3\n          add\n        tag_34:\n          dup3\n          dup2\n          gt\n          iszero\n          tag_35\n          jumpi\n          dup3\n          mload\n          dup3\n          sstore\n          swap2\n          0x20\n          add\n          swap2\n          swap1\n          0x01\n          add\n          swap1\n          jump(tag_34)\n        tag_35:\n        tag_32:\n          pop\n          swap1\n          pop\n          tag_36\n          swap2\n          swap1\n          tag_31\n          jump\t// in\n        tag_36:\n          pop\n          swap1\n          jump\t// out\n        tag_31:\n          tag_37\n          swap2\n          swap1\n        tag_38:\n          dup1\n          dup3\n          gt\n          iszero\n          tag_39\n          jumpi\n          0x00\n          dup2\n          0x00\n          swap1\n          sstore\n          pop\n          0x01\n          add\n          jump(tag_38)\n        tag_39:\n          pop\n          swap1\n          jump\n        tag_37:\n          swap1\n          jump\t// out\n        tag_16:\n          dataSize(sub_0)\n          dup1\n          dataOffset(sub_0)\n          0x00\n          codecopy\n          0x00\n          return\n        stop\n        data_8912f675a50e382e9fd7b592cf1cd9595235c43ce4309904b1bd35e2a18fc4ee 596f75206861766520616c7265616479206372656174656420616e20617267756d656e742e\n        data_9f7f122b70f117f8950311c325d9279ba88d6a0d2b593ed4f11b7663b9f48d07 54686520706572696f6420666f722074686520546f7069632068617320616c726561647920656e6465642e\n        data_aa34df7392f94c823c9355455ea589580c646b3576ea8448d1271c2c6cadfb70 596f752068617665206e6f742063686f73656e207965742077686574686572207468652073746174656d656e742069732074727565206f722066616c7365\n\n        sub_0: assembly {\n                /* \"Topic.sol\":28:8429  contract Topic {\r... */\n              mstore(0x40, 0x80)\n              jumpi(tag_1, lt(calldatasize, 0x04))\n              shr(0xe0, calldataload(0x00))\n              dup1\n              0x8a4d5a67\n              gt\n              tag_25\n              jumpi\n              dup1\n              0xc234d789\n              gt\n              tag_26\n              jumpi\n              dup1\n              0xc234d789\n              eq\n              tag_19\n              jumpi\n              dup1\n              0xdc9a1535\n              eq\n              tag_20\n              jumpi\n              dup1\n              0xe5d00035\n              eq\n              tag_21\n              jumpi\n              dup1\n              0xf22bb5f6\n              eq\n              tag_22\n              jumpi\n              dup1\n              0xfa391c64\n              eq\n              tag_23\n              jumpi\n              dup1\n              0xfc018c05\n              eq\n              tag_24\n              jumpi\n              jump(tag_1)\n            tag_26:\n              dup1\n              0x8a4d5a67\n              eq\n              tag_13\n              jumpi\n              dup1\n              0x9380b1cf\n              eq\n              tag_14\n              jumpi\n              dup1\n              0xaec2ccae\n              eq\n              tag_15\n              jumpi\n              dup1\n              0xb4fdf113\n              eq\n              tag_16\n              jumpi\n              dup1\n              0xb6b9e90a\n              eq\n              tag_17\n              jumpi\n              dup1\n              0xb6e54bdf\n              eq\n              tag_18\n              jumpi\n              jump(tag_1)\n            tag_25:\n              dup1\n              0x2b925b25\n              gt\n              tag_27\n              jumpi\n              dup1\n              0x2b925b25\n              eq\n              tag_7\n              jumpi\n              dup1\n              0x2ec32e6d\n              eq\n              tag_8\n              jumpi\n              dup1\n              0x3197cbb6\n              eq\n              tag_9\n              jumpi\n              dup1\n              0x44fe9432\n              eq\n              tag_10\n              jumpi\n              dup1\n              0x4e71d92d\n              eq\n              tag_11\n              jumpi\n              dup1\n              0x6e3ebc2e\n              eq\n              tag_12\n              jumpi\n              jump(tag_1)\n            tag_27:\n              dup1\n              0x0121b93f\n              eq\n              tag_2\n              jumpi\n              dup1\n              0x02d05d3f\n              eq\n              tag_3\n              jumpi\n              dup1\n              0x0715ef00\n              eq\n              tag_4\n              jumpi\n              dup1\n              0x09f74db7\n              eq\n              tag_5\n              jumpi\n              dup1\n              0x0a68f631\n              eq\n              tag_6\n              jumpi\n            tag_1:\n              stop\n                /* \"Topic.sol\":2384:3053  function vote(uint argumentIndex) public payable _mustBeWithinTimeFrame _publicOnly {\r... */\n            tag_2:\n              tag_30\n              0x04\n              dup1\n              calldatasize\n              sub\n                /* \"--CODEGEN--\":13:15   */\n              0x20\n                /* \"--CODEGEN--\":8:11   */\n              dup2\n                /* \"--CODEGEN--\":5:16   */\n              lt\n                /* \"--CODEGEN--\":2:4   */\n              iszero\n              tag_31\n              jumpi\n                /* \"--CODEGEN--\":29:30   */\n              0x00\n                /* \"--CODEGEN--\":26:27   */\n              dup1\n                /* \"--CODEGEN--\":19:31   */\n              revert\n                /* \"--CODEGEN--\":2:4   */\n            tag_31:\n                /* \"Topic.sol\":2384:3053  function vote(uint argumentIndex) public payable _mustBeWithinTimeFrame _publicOnly {\r... */\n              dup2\n              add\n              swap1\n              dup1\n              dup1\n              calldataload\n              swap1\n              0x20\n              add\n              swap1\n              swap3\n              swap2\n              swap1\n              pop\n              pop\n              pop\n              tag_32\n              jump\t// in\n            tag_30:\n              stop\n                /* \"Topic.sol\":649:671  address public creator */\n            tag_3:\n              callvalue\n                /* \"--CODEGEN--\":8:17   */\n              dup1\n                /* \"--CODEGEN--\":5:7   */\n              iszero\n              tag_33\n              jumpi\n                /* \"--CODEGEN--\":30:31   */\n              0x00\n                /* \"--CODEGEN--\":27:28   */\n              dup1\n                /* \"--CODEGEN--\":20:32   */\n              revert\n                /* \"--CODEGEN--\":5:7   */\n            tag_33:\n                /* \"Topic.sol\":649:671  address public creator */\n              pop\n              tag_34\n              tag_35\n              jump\t// in\n            tag_34:\n              mload(0x40)\n              dup1\n              dup3\n              0xffffffffffffffffffffffffffffffffffffffff\n              and\n              0xffffffffffffffffffffffffffffffffffffffff\n              and\n              dup2\n              mstore\n              0x20\n              add\n              swap2\n              pop\n              pop\n              mload(0x40)\n              dup1\n              swap2\n              sub\n              swap1\n              return\n                /* \"Topic.sol\":3265:3877  function createArgument(string memory argumentContent, bool belief) public _mustBeWithinTimeFrame {\r... */\n            tag_4:\n              callvalue\n                /* \"--CODEGEN--\":8:17   */\n              dup1\n                /* \"--CODEGEN--\":5:7   */\n              iszero\n              tag_36\n              jumpi\n                /* \"--CODEGEN--\":30:31   */\n              0x00\n                /* \"--CODEGEN--\":27:28   */\n              dup1\n                /* \"--CODEGEN--\":20:32   */\n              revert\n                /* \"--CODEGEN--\":5:7   */\n            tag_36:\n                /* \"Topic.sol\":3265:3877  function createArgument(string memory argumentContent, bool belief) public _mustBeWithinTimeFrame {\r... */\n              pop\n              tag_37\n              0x04\n              dup1\n              calldatasize\n              sub\n                /* \"--CODEGEN--\":13:15   */\n              0x40\n                /* \"--CODEGEN--\":8:11   */\n              dup2\n                /* \"--CODEGEN--\":5:16   */\n              lt\n                /* \"--CODEGEN--\":2:4   */\n              iszero\n              tag_38\n              jumpi\n                /* \"--CODEGEN--\":29:30   */\n              0x00\n                /* \"--CODEGEN--\":26:27   */\n              dup1\n                /* \"--CODEGEN--\":19:31   */\n              revert\n                /* \"--CODEGEN--\":2:4   */\n            tag_38:\n                /* \"Topic.sol\":3265:3877  function createArgument(string memory argumentContent, bool belief) public _mustBeWithinTimeFrame {\r... */\n              dup2\n              add\n              swap1\n              dup1\n              dup1\n              calldataload\n              swap1\n              0x20\n              add\n              swap1\n                /* \"--CODEGEN--\":21:32   */\n              0x0100000000\n                /* \"--CODEGEN--\":8:19   */\n              dup2\n                /* \"--CODEGEN--\":5:33   */\n              gt\n                /* \"--CODEGEN--\":2:4   */\n              iszero\n              tag_39\n              jumpi\n                /* \"--CODEGEN--\":46:47   */\n              0x00\n                /* \"--CODEGEN--\":43:44   */\n              dup1\n                /* \"--CODEGEN--\":36:48   */\n              revert\n                /* \"--CODEGEN--\":2:4   */\n            tag_39:\n                /* \"Topic.sol\":3265:3877  function createArgument(string memory argumentContent, bool belief) public _mustBeWithinTimeFrame {\r... */\n              dup3\n              add\n                /* \"--CODEGEN--\":35:44   */\n              dup4\n                /* \"--CODEGEN--\":28:32   */\n              0x20\n                /* \"--CODEGEN--\":12:26   */\n              dup3\n                /* \"--CODEGEN--\":8:33   */\n              add\n                /* \"--CODEGEN--\":5:45   */\n              gt\n                /* \"--CODEGEN--\":2:4   */\n              iszero\n              tag_40\n              jumpi\n                /* \"--CODEGEN--\":58:59   */\n              0x00\n                /* \"--CODEGEN--\":55:56   */\n              dup1\n                /* \"--CODEGEN--\":48:60   */\n              revert\n                /* \"--CODEGEN--\":2:4   */\n            tag_40:\n                /* \"Topic.sol\":3265:3877  function createArgument(string memory argumentContent, bool belief) public _mustBeWithinTimeFrame {\r... */\n              dup1\n              calldataload\n              swap1\n              0x20\n              add\n              swap2\n                /* \"--CODEGEN--\":100:109   */\n              dup5\n                /* \"--CODEGEN--\":95:96   */\n              0x01\n                /* \"--CODEGEN--\":81:93   */\n              dup4\n                /* \"--CODEGEN--\":77:97   */\n              mul\n                /* \"--CODEGEN--\":67:75   */\n              dup5\n                /* \"--CODEGEN--\":63:98   */\n              add\n                /* \"--CODEGEN--\":60:110   */\n              gt\n                /* \"--CODEGEN--\":39:50   */\n              0x0100000000\n                /* \"--CODEGEN--\":25:37   */\n              dup4\n                /* \"--CODEGEN--\":22:51   */\n              gt\n                /* \"--CODEGEN--\":11:118   */\n              or\n                /* \"--CODEGEN--\":8:10   */\n              iszero\n              tag_41\n              jumpi\n                /* \"--CODEGEN--\":131:132   */\n              0x00\n                /* \"--CODEGEN--\":128:129   */\n              dup1\n                /* \"--CODEGEN--\":121:133   */\n              revert\n                /* \"--CODEGEN--\":8:10   */\n            tag_41:\n                /* \"Topic.sol\":3265:3877  function createArgument(string memory argumentContent, bool belief) public _mustBeWithinTimeFrame {\r... */\n              swap2\n              swap1\n              dup1\n              dup1\n              0x1f\n              add\n              0x20\n              dup1\n              swap2\n              div\n              mul\n              0x20\n              add\n              mload(0x40)\n              swap1\n              dup2\n              add\n              0x40\n              mstore\n              dup1\n              swap4\n              swap3\n              swap2\n              swap1\n              dup2\n              dup2\n              mstore\n              0x20\n              add\n              dup4\n              dup4\n                /* \"--CODEGEN--\":30:33   */\n              dup1\n                /* \"--CODEGEN--\":22:28   */\n              dup3\n                /* \"--CODEGEN--\":14:20   */\n              dup5\n                /* \"--CODEGEN--\":1:34   */\n              calldatacopy\n                /* \"--CODEGEN--\":99:100   */\n              0x00\n                /* \"--CODEGEN--\":93:96   */\n              dup2\n                /* \"--CODEGEN--\":85:91   */\n              dup5\n                /* \"--CODEGEN--\":81:97   */\n              add\n                /* \"--CODEGEN--\":74:101   */\n              mstore\n                /* \"--CODEGEN--\":137:141   */\n              0x1f\n                /* \"--CODEGEN--\":133:142   */\n              not\n                /* \"--CODEGEN--\":126:130   */\n              0x1f\n                /* \"--CODEGEN--\":121:124   */\n              dup3\n                /* \"--CODEGEN--\":117:131   */\n              add\n                /* \"--CODEGEN--\":113:143   */\n              and\n                /* \"--CODEGEN--\":106:143   */\n              swap1\n              pop\n                /* \"--CODEGEN--\":169:172   */\n              dup1\n                /* \"--CODEGEN--\":161:167   */\n              dup4\n                /* \"--CODEGEN--\":157:173   */\n              add\n                /* \"--CODEGEN--\":147:173   */\n              swap3\n              pop\n                /* \"Topic.sol\":3265:3877  function createArgument(string memory argumentContent, bool belief) public _mustBeWithinTimeFrame {\r... */\n              pop\n              pop\n              pop\n              pop\n              pop\n              pop\n              swap2\n              swap3\n              swap2\n              swap3\n              swap1\n              dup1\n              calldataload\n              iszero\n              iszero\n              swap1\n              0x20\n              add\n              swap1\n              swap3\n              swap2\n              swap1\n              pop\n              pop\n              pop\n              tag_42\n              jump\t// in\n            tag_37:\n              stop\n                /* \"Topic.sol\":960:994  address payable[] public lieVoters */\n            tag_5:\n              callvalue\n                /* \"--CODEGEN--\":8:17   */\n              dup1\n                /* \"--CODEGEN--\":5:7   */\n              iszero\n              tag_43\n              jumpi\n                /* \"--CODEGEN--\":30:31   */\n              0x00\n                /* \"--CODEGEN--\":27:28   */\n              dup1\n                /* \"--CODEGEN--\":20:32   */\n              revert\n                /* \"--CODEGEN--\":5:7   */\n            tag_43:\n                /* \"Topic.sol\":960:994  address payable[] public lieVoters */\n              pop\n              tag_44\n              0x04\n              dup1\n              calldatasize\n              sub\n                /* \"--CODEGEN--\":13:15   */\n              0x20\n                /* \"--CODEGEN--\":8:11   */\n              dup2\n                /* \"--CODEGEN--\":5:16   */\n              lt\n                /* \"--CODEGEN--\":2:4   */\n              iszero\n              tag_45\n              jumpi\n                /* \"--CODEGEN--\":29:30   */\n              0x00\n                /* \"--CODEGEN--\":26:27   */\n              dup1\n                /* \"--CODEGEN--\":19:31   */\n              revert\n                /* \"--CODEGEN--\":2:4   */\n            tag_45:\n                /* \"Topic.sol\":960:994  address payable[] public lieVoters */\n              dup2\n              add\n              swap1\n              dup1\n              dup1\n              calldataload\n              swap1\n              0x20\n              add\n              swap1\n              swap3\n              swap2\n              swap1\n              pop\n              pop\n              pop\n              tag_46\n              jump\t// in\n            tag_44:\n              mload(0x40)\n              dup1\n              dup3\n              0xffffffffffffffffffffffffffffffffffffffff\n              and\n              0xffffffffffffffffffffffffffffffffffffffff\n              and\n              dup2\n              mstore\n              0x20\n              add\n              swap2\n              pop\n              pop\n              mload(0x40)\n              dup1\n              swap2\n              sub\n              swap1\n              return\n                /* \"Topic.sol\":767:794  Argument[] public arguments */\n            tag_6:\n              callvalue\n                /* \"--CODEGEN--\":8:17   */\n              dup1\n                /* \"--CODEGEN--\":5:7   */\n              iszero\n              tag_47\n              jumpi\n                /* \"--CODEGEN--\":30:31   */\n              0x00\n                /* \"--CODEGEN--\":27:28   */\n              dup1\n                /* \"--CODEGEN--\":20:32   */\n              revert\n                /* \"--CODEGEN--\":5:7   */\n            tag_47:\n                /* \"Topic.sol\":767:794  Argument[] public arguments */\n              pop\n              tag_48\n              0x04\n              dup1\n              calldatasize\n              sub\n                /* \"--CODEGEN--\":13:15   */\n              0x20\n                /* \"--CODEGEN--\":8:11   */\n              dup2\n                /* \"--CODEGEN--\":5:16   */\n              lt\n                /* \"--CODEGEN--\":2:4   */\n              iszero\n              tag_49\n              jumpi\n                /* \"--CODEGEN--\":29:30   */\n              0x00\n                /* \"--CODEGEN--\":26:27   */\n              dup1\n                /* \"--CODEGEN--\":19:31   */\n              revert\n                /* \"--CODEGEN--\":2:4   */\n            tag_49:\n                /* \"Topic.sol\":767:794  Argument[] public arguments */\n              dup2\n              add\n              swap1\n              dup1\n              dup1\n              calldataload\n              swap1\n              0x20\n              add\n              swap1\n              swap3\n              swap2\n              swap1\n              pop\n              pop\n              pop\n              tag_50\n              jump\t// in\n            tag_48:\n              mload(0x40)\n              dup1\n              dup1\n              0x20\n              add\n              dup6\n              iszero\n              iszero\n              iszero\n              iszero\n              dup2\n              mstore\n              0x20\n              add\n              dup5\n              0xffffffffffffffffffffffffffffffffffffffff\n              and\n              0xffffffffffffffffffffffffffffffffffffffff\n              and\n              dup2\n              mstore\n              0x20\n              add\n              dup4\n              dup2\n              mstore\n              0x20\n              add\n              dup3\n              dup2\n              sub\n              dup3\n              mstore\n              dup7\n              dup2\n              dup2\n              mload\n              dup2\n              mstore\n              0x20\n              add\n              swap2\n              pop\n              dup1\n              mload\n              swap1\n              0x20\n              add\n              swap1\n              dup1\n              dup4\n              dup4\n                /* \"--CODEGEN--\":23:24   */\n              0x00\n                /* \"--CODEGEN--\":8:108   */\n            tag_51:\n                /* \"--CODEGEN--\":33:36   */\n              dup4\n                /* \"--CODEGEN--\":30:31   */\n              dup2\n                /* \"--CODEGEN--\":27:37   */\n              lt\n                /* \"--CODEGEN--\":8:108   */\n              iszero\n              tag_53\n              jumpi\n                /* \"--CODEGEN--\":99:100   */\n              dup1\n                /* \"--CODEGEN--\":94:97   */\n              dup3\n                /* \"--CODEGEN--\":90:101   */\n              add\n                /* \"--CODEGEN--\":84:102   */\n              mload\n                /* \"--CODEGEN--\":80:81   */\n              dup2\n                /* \"--CODEGEN--\":75:78   */\n              dup5\n                /* \"--CODEGEN--\":71:82   */\n              add\n                /* \"--CODEGEN--\":64:103   */\n              mstore\n                /* \"--CODEGEN--\":52:54   */\n              0x20\n                /* \"--CODEGEN--\":49:50   */\n              dup2\n                /* \"--CODEGEN--\":45:55   */\n              add\n                /* \"--CODEGEN--\":40:55   */\n              swap1\n              pop\n                /* \"--CODEGEN--\":8:108   */\n              jump(tag_51)\n            tag_53:\n                /* \"--CODEGEN--\":12:26   */\n              pop\n                /* \"Topic.sol\":767:794  Argument[] public arguments */\n              pop\n              pop\n              pop\n              swap1\n              pop\n              swap1\n              dup2\n              add\n              swap1\n              0x1f\n              and\n              dup1\n              iszero\n              tag_54\n              jumpi\n              dup1\n              dup3\n              sub\n              dup1\n              mload\n              0x01\n              dup4\n              0x20\n              sub\n              0x0100\n              exp\n              sub\n              not\n              and\n              dup2\n              mstore\n              0x20\n              add\n              swap2\n              pop\n            tag_54:\n              pop\n              swap6\n              pop\n              pop\n              pop\n              pop\n              pop\n              pop\n              mload(0x40)\n              dup1\n              swap2\n              sub\n              swap1\n              return\n                /* \"Topic.sol\":705:734  uint public minimumInvestment */\n            tag_7:\n              callvalue\n                /* \"--CODEGEN--\":8:17   */\n              dup1\n                /* \"--CODEGEN--\":5:7   */\n              iszero\n              tag_55\n              jumpi\n                /* \"--CODEGEN--\":30:31   */\n              0x00\n                /* \"--CODEGEN--\":27:28   */\n              dup1\n                /* \"--CODEGEN--\":20:32   */\n              revert\n                /* \"--CODEGEN--\":5:7   */\n            tag_55:\n                /* \"Topic.sol\":705:734  uint public minimumInvestment */\n              pop\n              tag_56\n              tag_57\n              jump\t// in\n            tag_56:\n              mload(0x40)\n              dup1\n              dup3\n              dup2\n              mstore\n              0x20\n              add\n              swap2\n              pop\n              pop\n              mload(0x40)\n              dup1\n              swap2\n              sub\n              swap1\n              return\n                /* \"Topic.sol\":3061:3157  function getTruthCount() public view returns (uint) {\r... */\n            tag_8:\n              callvalue\n                /* \"--CODEGEN--\":8:17   */\n              dup1\n                /* \"--CODEGEN--\":5:7   */\n              iszero\n              tag_58\n              jumpi\n                /* \"--CODEGEN--\":30:31   */\n              0x00\n                /* \"--CODEGEN--\":27:28   */\n              dup1\n                /* \"--CODEGEN--\":20:32   */\n              revert\n                /* \"--CODEGEN--\":5:7   */\n            tag_58:\n                /* \"Topic.sol\":3061:3157  function getTruthCount() public view returns (uint) {\r... */\n              pop\n              tag_59\n              tag_60\n              jump\t// in\n            tag_59:\n              mload(0x40)\n              dup1\n              dup3\n              dup2\n              mstore\n              0x20\n              add\n              swap2\n              pop\n              pop\n              mload(0x40)\n              dup1\n              swap2\n              sub\n              swap1\n              return\n                /* \"Topic.sol\":741:760  uint public endTime */\n            tag_9:\n              callvalue\n                /* \"--CODEGEN--\":8:17   */\n              dup1\n                /* \"--CODEGEN--\":5:7   */\n              iszero\n              tag_61\n              jumpi\n                /* \"--CODEGEN--\":30:31   */\n              0x00\n                /* \"--CODEGEN--\":27:28   */\n              dup1\n                /* \"--CODEGEN--\":20:32   */\n              revert\n                /* \"--CODEGEN--\":5:7   */\n            tag_61:\n                /* \"Topic.sol\":741:760  uint public endTime */\n              pop\n              tag_62\n              tag_63\n              jump\t// in\n            tag_62:\n              mload(0x40)\n              dup1\n              dup3\n              dup2\n              mstore\n              0x20\n              add\n              swap2\n              pop\n              pop\n              mload(0x40)\n              dup1\n              swap2\n              sub\n              swap1\n              return\n                /* \"Topic.sol\":847:894  mapping(address => bool) public createdArgument */\n            tag_10:\n              callvalue\n                /* \"--CODEGEN--\":8:17   */\n              dup1\n                /* \"--CODEGEN--\":5:7   */\n              iszero\n              tag_64\n              jumpi\n                /* \"--CODEGEN--\":30:31   */\n              0x00\n                /* \"--CODEGEN--\":27:28   */\n              dup1\n                /* \"--CODEGEN--\":20:32   */\n              revert\n                /* \"--CODEGEN--\":5:7   */\n            tag_64:\n                /* \"Topic.sol\":847:894  mapping(address => bool) public createdArgument */\n              pop\n              tag_65\n              0x04\n              dup1\n              calldatasize\n              sub\n                /* \"--CODEGEN--\":13:15   */\n              0x20\n                /* \"--CODEGEN--\":8:11   */\n              dup2\n                /* \"--CODEGEN--\":5:16   */\n              lt\n                /* \"--CODEGEN--\":2:4   */\n              iszero\n              tag_66\n              jumpi\n                /* \"--CODEGEN--\":29:30   */\n              0x00\n                /* \"--CODEGEN--\":26:27   */\n              dup1\n                /* \"--CODEGEN--\":19:31   */\n              revert\n                /* \"--CODEGEN--\":2:4   */\n            tag_66:\n                /* \"Topic.sol\":847:894  mapping(address => bool) public createdArgument */\n              dup2\n              add\n              swap1\n              dup1\n              dup1\n              calldataload\n              0xffffffffffffffffffffffffffffffffffffffff\n              and\n              swap1\n              0x20\n              add\n              swap1\n              swap3\n              swap2\n              swap1\n              pop\n              pop\n              pop\n              tag_67\n              jump\t// in\n            tag_65:\n              mload(0x40)\n              dup1\n              dup3\n              iszero\n              iszero\n              iszero\n              iszero\n              dup2\n              mstore\n              0x20\n              add\n              swap2\n              pop\n              pop\n              mload(0x40)\n              dup1\n              swap2\n              sub\n              swap1\n              return\n                /* \"Topic.sol\":5341:5947  function claim() public {\r... */\n            tag_11:\n              callvalue\n                /* \"--CODEGEN--\":8:17   */\n              dup1\n                /* \"--CODEGEN--\":5:7   */\n              iszero\n              tag_68\n              jumpi\n                /* \"--CODEGEN--\":30:31   */\n              0x00\n                /* \"--CODEGEN--\":27:28   */\n              dup1\n                /* \"--CODEGEN--\":20:32   */\n              revert\n                /* \"--CODEGEN--\":5:7   */\n            tag_68:\n                /* \"Topic.sol\":5341:5947  function claim() public {\r... */\n              pop\n              tag_69\n              tag_70\n              jump\t// in\n            tag_69:\n              stop\n                /* \"Topic.sol\":3165:3257  function getLieCount() public view returns (uint) {\r... */\n            tag_12:\n              callvalue\n                /* \"--CODEGEN--\":8:17   */\n              dup1\n                /* \"--CODEGEN--\":5:7   */\n              iszero\n              tag_71\n              jumpi\n                /* \"--CODEGEN--\":30:31   */\n              0x00\n                /* \"--CODEGEN--\":27:28   */\n              dup1\n                /* \"--CODEGEN--\":20:32   */\n              revert\n                /* \"--CODEGEN--\":5:7   */\n            tag_71:\n                /* \"Topic.sol\":3165:3257  function getLieCount() public view returns (uint) {\r... */\n              pop\n              tag_72\n              tag_73\n              jump\t// in\n            tag_72:\n              mload(0x40)\n              dup1\n              dup3\n              dup2\n              mstore\n              0x20\n              add\n              swap2\n              pop\n              pop\n              mload(0x40)\n              dup1\n              swap2\n              sub\n              swap1\n              return\n                /* \"Topic.sol\":621:642  string public content */\n            tag_13:\n              callvalue\n                /* \"--CODEGEN--\":8:17   */\n              dup1\n                /* \"--CODEGEN--\":5:7   */\n              iszero\n              tag_74\n              jumpi\n                /* \"--CODEGEN--\":30:31   */\n              0x00\n                /* \"--CODEGEN--\":27:28   */\n              dup1\n                /* \"--CODEGEN--\":20:32   */\n              revert\n                /* \"--CODEGEN--\":5:7   */\n            tag_74:\n                /* \"Topic.sol\":621:642  string public content */\n              pop\n              tag_75\n              tag_76\n              jump\t// in\n            tag_75:\n              mload(0x40)\n              dup1\n              dup1\n              0x20\n              add\n              dup3\n              dup2\n              sub\n              dup3\n              mstore\n              dup4\n              dup2\n              dup2\n              mload\n              dup2\n              mstore\n              0x20\n              add\n              swap2\n              pop\n              dup1\n              mload\n              swap1\n              0x20\n              add\n              swap1\n              dup1\n              dup4\n              dup4\n                /* \"--CODEGEN--\":23:24   */\n              0x00\n                /* \"--CODEGEN--\":8:108   */\n            tag_77:\n                /* \"--CODEGEN--\":33:36   */\n              dup4\n                /* \"--CODEGEN--\":30:31   */\n              dup2\n                /* \"--CODEGEN--\":27:37   */\n              lt\n                /* \"--CODEGEN--\":8:108   */\n              iszero\n              tag_79\n              jumpi\n                /* \"--CODEGEN--\":99:100   */\n              dup1\n                /* \"--CODEGEN--\":94:97   */\n              dup3\n                /* \"--CODEGEN--\":90:101   */\n              add\n                /* \"--CODEGEN--\":84:102   */\n              mload\n                /* \"--CODEGEN--\":80:81   */\n              dup2\n                /* \"--CODEGEN--\":75:78   */\n              dup5\n                /* \"--CODEGEN--\":71:82   */\n              add\n                /* \"--CODEGEN--\":64:103   */\n              mstore\n                /* \"--CODEGEN--\":52:54   */\n              0x20\n                /* \"--CODEGEN--\":49:50   */\n              dup2\n                /* \"--CODEGEN--\":45:55   */\n              add\n                /* \"--CODEGEN--\":40:55   */\n              swap1\n              pop\n                /* \"--CODEGEN--\":8:108   */\n              jump(tag_77)\n            tag_79:\n                /* \"--CODEGEN--\":12:26   */\n              pop\n                /* \"Topic.sol\":621:642  string public content */\n              pop\n              pop\n              pop\n              swap1\n              pop\n              swap1\n              dup2\n              add\n              swap1\n              0x1f\n              and\n              dup1\n              iszero\n              tag_80\n              jumpi\n              dup1\n              dup3\n              sub\n              dup1\n              mload\n              0x01\n              dup4\n              0x20\n              sub\n              0x0100\n              exp\n              sub\n              not\n              and\n              dup2\n              mstore\n              0x20\n              add\n              swap2\n              pop\n            tag_80:\n              pop\n              swap3\n              pop\n              pop\n              pop\n              mload(0x40)\n              dup1\n              swap2\n              sub\n              swap1\n              return\n                /* \"Topic.sol\":5955:6288  function creatorClaim() public _creatorOnly {\r... */\n            tag_14:\n              callvalue\n                /* \"--CODEGEN--\":8:17   */\n              dup1\n                /* \"--CODEGEN--\":5:7   */\n              iszero\n              tag_81\n              jumpi\n                /* \"--CODEGEN--\":30:31   */\n              0x00\n                /* \"--CODEGEN--\":27:28   */\n              dup1\n                /* \"--CODEGEN--\":20:32   */\n              revert\n                /* \"--CODEGEN--\":5:7   */\n            tag_81:\n                /* \"Topic.sol\":5955:6288  function creatorClaim() public _creatorOnly {\r... */\n              pop\n              tag_82\n              tag_83\n              jump\t// in\n            tag_82:\n              stop\n                /* \"Topic.sol\":803:840  mapping(address => uint) public voted */\n            tag_15:\n              callvalue\n                /* \"--CODEGEN--\":8:17   */\n              dup1\n                /* \"--CODEGEN--\":5:7   */\n              iszero\n              tag_84\n              jumpi\n                /* \"--CODEGEN--\":30:31   */\n              0x00\n                /* \"--CODEGEN--\":27:28   */\n              dup1\n                /* \"--CODEGEN--\":20:32   */\n              revert\n                /* \"--CODEGEN--\":5:7   */\n            tag_84:\n                /* \"Topic.sol\":803:840  mapping(address => uint) public voted */\n              pop\n              tag_85\n              0x04\n              dup1\n              calldatasize\n              sub\n                /* \"--CODEGEN--\":13:15   */\n              0x20\n                /* \"--CODEGEN--\":8:11   */\n              dup2\n                /* \"--CODEGEN--\":5:16   */\n              lt\n                /* \"--CODEGEN--\":2:4   */\n              iszero\n              tag_86\n              jumpi\n                /* \"--CODEGEN--\":29:30   */\n              0x00\n                /* \"--CODEGEN--\":26:27   */\n              dup1\n                /* \"--CODEGEN--\":19:31   */\n              revert\n                /* \"--CODEGEN--\":2:4   */\n            tag_86:\n                /* \"Topic.sol\":803:840  mapping(address => uint) public voted */\n              dup2\n              add\n              swap1\n              dup1\n              dup1\n              calldataload\n              0xffffffffffffffffffffffffffffffffffffffff\n              and\n              swap1\n              0x20\n              add\n              swap1\n              swap3\n              swap2\n              swap1\n              pop\n              pop\n              pop\n              tag_87\n              jump\t// in\n            tag_85:\n              mload(0x40)\n              dup1\n              dup3\n              dup2\n              mstore\n              0x20\n              add\n              swap2\n              pop\n              pop\n              mload(0x40)\n              dup1\n              swap2\n              sub\n              swap1\n              return\n                /* \"Topic.sol\":3885:4212  function modifyArgument(uint argumentIndex, string memory newContent) public _mustBeWithinTimeFrame _publicOnly {\r... */\n            tag_16:\n              callvalue\n                /* \"--CODEGEN--\":8:17   */\n              dup1\n                /* \"--CODEGEN--\":5:7   */\n              iszero\n              tag_88\n              jumpi\n                /* \"--CODEGEN--\":30:31   */\n              0x00\n                /* \"--CODEGEN--\":27:28   */\n              dup1\n                /* \"--CODEGEN--\":20:32   */\n              revert\n                /* \"--CODEGEN--\":5:7   */\n            tag_88:\n                /* \"Topic.sol\":3885:4212  function modifyArgument(uint argumentIndex, string memory newContent) public _mustBeWithinTimeFrame _publicOnly {\r... */\n              pop\n              tag_89\n              0x04\n              dup1\n              calldatasize\n              sub\n                /* \"--CODEGEN--\":13:15   */\n              0x40\n                /* \"--CODEGEN--\":8:11   */\n              dup2\n                /* \"--CODEGEN--\":5:16   */\n              lt\n                /* \"--CODEGEN--\":2:4   */\n              iszero\n              tag_90\n              jumpi\n                /* \"--CODEGEN--\":29:30   */\n              0x00\n                /* \"--CODEGEN--\":26:27   */\n              dup1\n                /* \"--CODEGEN--\":19:31   */\n              revert\n                /* \"--CODEGEN--\":2:4   */\n            tag_90:\n                /* \"Topic.sol\":3885:4212  function modifyArgument(uint argumentIndex, string memory newContent) public _mustBeWithinTimeFrame _publicOnly {\r... */\n              dup2\n              add\n              swap1\n              dup1\n              dup1\n              calldataload\n              swap1\n              0x20\n              add\n              swap1\n              swap3\n              swap2\n              swap1\n              dup1\n              calldataload\n              swap1\n              0x20\n              add\n              swap1\n                /* \"--CODEGEN--\":21:32   */\n              0x0100000000\n                /* \"--CODEGEN--\":8:19   */\n              dup2\n                /* \"--CODEGEN--\":5:33   */\n              gt\n                /* \"--CODEGEN--\":2:4   */\n              iszero\n              tag_91\n              jumpi\n                /* \"--CODEGEN--\":46:47   */\n              0x00\n                /* \"--CODEGEN--\":43:44   */\n              dup1\n                /* \"--CODEGEN--\":36:48   */\n              revert\n                /* \"--CODEGEN--\":2:4   */\n            tag_91:\n                /* \"Topic.sol\":3885:4212  function modifyArgument(uint argumentIndex, string memory newContent) public _mustBeWithinTimeFrame _publicOnly {\r... */\n              dup3\n              add\n                /* \"--CODEGEN--\":35:44   */\n              dup4\n                /* \"--CODEGEN--\":28:32   */\n              0x20\n                /* \"--CODEGEN--\":12:26   */\n              dup3\n                /* \"--CODEGEN--\":8:33   */\n              add\n                /* \"--CODEGEN--\":5:45   */\n              gt\n                /* \"--CODEGEN--\":2:4   */\n              iszero\n              tag_92\n              jumpi\n                /* \"--CODEGEN--\":58:59   */\n              0x00\n                /* \"--CODEGEN--\":55:56   */\n              dup1\n                /* \"--CODEGEN--\":48:60   */\n              revert\n                /* \"--CODEGEN--\":2:4   */\n            tag_92:\n                /* \"Topic.sol\":3885:4212  function modifyArgument(uint argumentIndex, string memory newContent) public _mustBeWithinTimeFrame _publicOnly {\r... */\n              dup1\n              calldataload\n              swap1\n              0x20\n              add\n              swap2\n                /* \"--CODEGEN--\":100:109   */\n              dup5\n                /* \"--CODEGEN--\":95:96   */\n              0x01\n                /* \"--CODEGEN--\":81:93   */\n              dup4\n                /* \"--CODEGEN--\":77:97   */\n              mul\n                /* \"--CODEGEN--\":67:75   */\n              dup5\n                /* \"--CODEGEN--\":63:98   */\n              add\n                /* \"--CODEGEN--\":60:110   */\n              gt\n                /* \"--CODEGEN--\":39:50   */\n              0x0100000000\n                /* \"--CODEGEN--\":25:37   */\n              dup4\n                /* \"--CODEGEN--\":22:51   */\n              gt\n                /* \"--CODEGEN--\":11:118   */\n              or\n                /* \"--CODEGEN--\":8:10   */\n              iszero\n              tag_93\n              jumpi\n                /* \"--CODEGEN--\":131:132   */\n              0x00\n                /* \"--CODEGEN--\":128:129   */\n              dup1\n                /* \"--CODEGEN--\":121:133   */\n              revert\n                /* \"--CODEGEN--\":8:10   */\n            tag_93:\n                /* \"Topic.sol\":3885:4212  function modifyArgument(uint argumentIndex, string memory newContent) public _mustBeWithinTimeFrame _publicOnly {\r... */\n              swap2\n              swap1\n              dup1\n              dup1\n              0x1f\n              add\n              0x20\n              dup1\n              swap2\n              div\n              mul\n              0x20\n              add\n              mload(0x40)\n              swap1\n              dup2\n              add\n              0x40\n              mstore\n              dup1\n              swap4\n              swap3\n              swap2\n              swap1\n              dup2\n              dup2\n              mstore\n              0x20\n              add\n              dup4\n              dup4\n                /* \"--CODEGEN--\":30:33   */\n              dup1\n                /* \"--CODEGEN--\":22:28   */\n              dup3\n                /* \"--CODEGEN--\":14:20   */\n              dup5\n                /* \"--CODEGEN--\":1:34   */\n              calldatacopy\n                /* \"--CODEGEN--\":99:100   */\n              0x00\n                /* \"--CODEGEN--\":93:96   */\n              dup2\n                /* \"--CODEGEN--\":85:91   */\n              dup5\n                /* \"--CODEGEN--\":81:97   */\n              add\n                /* \"--CODEGEN--\":74:101   */\n              mstore\n                /* \"--CODEGEN--\":137:141   */\n              0x1f\n                /* \"--CODEGEN--\":133:142   */\n              not\n                /* \"--CODEGEN--\":126:130   */\n              0x1f\n                /* \"--CODEGEN--\":121:124   */\n              dup3\n                /* \"--CODEGEN--\":117:131   */\n              add\n                /* \"--CODEGEN--\":113:143   */\n              and\n                /* \"--CODEGEN--\":106:143   */\n              swap1\n              pop\n                /* \"--CODEGEN--\":169:172   */\n              dup1\n                /* \"--CODEGEN--\":161:167   */\n              dup4\n                /* \"--CODEGEN--\":157:173   */\n              add\n                /* \"--CODEGEN--\":147:173   */\n              swap3\n              pop\n                /* \"Topic.sol\":3885:4212  function modifyArgument(uint argumentIndex, string memory newContent) public _mustBeWithinTimeFrame _publicOnly {\r... */\n              pop\n              pop\n              pop\n              pop\n              pop\n              pop\n              swap2\n              swap3\n              swap2\n              swap3\n              swap1\n              pop\n              pop\n              pop\n              tag_94\n              jump\t// in\n            tag_89:\n              stop\n                /* \"Topic.sol\":1077:1105  uint public payPerIndividual */\n            tag_17:\n              callvalue\n                /* \"--CODEGEN--\":8:17   */\n              dup1\n                /* \"--CODEGEN--\":5:7   */\n              iszero\n              tag_95\n              jumpi\n                /* \"--CODEGEN--\":30:31   */\n              0x00\n                /* \"--CODEGEN--\":27:28   */\n              dup1\n                /* \"--CODEGEN--\":20:32   */\n              revert\n                /* \"--CODEGEN--\":5:7   */\n            tag_95:\n                /* \"Topic.sol\":1077:1105  uint public payPerIndividual */\n              pop\n              tag_96\n              tag_97\n              jump\t// in\n            tag_96:\n              mload(0x40)\n              dup1\n              dup3\n              dup2\n              mstore\n              0x20\n              add\n              swap2\n              pop\n              pop\n              mload(0x40)\n              dup1\n              swap2\n              sub\n              swap1\n              return\n                /* \"Topic.sol\":1050:1070  uint public majority */\n            tag_18:\n              callvalue\n                /* \"--CODEGEN--\":8:17   */\n              dup1\n                /* \"--CODEGEN--\":5:7   */\n              iszero\n              tag_98\n              jumpi\n                /* \"--CODEGEN--\":30:31   */\n              0x00\n                /* \"--CODEGEN--\":27:28   */\n              dup1\n                /* \"--CODEGEN--\":20:32   */\n              revert\n                /* \"--CODEGEN--\":5:7   */\n            tag_98:\n                /* \"Topic.sol\":1050:1070  uint public majority */\n              pop\n              tag_99\n              tag_100\n              jump\t// in\n            tag_99:\n              mload(0x40)\n              dup1\n              dup3\n              dup2\n              mstore\n              0x20\n              add\n              swap2\n              pop\n              pop\n              mload(0x40)\n              dup1\n              swap2\n              sub\n              swap1\n              return\n                /* \"Topic.sol\":4220:4317  function getArgumentCount() public view returns (uint) {\r... */\n            tag_19:\n              callvalue\n                /* \"--CODEGEN--\":8:17   */\n              dup1\n                /* \"--CODEGEN--\":5:7   */\n              iszero\n              tag_101\n              jumpi\n                /* \"--CODEGEN--\":30:31   */\n              0x00\n                /* \"--CODEGEN--\":27:28   */\n              dup1\n                /* \"--CODEGEN--\":20:32   */\n              revert\n                /* \"--CODEGEN--\":5:7   */\n            tag_101:\n                /* \"Topic.sol\":4220:4317  function getArgumentCount() public view returns (uint) {\r... */\n              pop\n              tag_102\n              tag_103\n              jump\t// in\n            tag_102:\n              mload(0x40)\n              dup1\n              dup3\n              dup2\n              mstore\n              0x20\n              add\n              swap2\n              pop\n              pop\n              mload(0x40)\n              dup1\n              swap2\n              sub\n              swap1\n              return\n                /* \"Topic.sol\":678:698  bool public isPublic */\n            tag_20:\n              callvalue\n                /* \"--CODEGEN--\":8:17   */\n              dup1\n                /* \"--CODEGEN--\":5:7   */\n              iszero\n              tag_104\n              jumpi\n                /* \"--CODEGEN--\":30:31   */\n              0x00\n                /* \"--CODEGEN--\":27:28   */\n              dup1\n                /* \"--CODEGEN--\":20:32   */\n              revert\n                /* \"--CODEGEN--\":5:7   */\n            tag_104:\n                /* \"Topic.sol\":678:698  bool public isPublic */\n              pop\n              tag_105\n              tag_106\n              jump\t// in\n            tag_105:\n              mload(0x40)\n              dup1\n              dup3\n              iszero\n              iszero\n              iszero\n              iszero\n              dup2\n              mstore\n              0x20\n              add\n              swap2\n              pop\n              pop\n              mload(0x40)\n              dup1\n              swap2\n              sub\n              swap1\n              return\n                /* \"Topic.sol\":901:937  address payable[] public truthVoters */\n            tag_21:\n              callvalue\n                /* \"--CODEGEN--\":8:17   */\n              dup1\n                /* \"--CODEGEN--\":5:7   */\n              iszero\n              tag_107\n              jumpi\n                /* \"--CODEGEN--\":30:31   */\n              0x00\n                /* \"--CODEGEN--\":27:28   */\n              dup1\n                /* \"--CODEGEN--\":20:32   */\n              revert\n                /* \"--CODEGEN--\":5:7   */\n            tag_107:\n                /* \"Topic.sol\":901:937  address payable[] public truthVoters */\n              pop\n              tag_108\n              0x04\n              dup1\n              calldatasize\n              sub\n                /* \"--CODEGEN--\":13:15   */\n              0x20\n                /* \"--CODEGEN--\":8:11   */\n              dup2\n                /* \"--CODEGEN--\":5:16   */\n              lt\n                /* \"--CODEGEN--\":2:4   */\n              iszero\n              tag_109\n              jumpi\n                /* \"--CODEGEN--\":29:30   */\n              0x00\n                /* \"--CODEGEN--\":26:27   */\n              dup1\n                /* \"--CODEGEN--\":19:31   */\n              revert\n                /* \"--CODEGEN--\":2:4   */\n            tag_109:\n                /* \"Topic.sol\":901:937  address payable[] public truthVoters */\n              dup2\n              add\n              swap1\n              dup1\n              dup1\n              calldataload\n              swap1\n              0x20\n              add\n              swap1\n              swap3\n              swap2\n              swap1\n              pop\n              pop\n              pop\n              tag_110\n              jump\t// in\n            tag_108:\n              mload(0x40)\n              dup1\n              dup3\n              0xffffffffffffffffffffffffffffffffffffffff\n              and\n              0xffffffffffffffffffffffffffffffffffffffff\n              and\n              dup2\n              mstore\n              0x20\n              add\n              swap2\n              pop\n              pop\n              mload(0x40)\n              dup1\n              swap2\n              sub\n              swap1\n              return\n                /* \"Topic.sol\":4488:5333  function calculateMajority() public {\r... */\n            tag_22:\n              callvalue\n                /* \"--CODEGEN--\":8:17   */\n              dup1\n                /* \"--CODEGEN--\":5:7   */\n              iszero\n              tag_111\n              jumpi\n                /* \"--CODEGEN--\":30:31   */\n              0x00\n                /* \"--CODEGEN--\":27:28   */\n              dup1\n                /* \"--CODEGEN--\":20:32   */\n              revert\n                /* \"--CODEGEN--\":5:7   */\n            tag_111:\n                /* \"Topic.sol\":4488:5333  function calculateMajority() public {\r... */\n              pop\n              tag_112\n              tag_113\n              jump\t// in\n            tag_112:\n              stop\n                /* \"Topic.sol\":1020:1043  bool public isCompleted */\n            tag_23:\n              callvalue\n                /* \"--CODEGEN--\":8:17   */\n              dup1\n                /* \"--CODEGEN--\":5:7   */\n              iszero\n              tag_114\n              jumpi\n                /* \"--CODEGEN--\":30:31   */\n              0x00\n                /* \"--CODEGEN--\":27:28   */\n              dup1\n                /* \"--CODEGEN--\":20:32   */\n              revert\n                /* \"--CODEGEN--\":5:7   */\n            tag_114:\n                /* \"Topic.sol\":1020:1043  bool public isCompleted */\n              pop\n              tag_115\n              tag_116\n              jump\t// in\n            tag_115:\n              mload(0x40)\n              dup1\n              dup3\n              iszero\n              iszero\n              iszero\n              iszero\n              dup2\n              mstore\n              0x20\n              add\n              swap2\n              pop\n              pop\n              mload(0x40)\n              dup1\n              swap2\n              sub\n              swap1\n              return\n                /* \"Topic.sol\":2223:2322  function makePublic() public _mustBeWithinTimeFrame _creatorOnly {\r... */\n            tag_24:\n              callvalue\n                /* \"--CODEGEN--\":8:17   */\n              dup1\n                /* \"--CODEGEN--\":5:7   */\n              iszero\n              tag_117\n              jumpi\n                /* \"--CODEGEN--\":30:31   */\n              0x00\n                /* \"--CODEGEN--\":27:28   */\n              dup1\n                /* \"--CODEGEN--\":20:32   */\n              revert\n                /* \"--CODEGEN--\":5:7   */\n            tag_117:\n                /* \"Topic.sol\":2223:2322  function makePublic() public _mustBeWithinTimeFrame _creatorOnly {\r... */\n              pop\n              tag_118\n              tag_119\n              jump\t// in\n            tag_118:\n              stop\n                /* \"Topic.sol\":2384:3053  function vote(uint argumentIndex) public payable _mustBeWithinTimeFrame _publicOnly {\r... */\n            tag_32:\n                /* \"Topic.sol\":1575:1582  endTime */\n              sload(0x03)\n                /* \"Topic.sol\":1557:1572  block.timestamp */\n              timestamp\n                /* \"Topic.sol\":1557:1582  block.timestamp < endTime */\n              lt\n                /* \"Topic.sol\":1549:1630  require(block.timestamp < endTime, 'The period for the Topic has already ended.') */\n              tag_121\n              jumpi\n              mload(0x40)\n              0x08c379a000000000000000000000000000000000000000000000000000000000\n              dup2\n              mstore\n              0x04\n              add\n              dup1\n              dup1\n              0x20\n              add\n              dup3\n              dup2\n              sub\n              dup3\n              mstore\n              0x2b\n              dup2\n              mstore\n              0x20\n              add\n              dup1\n              data_9f7f122b70f117f8950311c325d9279ba88d6a0d2b593ed4f11b7663b9f48d07\n              0x2b\n              swap2\n              codecopy\n              0x40\n              add\n              swap2\n              pop\n              pop\n              mload(0x40)\n              dup1\n              swap2\n              sub\n              swap1\n              revert\n            tag_121:\n                /* \"Topic.sol\":1323:1327  true */\n              0x01\n                /* \"Topic.sol\":1311:1327  isPublic == true */\n              iszero\n              iszero\n                /* \"Topic.sol\":1311:1319  isPublic */\n              0x01\n              0x14\n              swap1\n              sload\n              swap1\n              0x0100\n              exp\n              swap1\n              div\n              0xff\n              and\n                /* \"Topic.sol\":1311:1327  isPublic == true */\n              iszero\n              iszero\n              eq\n                /* \"Topic.sol\":1303:1386  require(isPublic == true, 'The Topic has not been made public by the creator yet.') */\n              tag_123\n              jumpi\n              mload(0x40)\n              0x08c379a000000000000000000000000000000000000000000000000000000000\n              dup2\n              mstore\n              0x04\n              add\n              dup1\n              dup1\n              0x20\n              add\n              dup3\n              dup2\n              sub\n              dup3\n              mstore\n              0x36\n              dup2\n              mstore\n              0x20\n              add\n              dup1\n              data_0dcd6f99239ff481bb9978433adc808a27fd8c3813ed2f9969e4eb5b41c999c8\n              0x36\n              swap2\n              codecopy\n              0x40\n              add\n              swap2\n              pop\n              pop\n              mload(0x40)\n              dup1\n              swap2\n              sub\n              swap1\n              revert\n            tag_123:\n                /* \"Topic.sol\":2504:2505  0 */\n              0x00\n                /* \"Topic.sol\":2487:2500  argumentIndex */\n              dup2\n                /* \"Topic.sol\":2487:2505  argumentIndex != 0 */\n              eq\n              iszero\n                /* \"Topic.sol\":2479:2569  require(argumentIndex != 0, 'You cannot vote for the argument generated by the contract.') */\n              tag_125\n              jumpi\n              mload(0x40)\n              0x08c379a000000000000000000000000000000000000000000000000000000000\n              dup2\n              mstore\n              0x04\n              add\n              dup1\n              dup1\n              0x20\n              add\n              dup3\n              dup2\n              sub\n              dup3\n              mstore\n              0x3b\n              dup2\n              mstore\n              0x20\n              add\n              dup1\n              data_a51d6c7e63ccd193933dbe11cb306fe5ec831a64f09f21fc7409bad4b2e4d83d\n              0x3b\n              swap2\n              codecopy\n              0x40\n              add\n              swap2\n              pop\n              pop\n              mload(0x40)\n              dup1\n              swap2\n              sub\n              swap1\n              revert\n            tag_125:\n                /* \"Topic.sol\":2609:2610  0 */\n              0x00\n                /* \"Topic.sol\":2588:2593  voted */\n              0x05\n                /* \"Topic.sol\":2588:2605  voted[msg.sender] */\n              0x00\n                /* \"Topic.sol\":2594:2604  msg.sender */\n              caller\n                /* \"Topic.sol\":2588:2605  voted[msg.sender] */\n              0xffffffffffffffffffffffffffffffffffffffff\n              and\n              0xffffffffffffffffffffffffffffffffffffffff\n              and\n              dup2\n              mstore\n              0x20\n              add\n              swap1\n              dup2\n              mstore\n              0x20\n              add\n              0x00\n              keccak256\n              sload\n                /* \"Topic.sol\":2588:2610  voted[msg.sender] == 0 */\n              eq\n                /* \"Topic.sol\":2580:2668  require(voted[msg.sender] == 0, 'You have already voted. You may not change your vote.') */\n              tag_126\n              jumpi\n              mload(0x40)\n              0x08c379a000000000000000000000000000000000000000000000000000000000\n              dup2\n              mstore\n              0x04\n              add\n              dup1\n              dup1\n              0x20\n              add\n              dup3\n              dup2\n              sub\n              dup3\n              mstore\n              0x35\n              dup2\n              mstore\n              0x20\n              add\n              dup1\n              data_e7eff9e8bfd97a1462a69b9b489e013c0dc4931276c8cdd67607888c761a1d3c\n              0x35\n              swap2\n              codecopy\n              0x40\n              add\n              swap2\n              pop\n              pop\n              mload(0x40)\n              dup1\n              swap2\n              sub\n              swap1\n              revert\n            tag_126:\n                /* \"Topic.sol\":2700:2717  minimumInvestment */\n              sload(0x02)\n                /* \"Topic.sol\":2687:2696  msg.value */\n              callvalue\n                /* \"Topic.sol\":2687:2717  msg.value >= minimumInvestment */\n              lt\n              iszero\n                /* \"Topic.sol\":2679:2791  require(msg.value >= minimumInvestment, 'You must invest at least the minimum amountas decided by the creator.') */\n              tag_127\n              jumpi\n              mload(0x40)\n              0x08c379a000000000000000000000000000000000000000000000000000000000\n              dup2\n              mstore\n              0x04\n              add\n              dup1\n              dup1\n              0x20\n              add\n              dup3\n              dup2\n              sub\n              dup3\n              mstore\n              0x45\n              dup2\n              mstore\n              0x20\n              add\n              dup1\n              data_e4fa0cb8985058f63b9cb51c2253c421abddee7ee3e17fd4cc1399b190f1e5b2\n              0x45\n              swap2\n              codecopy\n              0x60\n              add\n              swap2\n              pop\n              pop\n              mload(0x40)\n              dup1\n              swap2\n              sub\n              swap1\n              revert\n            tag_127:\n                /* \"Topic.sol\":2824:2837  argumentIndex */\n              dup1\n                /* \"Topic.sol\":2804:2809  voted */\n              0x05\n                /* \"Topic.sol\":2804:2821  voted[msg.sender] */\n              0x00\n                /* \"Topic.sol\":2810:2820  msg.sender */\n              caller\n                /* \"Topic.sol\":2804:2821  voted[msg.sender] */\n              0xffffffffffffffffffffffffffffffffffffffff\n              and\n              0xffffffffffffffffffffffffffffffffffffffff\n              and\n              dup2\n              mstore\n              0x20\n              add\n              swap1\n              dup2\n              mstore\n              0x20\n              add\n              0x00\n              keccak256\n                /* \"Topic.sol\":2804:2837  voted[msg.sender] = argumentIndex */\n              dup2\n              swap1\n              sstore\n              pop\n                /* \"Topic.sol\":2848:2857  arguments */\n              0x04\n                /* \"Topic.sol\":2858:2871  argumentIndex */\n              dup2\n                /* \"Topic.sol\":2848:2872  arguments[argumentIndex] */\n              dup2\n              sload\n              dup2\n              lt\n              tag_128\n              jumpi\n              invalid\n            tag_128:\n              swap1\n              0x00\n              mstore\n              keccak256(0x00, 0x20)\n              swap1\n              0x03\n              mul\n              add\n                /* \"Topic.sol\":2848:2882  arguments[argumentIndex].voteCount */\n              0x02\n              add\n              0x00\n                /* \"Topic.sol\":2848:2884  arguments[argumentIndex].voteCount++ */\n              dup2\n              sload\n              dup1\n              swap3\n              swap2\n              swap1\n              0x01\n              add\n              swap2\n              swap1\n              pop\n              sstore\n              pop\n                /* \"Topic.sol\":2899:2908  arguments */\n              0x04\n                /* \"Topic.sol\":2909:2922  argumentIndex */\n              dup2\n                /* \"Topic.sol\":2899:2923  arguments[argumentIndex] */\n              dup2\n              sload\n              dup2\n              lt\n              tag_130\n              jumpi\n              invalid\n            tag_130:\n              swap1\n              0x00\n              mstore\n              keccak256(0x00, 0x20)\n              swap1\n              0x03\n              mul\n              add\n                /* \"Topic.sol\":2899:2930  arguments[argumentIndex].isTrue */\n              0x01\n              add\n              0x00\n              swap1\n              sload\n              swap1\n              0x0100\n              exp\n              swap1\n              div\n              0xff\n              and\n                /* \"Topic.sol\":2895:3046  if (arguments[argumentIndex].isTrue) {\r... */\n              iszero\n              tag_132\n              jumpi\n                /* \"Topic.sol\":2947:2958  truthVoters */\n              0x07\n                /* \"Topic.sol\":2964:2974  msg.sender */\n              caller\n                /* \"Topic.sol\":2947:2975  truthVoters.push(msg.sender) */\n              swap1\n              dup1\n                /* \"--CODEGEN--\":39:40   */\n              0x01\n                /* \"--CODEGEN--\":33:36   */\n              dup2\n                /* \"--CODEGEN--\":27:37   */\n              sload\n                /* \"--CODEGEN--\":23:41   */\n              add\n                /* \"--CODEGEN--\":57:67   */\n              dup1\n                /* \"--CODEGEN--\":52:55   */\n              dup3\n                /* \"--CODEGEN--\":45:68   */\n              sstore\n                /* \"--CODEGEN--\":79:89   */\n              dup1\n                /* \"--CODEGEN--\":72:89   */\n              swap2\n              pop\n                /* \"--CODEGEN--\":0:93   */\n              pop\n                /* \"Topic.sol\":2947:2975  truthVoters.push(msg.sender) */\n              swap1\n              0x01\n              dup3\n              sub\n              swap1\n              0x00\n              mstore\n              keccak256(0x00, 0x20)\n              add\n              0x00\n              swap1\n              swap2\n              swap3\n              swap1\n              swap2\n              swap1\n              swap2\n              0x0100\n              exp\n              dup2\n              sload\n              dup2\n              0xffffffffffffffffffffffffffffffffffffffff\n              mul\n              not\n              and\n              swap1\n              dup4\n              0xffffffffffffffffffffffffffffffffffffffff\n              and\n              mul\n              or\n              swap1\n              sstore\n              pop\n              pop\n                /* \"Topic.sol\":2895:3046  if (arguments[argumentIndex].isTrue) {\r... */\n              jump(tag_134)\n            tag_132:\n                /* \"Topic.sol\":3008:3017  lieVoters */\n              0x08\n                /* \"Topic.sol\":3023:3033  msg.sender */\n              caller\n                /* \"Topic.sol\":3008:3034  lieVoters.push(msg.sender) */\n              swap1\n              dup1\n                /* \"--CODEGEN--\":39:40   */\n              0x01\n                /* \"--CODEGEN--\":33:36   */\n              dup2\n                /* \"--CODEGEN--\":27:37   */\n              sload\n                /* \"--CODEGEN--\":23:41   */\n              add\n                /* \"--CODEGEN--\":57:67   */\n              dup1\n                /* \"--CODEGEN--\":52:55   */\n              dup3\n                /* \"--CODEGEN--\":45:68   */\n              sstore\n                /* \"--CODEGEN--\":79:89   */\n              dup1\n                /* \"--CODEGEN--\":72:89   */\n              swap2\n              pop\n                /* \"--CODEGEN--\":0:93   */\n              pop\n                /* \"Topic.sol\":3008:3034  lieVoters.push(msg.sender) */\n              swap1\n              0x01\n              dup3\n              sub\n              swap1\n              0x00\n              mstore\n              keccak256(0x00, 0x20)\n              add\n              0x00\n              swap1\n              swap2\n              swap3\n              swap1\n              swap2\n              swap1\n              swap2\n              0x0100\n              exp\n              dup2\n              sload\n              dup2\n              0xffffffffffffffffffffffffffffffffffffffff\n              mul\n              not\n              and\n              swap1\n              dup4\n              0xffffffffffffffffffffffffffffffffffffffff\n              and\n              mul\n              or\n              swap1\n              sstore\n              pop\n              pop\n                /* \"Topic.sol\":2895:3046  if (arguments[argumentIndex].isTrue) {\r... */\n            tag_134:\n                /* \"Topic.sol\":2384:3053  function vote(uint argumentIndex) public payable _mustBeWithinTimeFrame _publicOnly {\r... */\n              pop\n              jump\t// out\n                /* \"Topic.sol\":649:671  address public creator */\n            tag_35:\n              0x01\n              0x00\n              swap1\n              sload\n              swap1\n              0x0100\n              exp\n              swap1\n              div\n              0xffffffffffffffffffffffffffffffffffffffff\n              and\n              dup2\n              jump\t// out\n                /* \"Topic.sol\":3265:3877  function createArgument(string memory argumentContent, bool belief) public _mustBeWithinTimeFrame {\r... */\n            tag_42:\n                /* \"Topic.sol\":1575:1582  endTime */\n              sload(0x03)\n                /* \"Topic.sol\":1557:1572  block.timestamp */\n              timestamp\n                /* \"Topic.sol\":1557:1582  block.timestamp < endTime */\n              lt\n                /* \"Topic.sol\":1549:1630  require(block.timestamp < endTime, 'The period for the Topic has already ended.') */\n              tag_137\n              jumpi\n              mload(0x40)\n              0x08c379a000000000000000000000000000000000000000000000000000000000\n              dup2\n              mstore\n              0x04\n              add\n              dup1\n              dup1\n              0x20\n              add\n              dup3\n              dup2\n              sub\n              dup3\n              mstore\n              0x2b\n              dup2\n              mstore\n              0x20\n              add\n              dup1\n              data_9f7f122b70f117f8950311c325d9279ba88d6a0d2b593ed4f11b7663b9f48d07\n              0x2b\n              swap2\n              codecopy\n              0x40\n              add\n              swap2\n              pop\n              pop\n              mload(0x40)\n              dup1\n              swap2\n              sub\n              swap1\n              revert\n            tag_137:\n                /* \"Topic.sol\":3544:3549  false */\n              0x00\n                /* \"Topic.sol\":3513:3549  createdArgument[msg.sender] == false */\n              iszero\n              iszero\n                /* \"Topic.sol\":3513:3528  createdArgument */\n              0x06\n                /* \"Topic.sol\":3513:3540  createdArgument[msg.sender] */\n              0x00\n                /* \"Topic.sol\":3529:3539  msg.sender */\n              caller\n                /* \"Topic.sol\":3513:3540  createdArgument[msg.sender] */\n              0xffffffffffffffffffffffffffffffffffffffff\n              and\n              0xffffffffffffffffffffffffffffffffffffffff\n              and\n              dup2\n              mstore\n              0x20\n              add\n              swap1\n              dup2\n              mstore\n              0x20\n              add\n              0x00\n              keccak256\n              0x00\n              swap1\n              sload\n              swap1\n              0x0100\n              exp\n              swap1\n              div\n              0xff\n              and\n                /* \"Topic.sol\":3513:3549  createdArgument[msg.sender] == false */\n              iszero\n              iszero\n              eq\n                /* \"Topic.sol\":3505:3591  require(createdArgument[msg.sender] == false, 'You have already created an argument.') */\n              tag_139\n              jumpi\n              mload(0x40)\n              0x08c379a000000000000000000000000000000000000000000000000000000000\n              dup2\n              mstore\n              0x04\n              add\n              dup1\n              dup1\n              0x20\n              add\n              dup3\n              dup2\n              sub\n              dup3\n              mstore\n              0x25\n              dup2\n              mstore\n              0x20\n              add\n              dup1\n              data_8912f675a50e382e9fd7b592cf1cd9595235c43ce4309904b1bd35e2a18fc4ee\n              0x25\n              swap2\n              codecopy\n              0x40\n              add\n              swap2\n              pop\n              pop\n              mload(0x40)\n              dup1\n              swap2\n              sub\n              swap1\n              revert\n            tag_139:\n                /* \"Topic.sol\":3604:3631  Argument memory newArgument */\n              tag_140\n              tag_141\n              jump\t// in\n            tag_140:\n                /* \"Topic.sol\":3634:3784  Argument({\r... */\n              mload(0x40)\n              dup1\n              0x80\n              add\n              0x40\n              mstore\n              dup1\n                /* \"Topic.sol\":3667:3682  argumentContent */\n              dup5\n                /* \"Topic.sol\":3634:3784  Argument({\r... */\n              dup2\n              mstore\n              0x20\n              add\n                /* \"Topic.sol\":3705:3711  belief */\n              dup4\n                /* \"Topic.sol\":3634:3784  Argument({\r... */\n              iszero\n              iszero\n              dup2\n              mstore\n              0x20\n              add\n                /* \"Topic.sol\":3735:3745  msg.sender */\n              caller\n                /* \"Topic.sol\":3634:3784  Argument({\r... */\n              0xffffffffffffffffffffffffffffffffffffffff\n              and\n              dup2\n              mstore\n              0x20\n              add\n                /* \"Topic.sol\":3771:3772  0 */\n              0x00\n                /* \"Topic.sol\":3634:3784  Argument({\r... */\n              dup2\n              mstore\n              pop\n                /* \"Topic.sol\":3604:3784  Argument memory newArgument = Argument({\r... */\n              swap1\n              pop\n                /* \"Topic.sol\":3795:3804  arguments */\n              0x04\n                /* \"Topic.sol\":3810:3821  newArgument */\n              dup2\n                /* \"Topic.sol\":3795:3822  arguments.push(newArgument) */\n              swap1\n              dup1\n                /* \"--CODEGEN--\":39:40   */\n              0x01\n                /* \"--CODEGEN--\":33:36   */\n              dup2\n                /* \"--CODEGEN--\":27:37   */\n              sload\n                /* \"--CODEGEN--\":23:41   */\n              add\n                /* \"--CODEGEN--\":57:67   */\n              dup1\n                /* \"--CODEGEN--\":52:55   */\n              dup3\n                /* \"--CODEGEN--\":45:68   */\n              sstore\n                /* \"--CODEGEN--\":79:89   */\n              dup1\n                /* \"--CODEGEN--\":72:89   */\n              swap2\n              pop\n                /* \"--CODEGEN--\":0:93   */\n              pop\n                /* \"Topic.sol\":3795:3822  arguments.push(newArgument) */\n              swap1\n              0x01\n              dup3\n              sub\n              swap1\n              0x00\n              mstore\n              keccak256(0x00, 0x20)\n              swap1\n              0x03\n              mul\n              add\n              0x00\n              swap1\n              swap2\n              swap3\n              swap1\n              swap2\n              swap1\n              swap2\n              pop\n              0x00\n              dup3\n              add\n              mload\n              dup2\n              0x00\n              add\n              swap1\n              dup1\n              mload\n              swap1\n              0x20\n              add\n              swap1\n              tag_143\n              swap3\n              swap2\n              swap1\n              tag_144\n              jump\t// in\n            tag_143:\n              pop\n              0x20\n              dup3\n              add\n              mload\n              dup2\n              0x01\n              add\n              exp(0x0100, 0x00)\n              dup2\n              sload\n              dup2\n              0xff\n              mul\n              not\n              and\n              swap1\n              dup4\n              iszero\n              iszero\n              mul\n              or\n              swap1\n              sstore\n              pop\n              0x40\n              dup3\n              add\n              mload\n              dup2\n              0x01\n              add\n              exp(0x0100, 0x01)\n              dup2\n              sload\n              dup2\n              0xffffffffffffffffffffffffffffffffffffffff\n              mul\n              not\n              and\n              swap1\n              dup4\n              0xffffffffffffffffffffffffffffffffffffffff\n              and\n              mul\n              or\n              swap1\n              sstore\n              pop\n              0x60\n              dup3\n              add\n              mload\n              dup2\n              0x02\n              add\n              sstore\n              pop\n              pop\n              pop\n                /* \"Topic.sol\":3865:3869  true */\n              0x01\n                /* \"Topic.sol\":3835:3850  createdArgument */\n              0x06\n                /* \"Topic.sol\":3835:3862  createdArgument[msg.sender] */\n              0x00\n                /* \"Topic.sol\":3851:3861  msg.sender */\n              caller\n                /* \"Topic.sol\":3835:3862  createdArgument[msg.sender] */\n              0xffffffffffffffffffffffffffffffffffffffff\n              and\n              0xffffffffffffffffffffffffffffffffffffffff\n              and\n              dup2\n              mstore\n              0x20\n              add\n              swap1\n              dup2\n              mstore\n              0x20\n              add\n              0x00\n              keccak256\n              0x00\n                /* \"Topic.sol\":3835:3869  createdArgument[msg.sender] = true */\n              0x0100\n              exp\n              dup2\n              sload\n              dup2\n              0xff\n              mul\n              not\n              and\n              swap1\n              dup4\n              iszero\n              iszero\n              mul\n              or\n              swap1\n              sstore\n              pop\n                /* \"Topic.sol\":1641:1642  _ */\n              pop\n                /* \"Topic.sol\":3265:3877  function createArgument(string memory argumentContent, bool belief) public _mustBeWithinTimeFrame {\r... */\n              pop\n              pop\n              jump\t// out\n                /* \"Topic.sol\":960:994  address payable[] public lieVoters */\n            tag_46:\n              0x08\n              dup2\n              dup2\n              sload\n              dup2\n              lt\n              tag_145\n              jumpi\n              invalid\n            tag_145:\n              swap1\n              0x00\n              mstore\n              keccak256(0x00, 0x20)\n              add\n              0x00\n              swap2\n              pop\n              sload\n              swap1\n              0x0100\n              exp\n              swap1\n              div\n              0xffffffffffffffffffffffffffffffffffffffff\n              and\n              dup2\n              jump\t// out\n                /* \"Topic.sol\":767:794  Argument[] public arguments */\n            tag_50:\n              0x04\n              dup2\n              dup2\n              sload\n              dup2\n              lt\n              tag_147\n              jumpi\n              invalid\n            tag_147:\n              swap1\n              0x00\n              mstore\n              keccak256(0x00, 0x20)\n              swap1\n              0x03\n              mul\n              add\n              0x00\n              swap2\n              pop\n              swap1\n              pop\n              dup1\n              0x00\n              add\n              dup1\n              sload\n              0x01\n              dup2\n              0x01\n              and\n              iszero\n              0x0100\n              mul\n              sub\n              and\n              0x02\n              swap1\n              div\n              dup1\n              0x1f\n              add\n              0x20\n              dup1\n              swap2\n              div\n              mul\n              0x20\n              add\n              mload(0x40)\n              swap1\n              dup2\n              add\n              0x40\n              mstore\n              dup1\n              swap3\n              swap2\n              swap1\n              dup2\n              dup2\n              mstore\n              0x20\n              add\n              dup3\n              dup1\n              sload\n              0x01\n              dup2\n              0x01\n              and\n              iszero\n              0x0100\n              mul\n              sub\n              and\n              0x02\n              swap1\n              div\n              dup1\n              iszero\n              tag_149\n              jumpi\n              dup1\n              0x1f\n              lt\n              tag_150\n              jumpi\n              0x0100\n              dup1\n              dup4\n              sload\n              div\n              mul\n              dup4\n              mstore\n              swap2\n              0x20\n              add\n              swap2\n              jump(tag_149)\n            tag_150:\n              dup3\n              add\n              swap2\n              swap1\n              0x00\n              mstore\n              keccak256(0x00, 0x20)\n              swap1\n            tag_151:\n              dup2\n              sload\n              dup2\n              mstore\n              swap1\n              0x01\n              add\n              swap1\n              0x20\n              add\n              dup1\n              dup4\n              gt\n              tag_151\n              jumpi\n              dup3\n              swap1\n              sub\n              0x1f\n              and\n              dup3\n              add\n              swap2\n            tag_149:\n              pop\n              pop\n              pop\n              pop\n              pop\n              swap1\n              dup1\n              0x01\n              add\n              0x00\n              swap1\n              sload\n              swap1\n              0x0100\n              exp\n              swap1\n              div\n              0xff\n              and\n              swap1\n              dup1\n              0x01\n              add\n              0x01\n              swap1\n              sload\n              swap1\n              0x0100\n              exp\n              swap1\n              div\n              0xffffffffffffffffffffffffffffffffffffffff\n              and\n              swap1\n              dup1\n              0x02\n              add\n              sload\n              swap1\n              pop\n              dup5\n              jump\t// out\n                /* \"Topic.sol\":705:734  uint public minimumInvestment */\n            tag_57:\n              sload(0x02)\n              dup2\n              jump\t// out\n                /* \"Topic.sol\":3061:3157  function getTruthCount() public view returns (uint) {\r... */\n            tag_60:\n                /* \"Topic.sol\":3107:3111  uint */\n              0x00\n                /* \"Topic.sol\":3131:3142  truthVoters */\n              0x07\n                /* \"Topic.sol\":3131:3149  truthVoters.length */\n              dup1\n              sload\n              swap1\n              pop\n                /* \"Topic.sol\":3124:3149  return truthVoters.length */\n              swap1\n              pop\n                /* \"Topic.sol\":3061:3157  function getTruthCount() public view returns (uint) {\r... */\n              swap1\n              jump\t// out\n                /* \"Topic.sol\":741:760  uint public endTime */\n            tag_63:\n              sload(0x03)\n              dup2\n              jump\t// out\n                /* \"Topic.sol\":847:894  mapping(address => bool) public createdArgument */\n            tag_67:\n              mstore(0x20, 0x06)\n              dup1\n              0x00\n              mstore\n              keccak256(0x00, 0x40)\n              0x00\n              swap2\n              pop\n              sload\n              swap1\n              0x0100\n              exp\n              swap1\n              div\n              0xff\n              and\n              dup2\n              jump\t// out\n                /* \"Topic.sol\":5341:5947  function claim() public {\r... */\n            tag_70:\n                /* \"Topic.sol\":5402:5409  endTime */\n              sload(0x03)\n                /* \"Topic.sol\":5384:5399  block.timestamp */\n              timestamp\n                /* \"Topic.sol\":5384:5409  block.timestamp > endTime */\n              gt\n                /* \"Topic.sol\":5376:5468  require(block.timestamp > endTime, 'You can only claim your rewards after the time period.') */\n              tag_154\n              jumpi\n              mload(0x40)\n              0x08c379a000000000000000000000000000000000000000000000000000000000\n              dup2\n              mstore\n              0x04\n              add\n              dup1\n              dup1\n              0x20\n              add\n              dup3\n              dup2\n              sub\n              dup3\n              mstore\n              0x36\n              dup2\n              mstore\n              0x20\n              add\n              dup1\n              data_1382083f71a022fa6144748d79496d6f05d3bcf3a0f484b323383c5c8edd8d26\n              0x36\n              swap2\n              codecopy\n              0x40\n              add\n              swap2\n              pop\n              pop\n              mload(0x40)\n              dup1\n              swap2\n              sub\n              swap1\n              revert\n            tag_154:\n                /* \"Topic.sol\":5479:5497  uint argumentIndex */\n              0x00\n                /* \"Topic.sol\":5500:5505  voted */\n              0x05\n                /* \"Topic.sol\":5500:5517  voted[msg.sender] */\n              0x00\n                /* \"Topic.sol\":5506:5516  msg.sender */\n              caller\n                /* \"Topic.sol\":5500:5517  voted[msg.sender] */\n              0xffffffffffffffffffffffffffffffffffffffff\n              and\n              0xffffffffffffffffffffffffffffffffffffffff\n              and\n              dup2\n              mstore\n              0x20\n              add\n              swap1\n              dup2\n              mstore\n              0x20\n              add\n              0x00\n              keccak256\n              sload\n                /* \"Topic.sol\":5479:5517  uint argumentIndex = voted[msg.sender] */\n              swap1\n              pop\n                /* \"Topic.sol\":5553:5554  0 */\n              0x00\n                /* \"Topic.sol\":5536:5549  argumentIndex */\n              dup2\n                /* \"Topic.sol\":5536:5554  argumentIndex != 0 */\n              eq\n              iszero\n                /* \"Topic.sol\":5528:5615  require(argumentIndex != 0, 'You did not vote during the period, so you cannot claim.') */\n              tag_155\n              jumpi\n              mload(0x40)\n              0x08c379a000000000000000000000000000000000000000000000000000000000\n              dup2\n              mstore\n              0x04\n              add\n              dup1\n              dup1\n              0x20\n              add\n              dup3\n              dup2\n              sub\n              dup3\n              mstore\n              0x38\n              dup2\n              mstore\n              0x20\n              add\n              dup1\n              data_0f62f618588d36303d76fa765b4096f4535e8428b36a788090d83035227e6cbf\n              0x38\n              swap2\n              codecopy\n              0x40\n              add\n              swap2\n              pop\n              pop\n              mload(0x40)\n              dup1\n              swap2\n              sub\n              swap1\n              revert\n            tag_155:\n                /* \"Topic.sol\":5626:5646  Argument storage arg */\n              0x00\n                /* \"Topic.sol\":5649:5658  arguments */\n              0x04\n                /* \"Topic.sol\":5659:5672  argumentIndex */\n              dup3\n                /* \"Topic.sol\":5649:5673  arguments[argumentIndex] */\n              dup2\n              sload\n              dup2\n              lt\n              tag_156\n              jumpi\n              invalid\n            tag_156:\n              swap1\n              0x00\n              mstore\n              keccak256(0x00, 0x20)\n              swap1\n              0x03\n              mul\n              add\n                /* \"Topic.sol\":5626:5673  Argument storage arg = arguments[argumentIndex] */\n              swap1\n              pop\n                /* \"Topic.sol\":5727:5728  0 */\n              0x00\n                /* \"Topic.sol\":5715:5723  majority */\n              sload(0x0a)\n                /* \"Topic.sol\":5715:5728  majority == 0 */\n              eq\n                /* \"Topic.sol\":5711:5776  if (majority == 0) {\r... */\n              iszero\n              tag_158\n              jumpi\n                /* \"Topic.sol\":5745:5764  calculateMajority() */\n              tag_159\n                /* \"Topic.sol\":5745:5762  calculateMajority */\n              tag_113\n                /* \"Topic.sol\":5745:5764  calculateMajority() */\n              jump\t// in\n            tag_159:\n                /* \"Topic.sol\":5711:5776  if (majority == 0) {\r... */\n            tag_158:\n                /* \"Topic.sol\":5805:5806  1 */\n              0x01\n                /* \"Topic.sol\":5793:5801  majority */\n              sload(0x0a)\n                /* \"Topic.sol\":5793:5806  majority == 1 */\n              eq\n                /* \"Topic.sol\":5793:5820  majority == 1 && arg.isTrue */\n              dup1\n              iszero\n              tag_160\n              jumpi\n              pop\n                /* \"Topic.sol\":5810:5813  arg */\n              dup1\n                /* \"Topic.sol\":5810:5820  arg.isTrue */\n              0x01\n              add\n              0x00\n              swap1\n              sload\n              swap1\n              0x0100\n              exp\n              swap1\n              div\n              0xff\n              and\n                /* \"Topic.sol\":5793:5820  majority == 1 && arg.isTrue */\n            tag_160:\n                /* \"Topic.sol\":5792:5855  (majority == 1 && arg.isTrue) || (majority == 2 && !arg.isTrue) */\n              dup1\n              tag_161\n              jumpi\n              pop\n                /* \"Topic.sol\":5838:5839  2 */\n              0x02\n                /* \"Topic.sol\":5826:5834  majority */\n              sload(0x0a)\n                /* \"Topic.sol\":5826:5839  majority == 2 */\n              eq\n                /* \"Topic.sol\":5826:5854  majority == 2 && !arg.isTrue */\n              dup1\n              iszero\n              tag_162\n              jumpi\n              pop\n                /* \"Topic.sol\":5844:5847  arg */\n              dup1\n                /* \"Topic.sol\":5844:5854  arg.isTrue */\n              0x01\n              add\n              0x00\n              swap1\n              sload\n              swap1\n              0x0100\n              exp\n              swap1\n              div\n              0xff\n              and\n                /* \"Topic.sol\":5843:5854  !arg.isTrue */\n              iszero\n                /* \"Topic.sol\":5826:5854  majority == 2 && !arg.isTrue */\n            tag_162:\n                /* \"Topic.sol\":5792:5855  (majority == 1 && arg.isTrue) || (majority == 2 && !arg.isTrue) */\n            tag_161:\n                /* \"Topic.sol\":5792:5874  (majority == 1 && arg.isTrue) || (majority == 2 && !arg.isTrue) || (majority == 3) */\n              dup1\n              tag_163\n              jumpi\n              pop\n                /* \"Topic.sol\":5872:5873  3 */\n              0x03\n                /* \"Topic.sol\":5860:5868  majority */\n              sload(0x0a)\n                /* \"Topic.sol\":5860:5873  majority == 3 */\n              eq\n                /* \"Topic.sol\":5792:5874  (majority == 1 && arg.isTrue) || (majority == 2 && !arg.isTrue) || (majority == 3) */\n            tag_163:\n                /* \"Topic.sol\":5788:5940  if ((majority == 1 && arg.isTrue) || (majority == 2 && !arg.isTrue) || (majority == 3)) {\r... */\n              iszero\n              tag_164\n              jumpi\n                /* \"Topic.sol\":5891:5901  msg.sender */\n              caller\n                /* \"Topic.sol\":5891:5910  msg.sender.transfer */\n              0xffffffffffffffffffffffffffffffffffffffff\n              and\n                /* \"Topic.sol\":5891:5928  msg.sender.transfer(payPerIndividual) */\n              0x08fc\n                /* \"Topic.sol\":5911:5927  payPerIndividual */\n              sload(0x0b)\n                /* \"Topic.sol\":5891:5928  msg.sender.transfer(payPerIndividual) */\n              swap1\n              dup2\n              iszero\n              mul\n              swap1\n              mload(0x40)\n              0x00\n              mload(0x40)\n              dup1\n              dup4\n              sub\n              dup2\n              dup6\n              dup9\n              dup9\n              call\n              swap4\n              pop\n              pop\n              pop\n              pop\n              iszero\n                /* \"--CODEGEN--\":8:17   */\n              dup1\n                /* \"--CODEGEN--\":5:7   */\n              iszero\n              tag_165\n              jumpi\n                /* \"--CODEGEN--\":45:61   */\n              returndatasize\n                /* \"--CODEGEN--\":42:43   */\n              0x00\n                /* \"--CODEGEN--\":39:40   */\n              dup1\n                /* \"--CODEGEN--\":24:62   */\n              returndatacopy\n                /* \"--CODEGEN--\":77:93   */\n              returndatasize\n                /* \"--CODEGEN--\":74:75   */\n              0x00\n                /* \"--CODEGEN--\":67:94   */\n              revert\n                /* \"--CODEGEN--\":5:7   */\n            tag_165:\n                /* \"Topic.sol\":5891:5928  msg.sender.transfer(payPerIndividual) */\n              pop\n                /* \"Topic.sol\":5788:5940  if ((majority == 1 && arg.isTrue) || (majority == 2 && !arg.isTrue) || (majority == 3)) {\r... */\n            tag_164:\n                /* \"Topic.sol\":5341:5947  function claim() public {\r... */\n              pop\n              pop\n              jump\t// out\n                /* \"Topic.sol\":3165:3257  function getLieCount() public view returns (uint) {\r... */\n            tag_73:\n                /* \"Topic.sol\":3209:3213  uint */\n              0x00\n                /* \"Topic.sol\":3233:3242  lieVoters */\n              0x08\n                /* \"Topic.sol\":3233:3249  lieVoters.length */\n              dup1\n              sload\n              swap1\n              pop\n                /* \"Topic.sol\":3226:3249  return lieVoters.length */\n              swap1\n              pop\n                /* \"Topic.sol\":3165:3257  function getLieCount() public view returns (uint) {\r... */\n              swap1\n              jump\t// out\n                /* \"Topic.sol\":621:642  string public content */\n            tag_76:\n              0x00\n              dup1\n              sload\n              0x01\n              dup2\n              0x01\n              and\n              iszero\n              0x0100\n              mul\n              sub\n              and\n              0x02\n              swap1\n              div\n              dup1\n              0x1f\n              add\n              0x20\n              dup1\n              swap2\n              div\n              mul\n              0x20\n              add\n              mload(0x40)\n              swap1\n              dup2\n              add\n              0x40\n              mstore\n              dup1\n              swap3\n              swap2\n              swap1\n              dup2\n              dup2\n              mstore\n              0x20\n              add\n              dup3\n              dup1\n              sload\n              0x01\n              dup2\n              0x01\n              and\n              iszero\n              0x0100\n              mul\n              sub\n              and\n              0x02\n              swap1\n              div\n              dup1\n              iszero\n              tag_167\n              jumpi\n              dup1\n              0x1f\n              lt\n              tag_168\n              jumpi\n              0x0100\n              dup1\n              dup4\n              sload\n              div\n              mul\n              dup4\n              mstore\n              swap2\n              0x20\n              add\n              swap2\n              jump(tag_167)\n            tag_168:\n              dup3\n              add\n              swap2\n              swap1\n              0x00\n              mstore\n              keccak256(0x00, 0x20)\n              swap1\n            tag_169:\n              dup2\n              sload\n              dup2\n              mstore\n              swap1\n              0x01\n              add\n              swap1\n              0x20\n              add\n              dup1\n              dup4\n              gt\n              tag_169\n              jumpi\n              dup3\n              swap1\n              sub\n              0x1f\n              and\n              dup3\n              add\n              swap2\n            tag_167:\n              pop\n              pop\n              pop\n              pop\n              pop\n              dup2\n              jump\t// out\n                /* \"Topic.sol\":5955:6288  function creatorClaim() public _creatorOnly {\r... */\n            tag_83:\n                /* \"Topic.sol\":1171:1178  creator */\n              0x01\n              0x00\n              swap1\n              sload\n              swap1\n              0x0100\n              exp\n              swap1\n              div\n              0xffffffffffffffffffffffffffffffffffffffff\n              and\n                /* \"Topic.sol\":1157:1178  msg.sender == creator */\n              0xffffffffffffffffffffffffffffffffffffffff\n              and\n                /* \"Topic.sol\":1157:1167  msg.sender */\n              caller\n                /* \"Topic.sol\":1157:1178  msg.sender == creator */\n              0xffffffffffffffffffffffffffffffffffffffff\n              and\n              eq\n                /* \"Topic.sol\":1149:1241  require(msg.sender == creator, 'You must be the creator of this Topic in order to do this.') */\n              tag_171\n              jumpi\n              mload(0x40)\n              0x08c379a000000000000000000000000000000000000000000000000000000000\n              dup2\n              mstore\n              0x04\n              add\n              dup1\n              dup1\n              0x20\n              add\n              dup3\n              dup2\n              sub\n              dup3\n              mstore\n              0x3a\n              dup2\n              mstore\n              0x20\n              add\n              dup1\n              data_8e90808f17bc1108e9ea5a79970bcefb81f12d2e44e112b3ad4b251ae0873244\n              0x3a\n              swap2\n              codecopy\n              0x40\n              add\n              swap2\n              pop\n              pop\n              mload(0x40)\n              dup1\n              swap2\n              sub\n              swap1\n              revert\n            tag_171:\n                /* \"Topic.sol\":6054:6055  0 */\n              0x00\n                /* \"Topic.sol\":6037:6050  getLieCount() */\n              tag_173\n                /* \"Topic.sol\":6037:6048  getLieCount */\n              tag_73\n                /* \"Topic.sol\":6037:6050  getLieCount() */\n              jump\t// in\n            tag_173:\n                /* \"Topic.sol\":6019:6034  getTruthCount() */\n              tag_174\n                /* \"Topic.sol\":6019:6032  getTruthCount */\n              tag_60\n                /* \"Topic.sol\":6019:6034  getTruthCount() */\n              jump\t// in\n            tag_174:\n                /* \"Topic.sol\":6019:6050  getTruthCount() + getLieCount() */\n              add\n                /* \"Topic.sol\":6019:6055  getTruthCount() + getLieCount() == 0 */\n              eq\n                /* \"Topic.sol\":6010:6122  require((getTruthCount() + getLieCount() == 0), 'The money goes to the people who participated in the process.') */\n              tag_175\n              jumpi\n              mload(0x40)\n              0x08c379a000000000000000000000000000000000000000000000000000000000\n              dup2\n              mstore\n              0x04\n              add\n              dup1\n              dup1\n              0x20\n              add\n              dup3\n              dup2\n              sub\n              dup3\n              mstore\n              0x3d\n              dup2\n              mstore\n              0x20\n              add\n              dup1\n              data_487936df645dd8c7181d68f73972966a3a06b5ee3756057942e5a7608d64edfe\n              0x3d\n              swap2\n              codecopy\n              0x40\n              add\n              swap2\n              pop\n              pop\n              mload(0x40)\n              dup1\n              swap2\n              sub\n              swap1\n              revert\n            tag_175:\n                /* \"Topic.sol\":6159:6166  endTime */\n              sload(0x03)\n                /* \"Topic.sol\":6141:6156  block.timestamp */\n              timestamp\n                /* \"Topic.sol\":6141:6166  block.timestamp > endTime */\n              gt\n                /* \"Topic.sol\":6133:6225  require(block.timestamp > endTime, 'You can only claim your rewards after the time period.') */\n              tag_176\n              jumpi\n              mload(0x40)\n              0x08c379a000000000000000000000000000000000000000000000000000000000\n              dup2\n              mstore\n              0x04\n              add\n              dup1\n              dup1\n              0x20\n              add\n              dup3\n              dup2\n              sub\n              dup3\n              mstore\n              0x36\n              dup2\n              mstore\n              0x20\n              add\n              dup1\n              data_1382083f71a022fa6144748d79496d6f05d3bcf3a0f484b323383c5c8edd8d26\n              0x36\n              swap2\n              codecopy\n              0x40\n              add\n              swap2\n              pop\n              pop\n              mload(0x40)\n              dup1\n              swap2\n              sub\n              swap1\n              revert\n            tag_176:\n                /* \"Topic.sol\":6238:6248  msg.sender */\n              caller\n                /* \"Topic.sol\":6238:6257  msg.sender.transfer */\n              0xffffffffffffffffffffffffffffffffffffffff\n              and\n                /* \"Topic.sol\":6238:6280  msg.sender.transfer(address(this).balance) */\n              0x08fc\n                /* \"Topic.sol\":6266:6270  this */\n              address\n                /* \"Topic.sol\":6258:6279  address(this).balance */\n              0xffffffffffffffffffffffffffffffffffffffff\n              and\n              balance\n                /* \"Topic.sol\":6238:6280  msg.sender.transfer(address(this).balance) */\n              swap1\n              dup2\n              iszero\n              mul\n              swap1\n              mload(0x40)\n              0x00\n              mload(0x40)\n              dup1\n              dup4\n              sub\n              dup2\n              dup6\n              dup9\n              dup9\n              call\n              swap4\n              pop\n              pop\n              pop\n              pop\n              iszero\n                /* \"--CODEGEN--\":8:17   */\n              dup1\n                /* \"--CODEGEN--\":5:7   */\n              iszero\n              tag_177\n              jumpi\n                /* \"--CODEGEN--\":45:61   */\n              returndatasize\n                /* \"--CODEGEN--\":42:43   */\n              0x00\n                /* \"--CODEGEN--\":39:40   */\n              dup1\n                /* \"--CODEGEN--\":24:62   */\n              returndatacopy\n                /* \"--CODEGEN--\":77:93   */\n              returndatasize\n                /* \"--CODEGEN--\":74:75   */\n              0x00\n                /* \"--CODEGEN--\":67:94   */\n              revert\n                /* \"--CODEGEN--\":5:7   */\n            tag_177:\n                /* \"Topic.sol\":6238:6280  msg.sender.transfer(address(this).balance) */\n              pop\n                /* \"Topic.sol\":5955:6288  function creatorClaim() public _creatorOnly {\r... */\n              jump\t// out\n                /* \"Topic.sol\":803:840  mapping(address => uint) public voted */\n            tag_87:\n              mstore(0x20, 0x05)\n              dup1\n              0x00\n              mstore\n              keccak256(0x00, 0x40)\n              0x00\n              swap2\n              pop\n              swap1\n              pop\n              sload\n              dup2\n              jump\t// out\n                /* \"Topic.sol\":3885:4212  function modifyArgument(uint argumentIndex, string memory newContent) public _mustBeWithinTimeFrame _publicOnly {\r... */\n            tag_94:\n                /* \"Topic.sol\":1575:1582  endTime */\n              sload(0x03)\n                /* \"Topic.sol\":1557:1572  block.timestamp */\n              timestamp\n                /* \"Topic.sol\":1557:1582  block.timestamp < endTime */\n              lt\n                /* \"Topic.sol\":1549:1630  require(block.timestamp < endTime, 'The period for the Topic has already ended.') */\n              tag_179\n              jumpi\n              mload(0x40)\n              0x08c379a000000000000000000000000000000000000000000000000000000000\n              dup2\n              mstore\n              0x04\n              add\n              dup1\n              dup1\n              0x20\n              add\n              dup3\n              dup2\n              sub\n              dup3\n              mstore\n              0x2b\n              dup2\n              mstore\n              0x20\n              add\n              dup1\n              data_9f7f122b70f117f8950311c325d9279ba88d6a0d2b593ed4f11b7663b9f48d07\n              0x2b\n              swap2\n              codecopy\n              0x40\n              add\n              swap2\n              pop\n              pop\n              mload(0x40)\n              dup1\n              swap2\n              sub\n              swap1\n              revert\n            tag_179:\n                /* \"Topic.sol\":1323:1327  true */\n              0x01\n                /* \"Topic.sol\":1311:1327  isPublic == true */\n              iszero\n              iszero\n                /* \"Topic.sol\":1311:1319  isPublic */\n              0x01\n              0x14\n              swap1\n              sload\n              swap1\n              0x0100\n              exp\n              swap1\n              div\n              0xff\n              and\n                /* \"Topic.sol\":1311:1327  isPublic == true */\n              iszero\n              iszero\n              eq\n                /* \"Topic.sol\":1303:1386  require(isPublic == true, 'The Topic has not been made public by the creator yet.') */\n              tag_181\n              jumpi\n              mload(0x40)\n              0x08c379a000000000000000000000000000000000000000000000000000000000\n              dup2\n              mstore\n              0x04\n              add\n              dup1\n              dup1\n              0x20\n              add\n              dup3\n              dup2\n              sub\n              dup3\n              mstore\n              0x36\n              dup2\n              mstore\n              0x20\n              add\n              dup1\n              data_0dcd6f99239ff481bb9978433adc808a27fd8c3813ed2f9969e4eb5b41c999c8\n              0x36\n              swap2\n              codecopy\n              0x40\n              add\n              swap2\n              pop\n              pop\n              mload(0x40)\n              dup1\n              swap2\n              sub\n              swap1\n              revert\n            tag_181:\n                /* \"Topic.sol\":4008:4028  Argument storage arg */\n              0x00\n                /* \"Topic.sol\":4031:4040  arguments */\n              0x04\n                /* \"Topic.sol\":4041:4054  argumentIndex */\n              dup4\n                /* \"Topic.sol\":4031:4055  arguments[argumentIndex] */\n              dup2\n              sload\n              dup2\n              lt\n              tag_183\n              jumpi\n              invalid\n            tag_183:\n              swap1\n              0x00\n              mstore\n              keccak256(0x00, 0x20)\n              swap1\n              0x03\n              mul\n              add\n                /* \"Topic.sol\":4008:4055  Argument storage arg = arguments[argumentIndex] */\n              swap1\n              pop\n                /* \"Topic.sol\":4089:4099  msg.sender */\n              caller\n                /* \"Topic.sol\":4074:4099  arg.creator == msg.sender */\n              0xffffffffffffffffffffffffffffffffffffffff\n              and\n                /* \"Topic.sol\":4074:4077  arg */\n              dup2\n                /* \"Topic.sol\":4074:4085  arg.creator */\n              0x01\n              add\n              0x01\n              swap1\n              sload\n              swap1\n              0x0100\n              exp\n              swap1\n              div\n              0xffffffffffffffffffffffffffffffffffffffff\n              and\n                /* \"Topic.sol\":4074:4099  arg.creator == msg.sender */\n              0xffffffffffffffffffffffffffffffffffffffff\n              and\n              eq\n                /* \"Topic.sol\":4066:4167  require(arg.creator == msg.sender, 'You must be the creator of this argument to modify its contents') */\n              tag_185\n              jumpi\n              mload(0x40)\n              0x08c379a000000000000000000000000000000000000000000000000000000000\n              dup2\n              mstore\n              0x04\n              add\n              dup1\n              dup1\n              0x20\n              add\n              dup3\n              dup2\n              sub\n              dup3\n              mstore\n              0x3f\n              dup2\n              mstore\n              0x20\n              add\n              dup1\n              data_462972cdfa3949c714200f01cc0119c34f13d2febb0b716c5c847368d043f42b\n              0x3f\n              swap2\n              codecopy\n              0x40\n              add\n              swap2\n              pop\n              pop\n              mload(0x40)\n              dup1\n              swap2\n              sub\n              swap1\n              revert\n            tag_185:\n                /* \"Topic.sol\":4194:4204  newContent */\n              dup2\n                /* \"Topic.sol\":4180:4183  arg */\n              dup2\n                /* \"Topic.sol\":4180:4191  arg.content */\n              0x00\n              add\n                /* \"Topic.sol\":4180:4204  arg.content = newContent */\n              swap1\n              dup1\n              mload\n              swap1\n              0x20\n              add\n              swap1\n              tag_186\n              swap3\n              swap2\n              swap1\n              tag_187\n              jump\t// in\n            tag_186:\n              pop\n                /* \"Topic.sol\":1397:1398  _ */\n              pop\n                /* \"Topic.sol\":3885:4212  function modifyArgument(uint argumentIndex, string memory newContent) public _mustBeWithinTimeFrame _publicOnly {\r... */\n              pop\n              pop\n              jump\t// out\n                /* \"Topic.sol\":1077:1105  uint public payPerIndividual */\n            tag_97:\n              sload(0x0b)\n              dup2\n              jump\t// out\n                /* \"Topic.sol\":1050:1070  uint public majority */\n            tag_100:\n              sload(0x0a)\n              dup2\n              jump\t// out\n                /* \"Topic.sol\":4220:4317  function getArgumentCount() public view returns (uint) {\r... */\n            tag_103:\n                /* \"Topic.sol\":4269:4273  uint */\n              0x00\n                /* \"Topic.sol\":4293:4302  arguments */\n              0x04\n                /* \"Topic.sol\":4293:4309  arguments.length */\n              dup1\n              sload\n              swap1\n              pop\n                /* \"Topic.sol\":4286:4309  return arguments.length */\n              swap1\n              pop\n                /* \"Topic.sol\":4220:4317  function getArgumentCount() public view returns (uint) {\r... */\n              swap1\n              jump\t// out\n                /* \"Topic.sol\":678:698  bool public isPublic */\n            tag_106:\n              0x01\n              0x14\n              swap1\n              sload\n              swap1\n              0x0100\n              exp\n              swap1\n              div\n              0xff\n              and\n              dup2\n              jump\t// out\n                /* \"Topic.sol\":901:937  address payable[] public truthVoters */\n            tag_110:\n              0x07\n              dup2\n              dup2\n              sload\n              dup2\n              lt\n              tag_189\n              jumpi\n              invalid\n            tag_189:\n              swap1\n              0x00\n              mstore\n              keccak256(0x00, 0x20)\n              add\n              0x00\n              swap2\n              pop\n              sload\n              swap1\n              0x0100\n              exp\n              swap1\n              div\n              0xffffffffffffffffffffffffffffffffffffffff\n              and\n              dup2\n              jump\t// out\n                /* \"Topic.sol\":4488:5333  function calculateMajority() public {\r... */\n            tag_113:\n                /* \"Topic.sol\":4555:4556  0 */\n              0x00\n                /* \"Topic.sol\":4543:4551  majority */\n              sload(0x0a)\n                /* \"Topic.sol\":4543:4556  majority == 0 */\n              eq\n                /* \"Topic.sol\":4535:4595  require(majority == 0, 'Majority has already been decided.') */\n              tag_192\n              jumpi\n              mload(0x40)\n              0x08c379a000000000000000000000000000000000000000000000000000000000\n              dup2\n              mstore\n              0x04\n              add\n              dup1\n              dup1\n              0x20\n              add\n              dup3\n              dup2\n              sub\n              dup3\n              mstore\n              0x22\n              dup2\n              mstore\n              0x20\n              add\n              dup1\n              data_b923ef61fa2999a084d0e68c9e9898cf18c32317d3ee24c87dceb47dffcde339\n              0x22\n              swap2\n              codecopy\n              0x40\n              add\n              swap2\n              pop\n              pop\n              mload(0x40)\n              dup1\n              swap2\n              sub\n              swap1\n              revert\n            tag_192:\n                /* \"Topic.sol\":4629:4634  false */\n              0x00\n                /* \"Topic.sol\":4614:4634  isCompleted == false */\n              iszero\n              iszero\n                /* \"Topic.sol\":4614:4625  isCompleted */\n              0x09\n              0x00\n              swap1\n              sload\n              swap1\n              0x0100\n              exp\n              swap1\n              div\n              0xff\n              and\n                /* \"Topic.sol\":4614:4634  isCompleted == false */\n              iszero\n              iszero\n              eq\n                /* \"Topic.sol\":4606:4676  require(isCompleted == false, 'Topic is already marked as completed.') */\n              tag_193\n              jumpi\n              mload(0x40)\n              0x08c379a000000000000000000000000000000000000000000000000000000000\n              dup2\n              mstore\n              0x04\n              add\n              dup1\n              dup1\n              0x20\n              add\n              dup3\n              dup2\n              sub\n              dup3\n              mstore\n              0x25\n              dup2\n              mstore\n              0x20\n              add\n              dup1\n              data_69abe80003e6d0795ace8e04b4282120b32e88a03434cef64287876f072cb77e\n              0x25\n              swap2\n              codecopy\n              0x40\n              add\n              swap2\n              pop\n              pop\n              mload(0x40)\n              dup1\n              swap2\n              sub\n              swap1\n              revert\n            tag_193:\n                /* \"Topic.sol\":4713:4720  endTime */\n              sload(0x03)\n                /* \"Topic.sol\":4695:4710  block.timestamp */\n              timestamp\n                /* \"Topic.sol\":4695:4720  block.timestamp > endTime */\n              gt\n                /* \"Topic.sol\":4687:4789  require(block.timestamp > endTime, 'Majority can only be calculated after the time period has ended.') */\n              tag_194\n              jumpi\n              mload(0x40)\n              0x08c379a000000000000000000000000000000000000000000000000000000000\n              dup2\n              mstore\n              0x04\n              add\n              dup1\n              dup1\n              0x20\n              add\n              dup3\n              dup2\n              sub\n              dup3\n              mstore\n              0x40\n              dup2\n              mstore\n              0x20\n              add\n              dup1\n              data_81338d347818a2fed0620a7e85f685926d9e1bdbc7e2764bf0092067d32f7024\n              0x40\n              swap2\n              codecopy\n              0x40\n              add\n              swap2\n              pop\n              pop\n              mload(0x40)\n              dup1\n              swap2\n              sub\n              swap1\n              revert\n            tag_194:\n                /* \"Topic.sol\":4802:4817  uint truthCount */\n              0x00\n                /* \"Topic.sol\":4820:4835  getTruthCount() */\n              tag_195\n                /* \"Topic.sol\":4820:4833  getTruthCount */\n              tag_60\n                /* \"Topic.sol\":4820:4835  getTruthCount() */\n              jump\t// in\n            tag_195:\n                /* \"Topic.sol\":4802:4835  uint truthCount = getTruthCount() */\n              swap1\n              pop\n                /* \"Topic.sol\":4846:4859  uint lieCount */\n              0x00\n                /* \"Topic.sol\":4862:4875  getLieCount() */\n              tag_196\n                /* \"Topic.sol\":4862:4873  getLieCount */\n              tag_73\n                /* \"Topic.sol\":4862:4875  getLieCount() */\n              jump\t// in\n            tag_196:\n                /* \"Topic.sol\":4846:4875  uint lieCount = getLieCount() */\n              swap1\n              pop\n                /* \"Topic.sol\":4886:4902  uint winnerCount */\n              0x00\n                /* \"Topic.sol\":4905:4906  0 */\n              dup1\n                /* \"Topic.sol\":4886:4906  uint winnerCount = 0 */\n              swap1\n              pop\n                /* \"Topic.sol\":4936:4944  lieCount */\n              dup2\n                /* \"Topic.sol\":4923:4933  truthCount */\n              dup4\n                /* \"Topic.sol\":4923:4944  truthCount > lieCount */\n              gt\n                /* \"Topic.sol\":4919:5228  if (truthCount > lieCount) {\r... */\n              iszero\n              tag_197\n              jumpi\n                /* \"Topic.sol\":4972:4973  1 */\n              0x01\n                /* \"Topic.sol\":4961:4969  majority */\n              0x0a\n                /* \"Topic.sol\":4961:4973  majority = 1 */\n              dup2\n              swap1\n              sstore\n              pop\n                /* \"Topic.sol\":5002:5012  truthCount */\n              dup3\n                /* \"Topic.sol\":4988:5012  winnerCount = truthCount */\n              swap1\n              pop\n                /* \"Topic.sol\":4919:5228  if (truthCount > lieCount) {\r... */\n              jump(tag_198)\n            tag_197:\n                /* \"Topic.sol\":5047:5055  lieCount */\n              dup2\n                /* \"Topic.sol\":5034:5044  truthCount */\n              dup4\n                /* \"Topic.sol\":5034:5055  truthCount < lieCount */\n              lt\n                /* \"Topic.sol\":5030:5228  if (truthCount < lieCount) {\r... */\n              iszero\n              tag_199\n              jumpi\n                /* \"Topic.sol\":5083:5084  2 */\n              0x02\n                /* \"Topic.sol\":5072:5080  majority */\n              0x0a\n                /* \"Topic.sol\":5072:5084  majority = 2 */\n              dup2\n              swap1\n              sstore\n              pop\n                /* \"Topic.sol\":5113:5121  lieCount */\n              dup2\n                /* \"Topic.sol\":5099:5121  winnerCount = lieCount */\n              swap1\n              pop\n                /* \"Topic.sol\":5030:5228  if (truthCount < lieCount) {\r... */\n              jump(tag_200)\n            tag_199:\n                /* \"Topic.sol\":5165:5166  3 */\n              0x03\n                /* \"Topic.sol\":5154:5162  majority */\n              0x0a\n                /* \"Topic.sol\":5154:5166  majority = 3 */\n              dup2\n              swap1\n              sstore\n              pop\n                /* \"Topic.sol\":5208:5216  lieCount */\n              dup2\n                /* \"Topic.sol\":5195:5205  truthCount */\n              dup4\n                /* \"Topic.sol\":5195:5216  truthCount + lieCount */\n              add\n                /* \"Topic.sol\":5181:5216  winnerCount = truthCount + lieCount */\n              swap1\n              pop\n                /* \"Topic.sol\":5030:5228  if (truthCount < lieCount) {\r... */\n            tag_200:\n                /* \"Topic.sol\":4919:5228  if (truthCount > lieCount) {\r... */\n            tag_198:\n                /* \"Topic.sol\":5283:5294  winnerCount */\n              dup1\n                /* \"Topic.sol\":5267:5271  this */\n              address\n                /* \"Topic.sol\":5259:5280  address(this).balance */\n              0xffffffffffffffffffffffffffffffffffffffff\n              and\n              balance\n                /* \"Topic.sol\":5259:5294  address(this).balance / winnerCount */\n              dup2\n              tag_201\n              jumpi\n              invalid\n            tag_201:\n              div\n                /* \"Topic.sol\":5240:5256  payPerIndividual */\n              0x0b\n                /* \"Topic.sol\":5240:5294  payPerIndividual = address(this).balance / winnerCount */\n              dup2\n              swap1\n              sstore\n              pop\n                /* \"Topic.sol\":5321:5325  true */\n              0x01\n                /* \"Topic.sol\":5307:5318  isCompleted */\n              0x09\n              0x00\n                /* \"Topic.sol\":5307:5325  isCompleted = true */\n              0x0100\n              exp\n              dup2\n              sload\n              dup2\n              0xff\n              mul\n              not\n              and\n              swap1\n              dup4\n              iszero\n              iszero\n              mul\n              or\n              swap1\n              sstore\n              pop\n                /* \"Topic.sol\":4488:5333  function calculateMajority() public {\r... */\n              pop\n              pop\n              pop\n              jump\t// out\n                /* \"Topic.sol\":1020:1043  bool public isCompleted */\n            tag_116:\n              0x09\n              0x00\n              swap1\n              sload\n              swap1\n              0x0100\n              exp\n              swap1\n              div\n              0xff\n              and\n              dup2\n              jump\t// out\n                /* \"Topic.sol\":2223:2322  function makePublic() public _mustBeWithinTimeFrame _creatorOnly {\r... */\n            tag_119:\n                /* \"Topic.sol\":1575:1582  endTime */\n              sload(0x03)\n                /* \"Topic.sol\":1557:1572  block.timestamp */\n              timestamp\n                /* \"Topic.sol\":1557:1582  block.timestamp < endTime */\n              lt\n                /* \"Topic.sol\":1549:1630  require(block.timestamp < endTime, 'The period for the Topic has already ended.') */\n              tag_203\n              jumpi\n              mload(0x40)\n              0x08c379a000000000000000000000000000000000000000000000000000000000\n              dup2\n              mstore\n              0x04\n              add\n              dup1\n              dup1\n              0x20\n              add\n              dup3\n              dup2\n              sub\n              dup3\n              mstore\n              0x2b\n              dup2\n              mstore\n              0x20\n              add\n              dup1\n              data_9f7f122b70f117f8950311c325d9279ba88d6a0d2b593ed4f11b7663b9f48d07\n              0x2b\n              swap2\n              codecopy\n              0x40\n              add\n              swap2\n              pop\n              pop\n              mload(0x40)\n              dup1\n              swap2\n              sub\n              swap1\n              revert\n            tag_203:\n                /* \"Topic.sol\":1171:1178  creator */\n              0x01\n              0x00\n              swap1\n              sload\n              swap1\n              0x0100\n              exp\n              swap1\n              div\n              0xffffffffffffffffffffffffffffffffffffffff\n              and\n                /* \"Topic.sol\":1157:1178  msg.sender == creator */\n              0xffffffffffffffffffffffffffffffffffffffff\n              and\n                /* \"Topic.sol\":1157:1167  msg.sender */\n              caller\n                /* \"Topic.sol\":1157:1178  msg.sender == creator */\n              0xffffffffffffffffffffffffffffffffffffffff\n              and\n              eq\n                /* \"Topic.sol\":1149:1241  require(msg.sender == creator, 'You must be the creator of this Topic in order to do this.') */\n              tag_205\n              jumpi\n              mload(0x40)\n              0x08c379a000000000000000000000000000000000000000000000000000000000\n              dup2\n              mstore\n              0x04\n              add\n              dup1\n              dup1\n              0x20\n              add\n              dup3\n              dup2\n              sub\n              dup3\n              mstore\n              0x3a\n              dup2\n              mstore\n              0x20\n              add\n              dup1\n              data_8e90808f17bc1108e9ea5a79970bcefb81f12d2e44e112b3ad4b251ae0873244\n              0x3a\n              swap2\n              codecopy\n              0x40\n              add\n              swap2\n              pop\n              pop\n              mload(0x40)\n              dup1\n              swap2\n              sub\n              swap1\n              revert\n            tag_205:\n                /* \"Topic.sol\":2310:2314  true */\n              0x01\n                /* \"Topic.sol\":2299:2307  isPublic */\n              dup1\n              0x14\n                /* \"Topic.sol\":2299:2314  isPublic = true */\n              0x0100\n              exp\n              dup2\n              sload\n              dup2\n              0xff\n              mul\n              not\n              and\n              swap1\n              dup4\n              iszero\n              iszero\n              mul\n              or\n              swap1\n              sstore\n              pop\n                /* \"Topic.sol\":2223:2322  function makePublic() public _mustBeWithinTimeFrame _creatorOnly {\r... */\n              jump\t// out\n                /* \"Topic.sol\":28:8429  contract Topic {\r... */\n            tag_141:\n              mload(0x40)\n              dup1\n              0x80\n              add\n              0x40\n              mstore\n              dup1\n              0x60\n              dup2\n              mstore\n              0x20\n              add\n              iszero(iszero(0x00))\n              dup2\n              mstore\n              0x20\n              add\n              and(0xffffffffffffffffffffffffffffffffffffffff, 0x00)\n              dup2\n              mstore\n              0x20\n              add\n              0x00\n              dup2\n              mstore\n              pop\n              swap1\n              jump\t// out\n            tag_144:\n              dup3\n              dup1\n              sload\n              0x01\n              dup2\n              0x01\n              and\n              iszero\n              0x0100\n              mul\n              sub\n              and\n              0x02\n              swap1\n              div\n              swap1\n              0x00\n              mstore\n              keccak256(0x00, 0x20)\n              swap1\n              0x1f\n              add\n              0x20\n              swap1\n              div\n              dup2\n              add\n              swap3\n              dup3\n              0x1f\n              lt\n              tag_208\n              jumpi\n              dup1\n              mload\n              not(0xff)\n              and\n              dup4\n              dup1\n              add\n              or\n              dup6\n              sstore\n              jump(tag_207)\n            tag_208:\n              dup3\n              dup1\n              add\n              0x01\n              add\n              dup6\n              sstore\n              dup3\n              iszero\n              tag_207\n              jumpi\n              swap2\n              dup3\n              add\n            tag_209:\n              dup3\n              dup2\n              gt\n              iszero\n              tag_210\n              jumpi\n              dup3\n              mload\n              dup3\n              sstore\n              swap2\n              0x20\n              add\n              swap2\n              swap1\n              0x01\n              add\n              swap1\n              jump(tag_209)\n            tag_210:\n            tag_207:\n              pop\n              swap1\n              pop\n              tag_211\n              swap2\n              swap1\n              tag_212\n              jump\t// in\n            tag_211:\n              pop\n              swap1\n              jump\t// out\n            tag_187:\n              dup3\n              dup1\n              sload\n              0x01\n              dup2\n              0x01\n              and\n              iszero\n              0x0100\n              mul\n              sub\n              and\n              0x02\n              swap1\n              div\n              swap1\n              0x00\n              mstore\n              keccak256(0x00, 0x20)\n              swap1\n              0x1f\n              add\n              0x20\n              swap1\n              div\n              dup2\n              add\n              swap3\n              dup3\n              0x1f\n              lt\n              tag_214\n              jumpi\n              dup1\n              mload\n              not(0xff)\n              and\n              dup4\n              dup1\n              add\n              or\n              dup6\n              sstore\n              jump(tag_213)\n            tag_214:\n              dup3\n              dup1\n              add\n              0x01\n              add\n              dup6\n              sstore\n              dup3\n              iszero\n              tag_213\n              jumpi\n              swap2\n              dup3\n              add\n            tag_215:\n              dup3\n              dup2\n              gt\n              iszero\n              tag_216\n              jumpi\n              dup3\n              mload\n              dup3\n              sstore\n              swap2\n              0x20\n              add\n              swap2\n              swap1\n              0x01\n              add\n              swap1\n              jump(tag_215)\n            tag_216:\n            tag_213:\n              pop\n              swap1\n              pop\n              tag_217\n              swap2\n              swap1\n              tag_212\n              jump\t// in\n            tag_217:\n              pop\n              swap1\n              jump\t// out\n            tag_212:\n              tag_218\n              swap2\n              swap1\n            tag_219:\n              dup1\n              dup3\n              gt\n              iszero\n              tag_220\n              jumpi\n              0x00\n              dup2\n              0x00\n              swap1\n              sstore\n              pop\n              0x01\n              add\n              jump(tag_219)\n            tag_220:\n              pop\n              swap1\n              jump\n            tag_218:\n              swap1\n              jump\t// out\n            stop\n            data_0dcd6f99239ff481bb9978433adc808a27fd8c3813ed2f9969e4eb5b41c999c8 54686520546f70696320686173206e6f74206265656e206d616465207075626c6963206279207468652063726561746f72207965742e\n            data_0f62f618588d36303d76fa765b4096f4535e8428b36a788090d83035227e6cbf 596f7520646964206e6f7420766f746520647572696e672074686520706572696f642c20736f20796f752063616e6e6f7420636c61696d2e\n            data_1382083f71a022fa6144748d79496d6f05d3bcf3a0f484b323383c5c8edd8d26 596f752063616e206f6e6c7920636c61696d20796f75722072657761726473206166746572207468652074696d6520706572696f642e\n            data_462972cdfa3949c714200f01cc0119c34f13d2febb0b716c5c847368d043f42b 596f75206d757374206265207468652063726561746f72206f66207468697320617267756d656e7420746f206d6f646966792069747320636f6e74656e7473\n            data_487936df645dd8c7181d68f73972966a3a06b5ee3756057942e5a7608d64edfe 546865206d6f6e657920676f657320746f207468652070656f706c652077686f2070617274696369706174656420696e207468652070726f636573732e\n            data_69abe80003e6d0795ace8e04b4282120b32e88a03434cef64287876f072cb77e 546f70696320697320616c7265616479206d61726b656420617320636f6d706c657465642e\n            data_81338d347818a2fed0620a7e85f685926d9e1bdbc7e2764bf0092067d32f7024 4d616a6f726974792063616e206f6e6c792062652063616c63756c61746564206166746572207468652074696d6520706572696f642068617320656e6465642e\n            data_8912f675a50e382e9fd7b592cf1cd9595235c43ce4309904b1bd35e2a18fc4ee 596f75206861766520616c7265616479206372656174656420616e20617267756d656e742e\n            data_8e90808f17bc1108e9ea5a79970bcefb81f12d2e44e112b3ad4b251ae0873244 596f75206d757374206265207468652063726561746f72206f66207468697320546f70696320696e206f7264657220746f20646f20746869732e\n            data_9f7f122b70f117f8950311c325d9279ba88d6a0d2b593ed4f11b7663b9f48d07 54686520706572696f6420666f722074686520546f7069632068617320616c726561647920656e6465642e\n            data_a51d6c7e63ccd193933dbe11cb306fe5ec831a64f09f21fc7409bad4b2e4d83d 596f752063616e6e6f7420766f746520666f722074686520617267756d656e742067656e6572617465642062792074686520636f6e74726163742e\n            data_b923ef61fa2999a084d0e68c9e9898cf18c32317d3ee24c87dceb47dffcde339 4d616a6f726974792068617320616c7265616479206265656e20646563696465642e\n            data_e4fa0cb8985058f63b9cb51c2253c421abddee7ee3e17fd4cc1399b190f1e5b2 596f75206d75737420696e76657374206174206c6561737420746865206d696e696d756d20616d6f756e7461732064656369646564206279207468652063726561746f722e\n            data_e7eff9e8bfd97a1462a69b9b489e013c0dc4931276c8cdd67607888c761a1d3c 596f75206861766520616c726561647920766f7465642e20596f75206d6179206e6f74206368616e676520796f757220766f74652e\n\n            auxdata: 0xa265627a7a7231582006b9af093f0b284cefb8d381229dbfc67a610b11a9cc3dec62be105534c558b364736f6c634300050b0032\n        }\n    }\n\n    auxdata: 0xa265627a7a723158204a6b0636bb929af1a208b08326cd7cbe5dd781ef549a8174516807a464b8841d64736f6c634300050b0032\n}\n","bytecode":{"linkReferences":{},"object":"608060405234801561001057600080fd5b50612923806100206000396000f3fe6080604052600436106100345760003560e01c80630a5e47bb14610039578063b93ad27a14610108578063d7f0007a14610174575b600080fd5b6101066004803603606081101561004f57600080fd5b810190808035906020019064010000000081111561006c57600080fd5b82018360208201111561007e57600080fd5b803590602001918460018302840111640100000000831117156100a057600080fd5b91908080601f016020809104026020016040519081016040528093929190818152602001838380828437600081840152601f19601f82011690508083019250505050505050919291929080359060200190929190803590602001909291905050506101ef565b005b34801561011457600080fd5b5061011d6103a0565b6040518080602001828103825283818151815260200191508051906020019060200280838360005b83811015610160578082015181840152602081019050610145565b505050509050019250505060405180910390f35b34801561018057600080fd5b506101ad6004803603602081101561019757600080fd5b810190808035906020019092919050505061042e565b604051808273ffffffffffffffffffffffffffffffffffffffff1673ffffffffffffffffffffffffffffffffffffffff16815260200191505060405180910390f35b6000838383336040516102019061046a565b80806020018581526020018481526020018373ffffffffffffffffffffffffffffffffffffffff1673ffffffffffffffffffffffffffffffffffffffff168152602001828103825286818151815260200191508051906020019080838360005b8381101561027c578082015181840152602081019050610261565b50505050905090810190601f1680156102a95780820380516001836020036101000a031916815260200191505b5095505050505050604051809103906000f0801580156102cd573d6000803e3d6000fd5b50905060008190508073ffffffffffffffffffffffffffffffffffffffff166108fc3073ffffffffffffffffffffffffffffffffffffffff16319081150290604051600060405180830381858888f19350505050158015610332573d6000803e3d6000fd5b5060008290806001815401808255809150509060018203906000526020600020016000909192909190916101000a81548173ffffffffffffffffffffffffffffffffffffffff021916908373ffffffffffffffffffffffffffffffffffffffff160217905550505050505050565b6060600080548060200260200160405190810160405280929190818152602001828054801561042457602002820191906000526020600020905b8160009054906101000a900473ffffffffffffffffffffffffffffffffffffffff1673ffffffffffffffffffffffffffffffffffffffff16815260200190600101908083116103da575b5050505050905090565b6000818154811061043b57fe5b906000526020600020016000915054906101000a900473ffffffffffffffffffffffffffffffffffffffff1681565b612477806104788339019056fe60806040523480156200001157600080fd5b506040516200247738038062002477833981810160405260808110156200003757600080fd5b81019080805160405193929190846401000000008211156200005857600080fd5b838201915060208201858111156200006f57600080fd5b82518660018202830111640100000000821117156200008d57600080fd5b8083526020830192505050908051906020019080838360005b83811015620000c3578082015181840152602081019050620000a6565b50505050905090810190601f168015620000f15780820380516001836020036101000a031916815260200191505b5060405260200180519060200190929190805190602001909291908051906020019092919050505083600090805190602001906200013192919062000452565b508260028190555080600160006101000a81548173ffffffffffffffffffffffffffffffffffffffff021916908373ffffffffffffffffffffffffffffffffffffffff1602179055506000600160146101000a81548160ff0219169083151502179055506000600a819055506000600b81905550600182024201600381905550620001dd6040518060600160405280603e815260200162002439603e91396000620001e760201b60201c565b50505050620005c8565b600354421062000243576040517f08c379a000000000000000000000000000000000000000000000000000000000815260040180806020018281038252602b8152602001806200240e602b913960400191505060405180910390fd5b60001515600660003373ffffffffffffffffffffffffffffffffffffffff1673ffffffffffffffffffffffffffffffffffffffff16815260200190815260200160002060009054906101000a900460ff16151514620002ee576040517f08c379a0000000000000000000000000000000000000000000000000000000008152600401808060200182810382526025815260200180620023e96025913960400191505060405180910390fd5b620002f8620004d9565b604051806080016040528084815260200183151581526020013373ffffffffffffffffffffffffffffffffffffffff168152602001600081525090506004819080600181540180825580915050906001820390600052602060002090600302016000909192909190915060008201518160000190805190602001906200038092919062000519565b5060208201518160010160006101000a81548160ff02191690831515021790555060408201518160010160016101000a81548173ffffffffffffffffffffffffffffffffffffffff021916908373ffffffffffffffffffffffffffffffffffffffff160217905550606082015181600201555050506001600660003373ffffffffffffffffffffffffffffffffffffffff1673ffffffffffffffffffffffffffffffffffffffff16815260200190815260200160002060006101000a81548160ff021916908315150217905550505050565b828054600181600116156101000203166002900490600052602060002090601f016020900481019282601f106200049557805160ff1916838001178555620004c6565b82800160010185558215620004c6579182015b82811115620004c5578251825591602001919060010190620004a8565b5b509050620004d59190620005a0565b5090565b604051806080016040528060608152602001600015158152602001600073ffffffffffffffffffffffffffffffffffffffff168152602001600081525090565b828054600181600116156101000203166002900490600052602060002090601f016020900481019282601f106200055c57805160ff19168380011785556200058d565b828001600101855582156200058d579182015b828111156200058c5782518255916020019190600101906200056f565b5b5090506200059c9190620005a0565b5090565b620005c591905b80821115620005c1576000816000905550600101620005a7565b5090565b90565b611e1180620005d86000396000f3fe6080604052600436106101405760003560e01c80638a4d5a67116100b6578063c234d7891161006f578063c234d7891461076f578063dc9a15351461079a578063e5d00035146107c9578063f22bb5f614610844578063fa391c641461085b578063fc018c051461088a57610140565b80638a4d5a671461053b5780639380b1cf146105cb578063aec2ccae146105e2578063b4fdf11314610647578063b6b9e90a14610719578063b6e54bdf1461074457610140565b80632b925b25116101085780632b925b251461040f5780632ec32e6d1461043a5780633197cbb61461046557806344fe9432146104905780634e71d92d146104f95780636e3ebc2e1461051057610140565b80630121b93f1461014257806302d05d3f146101705780630715ef00146101c757806309f74db71461029b5780630a68f63114610316575b005b61016e6004803603602081101561015857600080fd5b81019080803590602001909291905050506108a1565b005b34801561017c57600080fd5b50610185610c2c565b604051808273ffffffffffffffffffffffffffffffffffffffff1673ffffffffffffffffffffffffffffffffffffffff16815260200191505060405180910390f35b3480156101d357600080fd5b50610299600480360360408110156101ea57600080fd5b810190808035906020019064010000000081111561020757600080fd5b82018360208201111561021957600080fd5b8035906020019184600183028401116401000000008311171561023b57600080fd5b91908080601f016020809104026020016040519081016040528093929190818152602001838380828437600081840152601f19601f820116905080830192505050505050509192919290803515159060200190929190505050610c52565b005b3480156102a757600080fd5b506102d4600480360360208110156102be57600080fd5b8101908080359060200190929190505050610eb5565b604051808273ffffffffffffffffffffffffffffffffffffffff1673ffffffffffffffffffffffffffffffffffffffff16815260200191505060405180910390f35b34801561032257600080fd5b5061034f6004803603602081101561033957600080fd5b8101908080359060200190929190505050610ef1565b6040518080602001851515151581526020018473ffffffffffffffffffffffffffffffffffffffff1673ffffffffffffffffffffffffffffffffffffffff168152602001838152602001828103825286818151815260200191508051906020019080838360005b838110156103d15780820151818401526020810190506103b6565b50505050905090810190601f1680156103fe5780820380516001836020036101000a031916815260200191505b509550505050505060405180910390f35b34801561041b57600080fd5b50610424610ff3565b6040518082815260200191505060405180910390f35b34801561044657600080fd5b5061044f610ff9565b6040518082815260200191505060405180910390f35b34801561047157600080fd5b5061047a611006565b6040518082815260200191505060405180910390f35b34801561049c57600080fd5b506104df600480360360208110156104b357600080fd5b81019080803573ffffffffffffffffffffffffffffffffffffffff16906020019092919050505061100c565b604051808215151515815260200191505060405180910390f35b34801561050557600080fd5b5061050e61102c565b005b34801561051c57600080fd5b506105256111ff565b6040518082815260200191505060405180910390f35b34801561054757600080fd5b5061055061120c565b6040518080602001828103825283818151815260200191508051906020019080838360005b83811015610590578082015181840152602081019050610575565b50505050905090810190601f1680156105bd5780820380516001836020036101000a031916815260200191505b509250505060405180910390f35b3480156105d757600080fd5b506105e06112aa565b005b3480156105ee57600080fd5b506106316004803603602081101561060557600080fd5b81019080803573ffffffffffffffffffffffffffffffffffffffff169060200190929190505050611473565b6040518082815260200191505060405180910390f35b34801561065357600080fd5b506107176004803603604081101561066a57600080fd5b81019080803590602001909291908035906020019064010000000081111561069157600080fd5b8201836020820111156106a357600080fd5b803590602001918460018302840111640100000000831117156106c557600080fd5b91908080601f016020809104026020016040519081016040528093929190818152602001838380828437600081840152601f19601f82011690508083019250505050505050919291929050505061148b565b005b34801561072557600080fd5b5061072e611636565b6040518082815260200191505060405180910390f35b34801561075057600080fd5b5061075961163c565b6040518082815260200191505060405180910390f35b34801561077b57600080fd5b50610784611642565b6040518082815260200191505060405180910390f35b3480156107a657600080fd5b506107af61164f565b604051808215151515815260200191505060405180910390f35b3480156107d557600080fd5b50610802600480360360208110156107ec57600080fd5b8101908080359060200190929190505050611662565b604051808273ffffffffffffffffffffffffffffffffffffffff1673ffffffffffffffffffffffffffffffffffffffff16815260200191505060405180910390f35b34801561085057600080fd5b5061085961169e565b005b34801561086757600080fd5b50610870611862565b604051808215151515815260200191505060405180910390f35b34801561089657600080fd5b5061089f611875565b005b60035442106108fb576040517f08c379a000000000000000000000000000000000000000000000000000000000815260040180806020018281038252602b815260200180611cdb602b913960400191505060405180910390fd5b60011515600160149054906101000a900460ff16151514610967576040517f08c379a0000000000000000000000000000000000000000000000000000000008152600401808060200182810382526036815260200180611af76036913960400191505060405180910390fd5b60008114156109c1576040517f08c379a000000000000000000000000000000000000000000000000000000000815260040180806020018281038252603b815260200180611d06603b913960400191505060405180910390fd5b6000600560003373ffffffffffffffffffffffffffffffffffffffff1673ffffffffffffffffffffffffffffffffffffffff1681526020019081526020016000205414610a59576040517f08c379a0000000000000000000000000000000000000000000000000000000008152600401808060200182810382526035815260200180611da86035913960400191505060405180910390fd5b600254341015610ab4576040517f08c379a0000000000000000000000000000000000000000000000000000000008152600401808060200182810382526045815260200180611d636045913960600191505060405180910390fd5b80600560003373ffffffffffffffffffffffffffffffffffffffff1673ffffffffffffffffffffffffffffffffffffffff1681526020019081526020016000208190555060048181548110610b0557fe5b90600052602060002090600302016002016000815480929190600101919050555060048181548110610b3357fe5b906000526020600020906003020160010160009054906101000a900460ff1615610bc25760073390806001815401808255809150509060018203906000526020600020016000909192909190916101000a81548173ffffffffffffffffffffffffffffffffffffffff021916908373ffffffffffffffffffffffffffffffffffffffff16021790555050610c29565b60083390806001815401808255809150509060018203906000526020600020016000909192909190916101000a81548173ffffffffffffffffffffffffffffffffffffffff021916908373ffffffffffffffffffffffffffffffffffffffff160217905550505b50565b600160009054906101000a900473ffffffffffffffffffffffffffffffffffffffff1681565b6003544210610cac576040517f08c379a000000000000000000000000000000000000000000000000000000000815260040180806020018281038252602b815260200180611cdb602b913960400191505060405180910390fd5b60001515600660003373ffffffffffffffffffffffffffffffffffffffff1673ffffffffffffffffffffffffffffffffffffffff16815260200190815260200160002060009054906101000a900460ff16151514610d55576040517f08c379a0000000000000000000000000000000000000000000000000000000008152600401808060200182810382526025815260200180611c7c6025913960400191505060405180910390fd5b610d5d611991565b604051806080016040528084815260200183151581526020013373ffffffffffffffffffffffffffffffffffffffff16815260200160008152509050600481908060018154018082558091505090600182039060005260206000209060030201600090919290919091506000820151816000019080519060200190610de39291906119d1565b5060208201518160010160006101000a81548160ff02191690831515021790555060408201518160010160016101000a81548173ffffffffffffffffffffffffffffffffffffffff021916908373ffffffffffffffffffffffffffffffffffffffff160217905550606082015181600201555050506001600660003373ffffffffffffffffffffffffffffffffffffffff1673ffffffffffffffffffffffffffffffffffffffff16815260200190815260200160002060006101000a81548160ff021916908315150217905550505050565b60088181548110610ec257fe5b906000526020600020016000915054906101000a900473ffffffffffffffffffffffffffffffffffffffff1681565b60048181548110610efe57fe5b9060005260206000209060030201600091509050806000018054600181600116156101000203166002900480601f016020809104026020016040519081016040528092919081815260200182805460018160011615610100020316600290048015610faa5780601f10610f7f57610100808354040283529160200191610faa565b820191906000526020600020905b815481529060010190602001808311610f8d57829003601f168201915b5050505050908060010160009054906101000a900460ff16908060010160019054906101000a900473ffffffffffffffffffffffffffffffffffffffff16908060020154905084565b60025481565b6000600780549050905090565b60035481565b60066020528060005260406000206000915054906101000a900460ff1681565b6003544211611086576040517f08c379a0000000000000000000000000000000000000000000000000000000008152600401808060200182810382526036815260200180611b656036913960400191505060405180910390fd5b6000600560003373ffffffffffffffffffffffffffffffffffffffff1673ffffffffffffffffffffffffffffffffffffffff1681526020019081526020016000205490506000811415611124576040517f08c379a0000000000000000000000000000000000000000000000000000000008152600401808060200182810382526038815260200180611b2d6038913960400191505060405180910390fd5b60006004828154811061113357fe5b906000526020600020906003020190506000600a5414156111575761115661169e565b5b6001600a5414801561117757508060010160009054906101000a900460ff165b8061119f57506002600a5414801561119e57508060010160009054906101000a900460ff16155b5b806111ac57506003600a54145b156111fb573373ffffffffffffffffffffffffffffffffffffffff166108fc600b549081150290604051600060405180830381858888f193505050501580156111f9573d6000803e3d6000fd5b505b5050565b6000600880549050905090565b60008054600181600116156101000203166002900480601f0160208091040260200160405190810160405280929190818152602001828054600181600116156101000203166002900480156112a25780601f10611277576101008083540402835291602001916112a2565b820191906000526020600020905b81548152906001019060200180831161128557829003601f168201915b505050505081565b600160009054906101000a900473ffffffffffffffffffffffffffffffffffffffff1673ffffffffffffffffffffffffffffffffffffffff163373ffffffffffffffffffffffffffffffffffffffff1614611350576040517f08c379a000000000000000000000000000000000000000000000000000000000815260040180806020018281038252603a815260200180611ca1603a913960400191505060405180910390fd5b600061135a6111ff565b611362610ff9565b01146113b9576040517f08c379a000000000000000000000000000000000000000000000000000000000815260040180806020018281038252603d815260200180611bda603d913960400191505060405180910390fd5b6003544211611413576040517f08c379a0000000000000000000000000000000000000000000000000000000008152600401808060200182810382526036815260200180611b656036913960400191505060405180910390fd5b3373ffffffffffffffffffffffffffffffffffffffff166108fc3073ffffffffffffffffffffffffffffffffffffffff16319081150290604051600060405180830381858888f19350505050158015611470573d6000803e3d6000fd5b50565b60056020528060005260406000206000915090505481565b60035442106114e5576040517f08c379a000000000000000000000000000000000000000000000000000000000815260040180806020018281038252602b815260200180611cdb602b913960400191505060405180910390fd5b60011515600160149054906101000a900460ff16151514611551576040517f08c379a0000000000000000000000000000000000000000000000000000000008152600401808060200182810382526036815260200180611af76036913960400191505060405180910390fd5b60006004838154811061156057fe5b906000526020600020906003020190503373ffffffffffffffffffffffffffffffffffffffff168160010160019054906101000a900473ffffffffffffffffffffffffffffffffffffffff1673ffffffffffffffffffffffffffffffffffffffff1614611618576040517f08c379a000000000000000000000000000000000000000000000000000000000815260040180806020018281038252603f815260200180611b9b603f913960400191505060405180910390fd5b81816000019080519060200190611630929190611a51565b50505050565b600b5481565b600a5481565b6000600480549050905090565b600160149054906101000a900460ff1681565b6007818154811061166f57fe5b906000526020600020016000915054906101000a900473ffffffffffffffffffffffffffffffffffffffff1681565b6000600a54146116f9576040517f08c379a0000000000000000000000000000000000000000000000000000000008152600401808060200182810382526022815260200180611d416022913960400191505060405180910390fd5b60001515600960009054906101000a900460ff16151514611765576040517f08c379a0000000000000000000000000000000000000000000000000000000008152600401808060200182810382526025815260200180611c176025913960400191505060405180910390fd5b60035442116117bf576040517f08c379a0000000000000000000000000000000000000000000000000000000008152600401808060200182810382526040815260200180611c3c6040913960400191505060405180910390fd5b60006117c9610ff9565b905060006117d56111ff565b90506000809050818311156117f4576001600a8190555082905061181b565b8183101561180c576002600a8190555081905061181a565b6003600a8190555081830190505b5b803073ffffffffffffffffffffffffffffffffffffffff16318161183b57fe5b04600b819055506001600960006101000a81548160ff021916908315150217905550505050565b600960009054906101000a900460ff1681565b60035442106118cf576040517f08c379a000000000000000000000000000000000000000000000000000000000815260040180806020018281038252602b815260200180611cdb602b913960400191505060405180910390fd5b600160009054906101000a900473ffffffffffffffffffffffffffffffffffffffff1673ffffffffffffffffffffffffffffffffffffffff163373ffffffffffffffffffffffffffffffffffffffff1614611975576040517f08c379a000000000000000000000000000000000000000000000000000000000815260040180806020018281038252603a815260200180611ca1603a913960400191505060405180910390fd5b60018060146101000a81548160ff021916908315150217905550565b604051806080016040528060608152602001600015158152602001600073ffffffffffffffffffffffffffffffffffffffff168152602001600081525090565b828054600181600116156101000203166002900490600052602060002090601f016020900481019282601f10611a1257805160ff1916838001178555611a40565b82800160010185558215611a40579182015b82811115611a3f578251825591602001919060010190611a24565b5b509050611a4d9190611ad1565b5090565b828054600181600116156101000203166002900490600052602060002090601f016020900481019282601f10611a9257805160ff1916838001178555611ac0565b82800160010185558215611ac0579182015b82811115611abf578251825591602001919060010190611aa4565b5b509050611acd9190611ad1565b5090565b611af391905b80821115611aef576000816000905550600101611ad7565b5090565b9056fe54686520546f70696320686173206e6f74206265656e206d616465207075626c6963206279207468652063726561746f72207965742e596f7520646964206e6f7420766f746520647572696e672074686520706572696f642c20736f20796f752063616e6e6f7420636c61696d2e596f752063616e206f6e6c7920636c61696d20796f75722072657761726473206166746572207468652074696d6520706572696f642e596f75206d757374206265207468652063726561746f72206f66207468697320617267756d656e7420746f206d6f646966792069747320636f6e74656e7473546865206d6f6e657920676f657320746f207468652070656f706c652077686f2070617274696369706174656420696e207468652070726f636573732e546f70696320697320616c7265616479206d61726b656420617320636f6d706c657465642e4d616a6f726974792063616e206f6e6c792062652063616c63756c61746564206166746572207468652074696d6520706572696f642068617320656e6465642e596f75206861766520616c7265616479206372656174656420616e20617267756d656e742e596f75206d757374206265207468652063726561746f72206f66207468697320546f70696320696e206f7264657220746f20646f20746869732e54686520706572696f6420666f722074686520546f7069632068617320616c726561647920656e6465642e596f752063616e6e6f7420766f746520666f722074686520617267756d656e742067656e6572617465642062792074686520636f6e74726163742e4d616a6f726974792068617320616c7265616479206265656e20646563696465642e596f75206d75737420696e76657374206174206c6561737420746865206d696e696d756d20616d6f756e7461732064656369646564206279207468652063726561746f722e596f75206861766520616c726561647920766f7465642e20596f75206d6179206e6f74206368616e676520796f757220766f74652ea265627a7a7231582006b9af093f0b284cefb8d381229dbfc67a610b11a9cc3dec62be105534c558b364736f6c634300050b0032596f75206861766520616c7265616479206372656174656420616e20617267756d656e742e54686520706572696f6420666f722074686520546f7069632068617320616c726561647920656e6465642e596f752068617665206e6f742063686f73656e207965742077686574686572207468652073746174656d656e742069732074727565206f722066616c7365a265627a7a723158204a6b0636bb929af1a208b08326cd7cbe5dd781ef549a8174516807a464b8841d64736f6c634300050b0032","opcodes":"PUSH1 0x80 PUSH1 0x40 MSTORE CALLVALUE DUP1 ISZERO PUSH2 0x10 JUMPI PUSH1 0x0 DUP1 REVERT JUMPDEST POP PUSH2 0x2923 DUP1 PUSH2 0x20 PUSH1 0x0 CODECOPY PUSH1 0x0 RETURN INVALID PUSH1 0x80 PUSH1 0x40 MSTORE PUSH1 0x4 CALLDATASIZE LT PUSH2 0x34 JUMPI PUSH1 0x0 CALLDATALOAD PUSH1 0xE0 SHR DUP1 PUSH4 0xA5E47BB EQ PUSH2 0x39 JUMPI DUP1 PUSH4 0xB93AD27A EQ PUSH2 0x108 JUMPI DUP1 PUSH4 0xD7F0007A EQ PUSH2 0x174 JUMPI JUMPDEST PUSH1 0x0 DUP1 REVERT JUMPDEST PUSH2 0x106 PUSH1 0x4 DUP1 CALLDATASIZE SUB PUSH1 0x60 DUP2 LT ISZERO PUSH2 0x4F JUMPI PUSH1 0x0 DUP1 REVERT JUMPDEST DUP2 ADD SWAP1 DUP1 DUP1 CALLDATALOAD SWAP1 PUSH1 0x20 ADD SWAP1 PUSH5 0x100000000 DUP2 GT ISZERO PUSH2 0x6C JUMPI PUSH1 0x0 DUP1 REVERT JUMPDEST DUP3 ADD DUP4 PUSH1 0x20 DUP3 ADD GT ISZERO PUSH2 0x7E JUMPI PUSH1 0x0 DUP1 REVERT JUMPDEST DUP1 CALLDATALOAD SWAP1 PUSH1 0x20 ADD SWAP2 DUP5 PUSH1 0x1 DUP4 MUL DUP5 ADD GT PUSH5 0x100000000 DUP4 GT OR ISZERO PUSH2 0xA0 JUMPI PUSH1 0x0 DUP1 REVERT JUMPDEST SWAP2 SWAP1 DUP1 DUP1 PUSH1 0x1F ADD PUSH1 0x20 DUP1 SWAP2 DIV MUL PUSH1 0x20 ADD PUSH1 0x40 MLOAD SWAP1 DUP2 ADD PUSH1 0x40 MSTORE DUP1 SWAP4 SWAP3 SWAP2 SWAP1 DUP2 DUP2 MSTORE PUSH1 0x20 ADD DUP4 DUP4 DUP1 DUP3 DUP5 CALLDATACOPY PUSH1 0x0 DUP2 DUP5 ADD MSTORE PUSH1 0x1F NOT PUSH1 0x1F DUP3 ADD AND SWAP1 POP DUP1 DUP4 ADD SWAP3 POP POP POP POP POP POP POP SWAP2 SWAP3 SWAP2 SWAP3 SWAP1 DUP1 CALLDATALOAD SWAP1 PUSH1 0x20 ADD SWAP1 SWAP3 SWAP2 SWAP1 DUP1 CALLDATALOAD SWAP1 PUSH1 0x20 ADD SWAP1 SWAP3 SWAP2 SWAP1 POP POP POP PUSH2 0x1EF JUMP JUMPDEST STOP JUMPDEST CALLVALUE DUP1 ISZERO PUSH2 0x114 JUMPI PUSH1 0x0 DUP1 REVERT JUMPDEST POP PUSH2 0x11D PUSH2 0x3A0 JUMP JUMPDEST PUSH1 0x40 MLOAD DUP1 DUP1 PUSH1 0x20 ADD DUP3 DUP2 SUB DUP3 MSTORE DUP4 DUP2 DUP2 MLOAD DUP2 MSTORE PUSH1 0x20 ADD SWAP2 POP DUP1 MLOAD SWAP1 PUSH1 0x20 ADD SWAP1 PUSH1 0x20 MUL DUP1 DUP4 DUP4 PUSH1 0x0 JUMPDEST DUP4 DUP2 LT ISZERO PUSH2 0x160 JUMPI DUP1 DUP3 ADD MLOAD DUP2 DUP5 ADD MSTORE PUSH1 0x20 DUP2 ADD SWAP1 POP PUSH2 0x145 JUMP JUMPDEST POP POP POP POP SWAP1 POP ADD SWAP3 POP POP POP PUSH1 0x40 MLOAD DUP1 SWAP2 SUB SWAP1 RETURN JUMPDEST CALLVALUE DUP1 ISZERO PUSH2 0x180 JUMPI PUSH1 0x0 DUP1 REVERT JUMPDEST POP PUSH2 0x1AD PUSH1 0x4 DUP1 CALLDATASIZE SUB PUSH1 0x20 DUP2 LT ISZERO PUSH2 0x197 JUMPI PUSH1 0x0 DUP1 REVERT JUMPDEST DUP2 ADD SWAP1 DUP1 DUP1 CALLDATALOAD SWAP1 PUSH1 0x20 ADD SWAP1 SWAP3 SWAP2 SWAP1 POP POP POP PUSH2 0x42E JUMP JUMPDEST PUSH1 0x40 MLOAD DUP1 DUP3 PUSH20 0xFFFFFFFFFFFFFFFFFFFFFFFFFFFFFFFFFFFFFFFF AND PUSH20 0xFFFFFFFFFFFFFFFFFFFFFFFFFFFFFFFFFFFFFFFF AND DUP2 MSTORE PUSH1 0x20 ADD SWAP2 POP POP PUSH1 0x40 MLOAD DUP1 SWAP2 SUB SWAP1 RETURN JUMPDEST PUSH1 0x0 DUP4 DUP4 DUP4 CALLER PUSH1 0x40 MLOAD PUSH2 0x201 SWAP1 PUSH2 0x46A JUMP JUMPDEST DUP1 DUP1 PUSH1 0x20 ADD DUP6 DUP2 MSTORE PUSH1 0x20 ADD DUP5 DUP2 MSTORE PUSH1 0x20 ADD DUP4 PUSH20 0xFFFFFFFFFFFFFFFFFFFFFFFFFFFFFFFFFFFFFFFF AND PUSH20 0xFFFFFFFFFFFFFFFFFFFFFFFFFFFFFFFFFFFFFFFF AND DUP2 MSTORE PUSH1 0x20 ADD DUP3 DUP2 SUB DUP3 MSTORE DUP7 DUP2 DUP2 MLOAD DUP2 MSTORE PUSH1 0x20 ADD SWAP2 POP DUP1 MLOAD SWAP1 PUSH1 0x20 ADD SWAP1 DUP1 DUP4 DUP4 PUSH1 0x0 JUMPDEST DUP4 DUP2 LT ISZERO PUSH2 0x27C JUMPI DUP1 DUP3 ADD MLOAD DUP2 DUP5 ADD MSTORE PUSH1 0x20 DUP2 ADD SWAP1 POP PUSH2 0x261 JUMP JUMPDEST POP POP POP POP SWAP1 POP SWAP1 DUP2 ADD SWAP1 PUSH1 0x1F AND DUP1 ISZERO PUSH2 0x2A9 JUMPI DUP1 DUP3 SUB DUP1 MLOAD PUSH1 0x1 DUP4 PUSH1 0x20 SUB PUSH2 0x100 EXP SUB NOT AND DUP2 MSTORE PUSH1 0x20 ADD SWAP2 POP JUMPDEST POP SWAP6 POP POP POP POP POP POP PUSH1 0x40 MLOAD DUP1 SWAP2 SUB SWAP1 PUSH1 0x0 CREATE DUP1 ISZERO DUP1 ISZERO PUSH2 0x2CD JUMPI RETURNDATASIZE PUSH1 0x0 DUP1 RETURNDATACOPY RETURNDATASIZE PUSH1 0x0 REVERT JUMPDEST POP SWAP1 POP PUSH1 0x0 DUP2 SWAP1 POP DUP1 PUSH20 0xFFFFFFFFFFFFFFFFFFFFFFFFFFFFFFFFFFFFFFFF AND PUSH2 0x8FC ADDRESS PUSH20 0xFFFFFFFFFFFFFFFFFFFFFFFFFFFFFFFFFFFFFFFF AND BALANCE SWAP1 DUP2 ISZERO MUL SWAP1 PUSH1 0x40 MLOAD PUSH1 0x0 PUSH1 0x40 MLOAD DUP1 DUP4 SUB DUP2 DUP6 DUP9 DUP9 CALL SWAP4 POP POP POP POP ISZERO DUP1 ISZERO PUSH2 0x332 JUMPI RETURNDATASIZE PUSH1 0x0 DUP1 RETURNDATACOPY RETURNDATASIZE PUSH1 0x0 REVERT JUMPDEST POP PUSH1 0x0 DUP3 SWAP1 DUP1 PUSH1 0x1 DUP2 SLOAD ADD DUP1 DUP3 SSTORE DUP1 SWAP2 POP POP SWAP1 PUSH1 0x1 DUP3 SUB SWAP1 PUSH1 0x0 MSTORE PUSH1 0x20 PUSH1 0x0 KECCAK256 ADD PUSH1 0x0 SWAP1 SWAP2 SWAP3 SWAP1 SWAP2 SWAP1 SWAP2 PUSH2 0x100 EXP DUP2 SLOAD DUP2 PUSH20 0xFFFFFFFFFFFFFFFFFFFFFFFFFFFFFFFFFFFFFFFF MUL NOT AND SWAP1 DUP4 PUSH20 0xFFFFFFFFFFFFFFFFFFFFFFFFFFFFFFFFFFFFFFFF AND MUL OR SWAP1 SSTORE POP POP POP POP POP POP POP JUMP JUMPDEST PUSH1 0x60 PUSH1 0x0 DUP1 SLOAD DUP1 PUSH1 0x20 MUL PUSH1 0x20 ADD PUSH1 0x40 MLOAD SWAP1 DUP2 ADD PUSH1 0x40 MSTORE DUP1 SWAP3 SWAP2 SWAP1 DUP2 DUP2 MSTORE PUSH1 0x20 ADD DUP3 DUP1 SLOAD DUP1 ISZERO PUSH2 0x424 JUMPI PUSH1 0x20 MUL DUP3 ADD SWAP2 SWAP1 PUSH1 0x0 MSTORE PUSH1 0x20 PUSH1 0x0 KECCAK256 SWAP1 JUMPDEST DUP2 PUSH1 0x0 SWAP1 SLOAD SWAP1 PUSH2 0x100 EXP SWAP1 DIV PUSH20 0xFFFFFFFFFFFFFFFFFFFFFFFFFFFFFFFFFFFFFFFF AND PUSH20 0xFFFFFFFFFFFFFFFFFFFFFFFFFFFFFFFFFFFFFFFF AND DUP2 MSTORE PUSH1 0x20 ADD SWAP1 PUSH1 0x1 ADD SWAP1 DUP1 DUP4 GT PUSH2 0x3DA JUMPI JUMPDEST POP POP POP POP POP SWAP1 POP SWAP1 JUMP JUMPDEST PUSH1 0x0 DUP2 DUP2 SLOAD DUP2 LT PUSH2 0x43B JUMPI INVALID JUMPDEST SWAP1 PUSH1 0x0 MSTORE PUSH1 0x20 PUSH1 0x0 KECCAK256 ADD PUSH1 0x0 SWAP2 POP SLOAD SWAP1 PUSH2 0x100 EXP SWAP1 DIV PUSH20 0xFFFFFFFFFFFFFFFFFFFFFFFFFFFFFFFFFFFFFFFF AND DUP2 JUMP JUMPDEST PUSH2 0x2477 DUP1 PUSH2 0x478 DUP4 CODECOPY ADD SWAP1 JUMP INVALID PUSH1 0x80 PUSH1 0x40 MSTORE CALLVALUE DUP1 ISZERO PUSH3 0x11 JUMPI PUSH1 0x0 DUP1 REVERT JUMPDEST POP PUSH1 0x40 MLOAD PUSH3 0x2477 CODESIZE SUB DUP1 PUSH3 0x2477 DUP4 CODECOPY DUP2 DUP2 ADD PUSH1 0x40 MSTORE PUSH1 0x80 DUP2 LT ISZERO PUSH3 0x37 JUMPI PUSH1 0x0 DUP1 REVERT JUMPDEST DUP2 ADD SWAP1 DUP1 DUP1 MLOAD PUSH1 0x40 MLOAD SWAP4 SWAP3 SWAP2 SWAP1 DUP5 PUSH5 0x100000000 DUP3 GT ISZERO PUSH3 0x58 JUMPI PUSH1 0x0 DUP1 REVERT JUMPDEST DUP4 DUP3 ADD SWAP2 POP PUSH1 0x20 DUP3 ADD DUP6 DUP2 GT ISZERO PUSH3 0x6F JUMPI PUSH1 0x0 DUP1 REVERT JUMPDEST DUP3 MLOAD DUP7 PUSH1 0x1 DUP3 MUL DUP4 ADD GT PUSH5 0x100000000 DUP3 GT OR ISZERO PUSH3 0x8D JUMPI PUSH1 0x0 DUP1 REVERT JUMPDEST DUP1 DUP4 MSTORE PUSH1 0x20 DUP4 ADD SWAP3 POP POP POP SWAP1 DUP1 MLOAD SWAP1 PUSH1 0x20 ADD SWAP1 DUP1 DUP4 DUP4 PUSH1 0x0 JUMPDEST DUP4 DUP2 LT ISZERO PUSH3 0xC3 JUMPI DUP1 DUP3 ADD MLOAD DUP2 DUP5 ADD MSTORE PUSH1 0x20 DUP2 ADD SWAP1 POP PUSH3 0xA6 JUMP JUMPDEST POP POP POP POP SWAP1 POP SWAP1 DUP2 ADD SWAP1 PUSH1 0x1F AND DUP1 ISZERO PUSH3 0xF1 JUMPI DUP1 DUP3 SUB DUP1 MLOAD PUSH1 0x1 DUP4 PUSH1 0x20 SUB PUSH2 0x100 EXP SUB NOT AND DUP2 MSTORE PUSH1 0x20 ADD SWAP2 POP JUMPDEST POP PUSH1 0x40 MSTORE PUSH1 0x20 ADD DUP1 MLOAD SWAP1 PUSH1 0x20 ADD SWAP1 SWAP3 SWAP2 SWAP1 DUP1 MLOAD SWAP1 PUSH1 0x20 ADD SWAP1 SWAP3 SWAP2 SWAP1 DUP1 MLOAD SWAP1 PUSH1 0x20 ADD SWAP1 SWAP3 SWAP2 SWAP1 POP POP POP DUP4 PUSH1 0x0 SWAP1 DUP1 MLOAD SWAP1 PUSH1 0x20 ADD SWAP1 PUSH3 0x131 SWAP3 SWAP2 SWAP1 PUSH3 0x452 JUMP JUMPDEST POP DUP3 PUSH1 0x2 DUP2 SWAP1 SSTORE POP DUP1 PUSH1 0x1 PUSH1 0x0 PUSH2 0x100 EXP DUP2 SLOAD DUP2 PUSH20 0xFFFFFFFFFFFFFFFFFFFFFFFFFFFFFFFFFFFFFFFF MUL NOT AND SWAP1 DUP4 PUSH20 0xFFFFFFFFFFFFFFFFFFFFFFFFFFFFFFFFFFFFFFFF AND MUL OR SWAP1 SSTORE POP PUSH1 0x0 PUSH1 0x1 PUSH1 0x14 PUSH2 0x100 EXP DUP2 SLOAD DUP2 PUSH1 0xFF MUL NOT AND SWAP1 DUP4 ISZERO ISZERO MUL OR SWAP1 SSTORE POP PUSH1 0x0 PUSH1 0xA DUP2 SWAP1 SSTORE POP PUSH1 0x0 PUSH1 0xB DUP2 SWAP1 SSTORE POP PUSH1 0x1 DUP3 MUL TIMESTAMP ADD PUSH1 0x3 DUP2 SWAP1 SSTORE POP PUSH3 0x1DD PUSH1 0x40 MLOAD DUP1 PUSH1 0x60 ADD PUSH1 0x40 MSTORE DUP1 PUSH1 0x3E DUP2 MSTORE PUSH1 0x20 ADD PUSH3 0x2439 PUSH1 0x3E SWAP2 CODECOPY PUSH1 0x0 PUSH3 0x1E7 PUSH1 0x20 SHL PUSH1 0x20 SHR JUMP JUMPDEST POP POP POP POP PUSH3 0x5C8 JUMP JUMPDEST PUSH1 0x3 SLOAD TIMESTAMP LT PUSH3 0x243 JUMPI PUSH1 0x40 MLOAD PUSH32 0x8C379A000000000000000000000000000000000000000000000000000000000 DUP2 MSTORE PUSH1 0x4 ADD DUP1 DUP1 PUSH1 0x20 ADD DUP3 DUP2 SUB DUP3 MSTORE PUSH1 0x2B DUP2 MSTORE PUSH1 0x20 ADD DUP1 PUSH3 0x240E PUSH1 0x2B SWAP2 CODECOPY PUSH1 0x40 ADD SWAP2 POP POP PUSH1 0x40 MLOAD DUP1 SWAP2 SUB SWAP1 REVERT JUMPDEST PUSH1 0x0 ISZERO ISZERO PUSH1 0x6 PUSH1 0x0 CALLER PUSH20 0xFFFFFFFFFFFFFFFFFFFFFFFFFFFFFFFFFFFFFFFF AND PUSH20 0xFFFFFFFFFFFFFFFFFFFFFFFFFFFFFFFFFFFFFFFF AND DUP2 MSTORE PUSH1 0x20 ADD SWAP1 DUP2 MSTORE PUSH1 0x20 ADD PUSH1 0x0 KECCAK256 PUSH1 0x0 SWAP1 SLOAD SWAP1 PUSH2 0x100 EXP SWAP1 DIV PUSH1 0xFF AND ISZERO ISZERO EQ PUSH3 0x2EE JUMPI PUSH1 0x40 MLOAD PUSH32 0x8C379A000000000000000000000000000000000000000000000000000000000 DUP2 MSTORE PUSH1 0x4 ADD DUP1 DUP1 PUSH1 0x20 ADD DUP3 DUP2 SUB DUP3 MSTORE PUSH1 0x25 DUP2 MSTORE PUSH1 0x20 ADD DUP1 PUSH3 0x23E9 PUSH1 0x25 SWAP2 CODECOPY PUSH1 0x40 ADD SWAP2 POP POP PUSH1 0x40 MLOAD DUP1 SWAP2 SUB SWAP1 REVERT JUMPDEST PUSH3 0x2F8 PUSH3 0x4D9 JUMP JUMPDEST PUSH1 0x40 MLOAD DUP1 PUSH1 0x80 ADD PUSH1 0x40 MSTORE DUP1 DUP5 DUP2 MSTORE PUSH1 0x20 ADD DUP4 ISZERO ISZERO DUP2 MSTORE PUSH1 0x20 ADD CALLER PUSH20 0xFFFFFFFFFFFFFFFFFFFFFFFFFFFFFFFFFFFFFFFF AND DUP2 MSTORE PUSH1 0x20 ADD PUSH1 0x0 DUP2 MSTORE POP SWAP1 POP PUSH1 0x4 DUP2 SWAP1 DUP1 PUSH1 0x1 DUP2 SLOAD ADD DUP1 DUP3 SSTORE DUP1 SWAP2 POP POP SWAP1 PUSH1 0x1 DUP3 SUB SWAP1 PUSH1 0x0 MSTORE PUSH1 0x20 PUSH1 0x0 KECCAK256 SWAP1 PUSH1 0x3 MUL ADD PUSH1 0x0 SWAP1 SWAP2 SWAP3 SWAP1 SWAP2 SWAP1 SWAP2 POP PUSH1 0x0 DUP3 ADD MLOAD DUP2 PUSH1 0x0 ADD SWAP1 DUP1 MLOAD SWAP1 PUSH1 0x20 ADD SWAP1 PUSH3 0x380 SWAP3 SWAP2 SWAP1 PUSH3 0x519 JUMP JUMPDEST POP PUSH1 0x20 DUP3 ADD MLOAD DUP2 PUSH1 0x1 ADD PUSH1 0x0 PUSH2 0x100 EXP DUP2 SLOAD DUP2 PUSH1 0xFF MUL NOT AND SWAP1 DUP4 ISZERO ISZERO MUL OR SWAP1 SSTORE POP PUSH1 0x40 DUP3 ADD MLOAD DUP2 PUSH1 0x1 ADD PUSH1 0x1 PUSH2 0x100 EXP DUP2 SLOAD DUP2 PUSH20 0xFFFFFFFFFFFFFFFFFFFFFFFFFFFFFFFFFFFFFFFF MUL NOT AND SWAP1 DUP4 PUSH20 0xFFFFFFFFFFFFFFFFFFFFFFFFFFFFFFFFFFFFFFFF AND MUL OR SWAP1 SSTORE POP PUSH1 0x60 DUP3 ADD MLOAD DUP2 PUSH1 0x2 ADD SSTORE POP POP POP PUSH1 0x1 PUSH1 0x6 PUSH1 0x0 CALLER PUSH20 0xFFFFFFFFFFFFFFFFFFFFFFFFFFFFFFFFFFFFFFFF AND PUSH20 0xFFFFFFFFFFFFFFFFFFFFFFFFFFFFFFFFFFFFFFFF AND DUP2 MSTORE PUSH1 0x20 ADD SWAP1 DUP2 MSTORE PUSH1 0x20 ADD PUSH1 0x0 KECCAK256 PUSH1 0x0 PUSH2 0x100 EXP DUP2 SLOAD DUP2 PUSH1 0xFF MUL NOT AND SWAP1 DUP4 ISZERO ISZERO MUL OR SWAP1 SSTORE POP POP POP POP JUMP JUMPDEST DUP3 DUP1 SLOAD PUSH1 0x1 DUP2 PUSH1 0x1 AND ISZERO PUSH2 0x100 MUL SUB AND PUSH1 0x2 SWAP1 DIV SWAP1 PUSH1 0x0 MSTORE PUSH1 0x20 PUSH1 0x0 KECCAK256 SWAP1 PUSH1 0x1F ADD PUSH1 0x20 SWAP1 DIV DUP2 ADD SWAP3 DUP3 PUSH1 0x1F LT PUSH3 0x495 JUMPI DUP1 MLOAD PUSH1 0xFF NOT AND DUP4 DUP1 ADD OR DUP6 SSTORE PUSH3 0x4C6 JUMP JUMPDEST DUP3 DUP1 ADD PUSH1 0x1 ADD DUP6 SSTORE DUP3 ISZERO PUSH3 0x4C6 JUMPI SWAP2 DUP3 ADD JUMPDEST DUP3 DUP2 GT ISZERO PUSH3 0x4C5 JUMPI DUP3 MLOAD DUP3 SSTORE SWAP2 PUSH1 0x20 ADD SWAP2 SWAP1 PUSH1 0x1 ADD SWAP1 PUSH3 0x4A8 JUMP JUMPDEST JUMPDEST POP SWAP1 POP PUSH3 0x4D5 SWAP2 SWAP1 PUSH3 0x5A0 JUMP JUMPDEST POP SWAP1 JUMP JUMPDEST PUSH1 0x40 MLOAD DUP1 PUSH1 0x80 ADD PUSH1 0x40 MSTORE DUP1 PUSH1 0x60 DUP2 MSTORE PUSH1 0x20 ADD PUSH1 0x0 ISZERO ISZERO DUP2 MSTORE PUSH1 0x20 ADD PUSH1 0x0 PUSH20 0xFFFFFFFFFFFFFFFFFFFFFFFFFFFFFFFFFFFFFFFF AND DUP2 MSTORE PUSH1 0x20 ADD PUSH1 0x0 DUP2 MSTORE POP SWAP1 JUMP JUMPDEST DUP3 DUP1 SLOAD PUSH1 0x1 DUP2 PUSH1 0x1 AND ISZERO PUSH2 0x100 MUL SUB AND PUSH1 0x2 SWAP1 DIV SWAP1 PUSH1 0x0 MSTORE PUSH1 0x20 PUSH1 0x0 KECCAK256 SWAP1 PUSH1 0x1F ADD PUSH1 0x20 SWAP1 DIV DUP2 ADD SWAP3 DUP3 PUSH1 0x1F LT PUSH3 0x55C JUMPI DUP1 MLOAD PUSH1 0xFF NOT AND DUP4 DUP1 ADD OR DUP6 SSTORE PUSH3 0x58D JUMP JUMPDEST DUP3 DUP1 ADD PUSH1 0x1 ADD DUP6 SSTORE DUP3 ISZERO PUSH3 0x58D JUMPI SWAP2 DUP3 ADD JUMPDEST DUP3 DUP2 GT ISZERO PUSH3 0x58C JUMPI DUP3 MLOAD DUP3 SSTORE SWAP2 PUSH1 0x20 ADD SWAP2 SWAP1 PUSH1 0x1 ADD SWAP1 PUSH3 0x56F JUMP JUMPDEST JUMPDEST POP SWAP1 POP PUSH3 0x59C SWAP2 SWAP1 PUSH3 0x5A0 JUMP JUMPDEST POP SWAP1 JUMP JUMPDEST PUSH3 0x5C5 SWAP2 SWAP1 JUMPDEST DUP1 DUP3 GT ISZERO PUSH3 0x5C1 JUMPI PUSH1 0x0 DUP2 PUSH1 0x0 SWAP1 SSTORE POP PUSH1 0x1 ADD PUSH3 0x5A7 JUMP JUMPDEST POP SWAP1 JUMP JUMPDEST SWAP1 JUMP JUMPDEST PUSH2 0x1E11 DUP1 PUSH3 0x5D8 PUSH1 0x0 CODECOPY PUSH1 0x0 RETURN INVALID PUSH1 0x80 PUSH1 0x40 MSTORE PUSH1 0x4 CALLDATASIZE LT PUSH2 0x140 JUMPI PUSH1 0x0 CALLDATALOAD PUSH1 0xE0 SHR DUP1 PUSH4 0x8A4D5A67 GT PUSH2 0xB6 JUMPI DUP1 PUSH4 0xC234D789 GT PUSH2 0x6F JUMPI DUP1 PUSH4 0xC234D789 EQ PUSH2 0x76F JUMPI DUP1 PUSH4 0xDC9A1535 EQ PUSH2 0x79A JUMPI DUP1 PUSH4 0xE5D00035 EQ PUSH2 0x7C9 JUMPI DUP1 PUSH4 0xF22BB5F6 EQ PUSH2 0x844 JUMPI DUP1 PUSH4 0xFA391C64 EQ PUSH2 0x85B JUMPI DUP1 PUSH4 0xFC018C05 EQ PUSH2 0x88A JUMPI PUSH2 0x140 JUMP JUMPDEST DUP1 PUSH4 0x8A4D5A67 EQ PUSH2 0x53B JUMPI DUP1 PUSH4 0x9380B1CF EQ PUSH2 0x5CB JUMPI DUP1 PUSH4 0xAEC2CCAE EQ PUSH2 0x5E2 JUMPI DUP1 PUSH4 0xB4FDF113 EQ PUSH2 0x647 JUMPI DUP1 PUSH4 0xB6B9E90A EQ PUSH2 0x719 JUMPI DUP1 PUSH4 0xB6E54BDF EQ PUSH2 0x744 JUMPI PUSH2 0x140 JUMP JUMPDEST DUP1 PUSH4 0x2B925B25 GT PUSH2 0x108 JUMPI DUP1 PUSH4 0x2B925B25 EQ PUSH2 0x40F JUMPI DUP1 PUSH4 0x2EC32E6D EQ PUSH2 0x43A JUMPI DUP1 PUSH4 0x3197CBB6 EQ PUSH2 0x465 JUMPI DUP1 PUSH4 0x44FE9432 EQ PUSH2 0x490 JUMPI DUP1 PUSH4 0x4E71D92D EQ PUSH2 0x4F9 JUMPI DUP1 PUSH4 0x6E3EBC2E EQ PUSH2 0x510 JUMPI PUSH2 0x140 JUMP JUMPDEST DUP1 PUSH4 0x121B93F EQ PUSH2 0x142 JUMPI DUP1 PUSH4 0x2D05D3F EQ PUSH2 0x170 JUMPI DUP1 PUSH4 0x715EF00 EQ PUSH2 0x1C7 JUMPI DUP1 PUSH4 0x9F74DB7 EQ PUSH2 0x29B JUMPI DUP1 PUSH4 0xA68F631 EQ PUSH2 0x316 JUMPI JUMPDEST STOP JUMPDEST PUSH2 0x16E PUSH1 0x4 DUP1 CALLDATASIZE SUB PUSH1 0x20 DUP2 LT ISZERO PUSH2 0x158 JUMPI PUSH1 0x0 DUP1 REVERT JUMPDEST DUP2 ADD SWAP1 DUP1 DUP1 CALLDATALOAD SWAP1 PUSH1 0x20 ADD SWAP1 SWAP3 SWAP2 SWAP1 POP POP POP PUSH2 0x8A1 JUMP JUMPDEST STOP JUMPDEST CALLVALUE DUP1 ISZERO PUSH2 0x17C JUMPI PUSH1 0x0 DUP1 REVERT JUMPDEST POP PUSH2 0x185 PUSH2 0xC2C JUMP JUMPDEST PUSH1 0x40 MLOAD DUP1 DUP3 PUSH20 0xFFFFFFFFFFFFFFFFFFFFFFFFFFFFFFFFFFFFFFFF AND PUSH20 0xFFFFFFFFFFFFFFFFFFFFFFFFFFFFFFFFFFFFFFFF AND DUP2 MSTORE PUSH1 0x20 ADD SWAP2 POP POP PUSH1 0x40 MLOAD DUP1 SWAP2 SUB SWAP1 RETURN JUMPDEST CALLVALUE DUP1 ISZERO PUSH2 0x1D3 JUMPI PUSH1 0x0 DUP1 REVERT JUMPDEST POP PUSH2 0x299 PUSH1 0x4 DUP1 CALLDATASIZE SUB PUSH1 0x40 DUP2 LT ISZERO PUSH2 0x1EA JUMPI PUSH1 0x0 DUP1 REVERT JUMPDEST DUP2 ADD SWAP1 DUP1 DUP1 CALLDATALOAD SWAP1 PUSH1 0x20 ADD SWAP1 PUSH5 0x100000000 DUP2 GT ISZERO PUSH2 0x207 JUMPI PUSH1 0x0 DUP1 REVERT JUMPDEST DUP3 ADD DUP4 PUSH1 0x20 DUP3 ADD GT ISZERO PUSH2 0x219 JUMPI PUSH1 0x0 DUP1 REVERT JUMPDEST DUP1 CALLDATALOAD SWAP1 PUSH1 0x20 ADD SWAP2 DUP5 PUSH1 0x1 DUP4 MUL DUP5 ADD GT PUSH5 0x100000000 DUP4 GT OR ISZERO PUSH2 0x23B JUMPI PUSH1 0x0 DUP1 REVERT JUMPDEST SWAP2 SWAP1 DUP1 DUP1 PUSH1 0x1F ADD PUSH1 0x20 DUP1 SWAP2 DIV MUL PUSH1 0x20 ADD PUSH1 0x40 MLOAD SWAP1 DUP2 ADD PUSH1 0x40 MSTORE DUP1 SWAP4 SWAP3 SWAP2 SWAP1 DUP2 DUP2 MSTORE PUSH1 0x20 ADD DUP4 DUP4 DUP1 DUP3 DUP5 CALLDATACOPY PUSH1 0x0 DUP2 DUP5 ADD MSTORE PUSH1 0x1F NOT PUSH1 0x1F DUP3 ADD AND SWAP1 POP DUP1 DUP4 ADD SWAP3 POP POP POP POP POP POP POP SWAP2 SWAP3 SWAP2 SWAP3 SWAP1 DUP1 CALLDATALOAD ISZERO ISZERO SWAP1 PUSH1 0x20 ADD SWAP1 SWAP3 SWAP2 SWAP1 POP POP POP PUSH2 0xC52 JUMP JUMPDEST STOP JUMPDEST CALLVALUE DUP1 ISZERO PUSH2 0x2A7 JUMPI PUSH1 0x0 DUP1 REVERT JUMPDEST POP PUSH2 0x2D4 PUSH1 0x4 DUP1 CALLDATASIZE SUB PUSH1 0x20 DUP2 LT ISZERO PUSH2 0x2BE JUMPI PUSH1 0x0 DUP1 REVERT JUMPDEST DUP2 ADD SWAP1 DUP1 DUP1 CALLDATALOAD SWAP1 PUSH1 0x20 ADD SWAP1 SWAP3 SWAP2 SWAP1 POP POP POP PUSH2 0xEB5 JUMP JUMPDEST PUSH1 0x40 MLOAD DUP1 DUP3 PUSH20 0xFFFFFFFFFFFFFFFFFFFFFFFFFFFFFFFFFFFFFFFF AND PUSH20 0xFFFFFFFFFFFFFFFFFFFFFFFFFFFFFFFFFFFFFFFF AND DUP2 MSTORE PUSH1 0x20 ADD SWAP2 POP POP PUSH1 0x40 MLOAD DUP1 SWAP2 SUB SWAP1 RETURN JUMPDEST CALLVALUE DUP1 ISZERO PUSH2 0x322 JUMPI PUSH1 0x0 DUP1 REVERT JUMPDEST POP PUSH2 0x34F PUSH1 0x4 DUP1 CALLDATASIZE SUB PUSH1 0x20 DUP2 LT ISZERO PUSH2 0x339 JUMPI PUSH1 0x0 DUP1 REVERT JUMPDEST DUP2 ADD SWAP1 DUP1 DUP1 CALLDATALOAD SWAP1 PUSH1 0x20 ADD SWAP1 SWAP3 SWAP2 SWAP1 POP POP POP PUSH2 0xEF1 JUMP JUMPDEST PUSH1 0x40 MLOAD DUP1 DUP1 PUSH1 0x20 ADD DUP6 ISZERO ISZERO ISZERO ISZERO DUP2 MSTORE PUSH1 0x20 ADD DUP5 PUSH20 0xFFFFFFFFFFFFFFFFFFFFFFFFFFFFFFFFFFFFFFFF AND PUSH20 0xFFFFFFFFFFFFFFFFFFFFFFFFFFFFFFFFFFFFFFFF AND DUP2 MSTORE PUSH1 0x20 ADD DUP4 DUP2 MSTORE PUSH1 0x20 ADD DUP3 DUP2 SUB DUP3 MSTORE DUP7 DUP2 DUP2 MLOAD DUP2 MSTORE PUSH1 0x20 ADD SWAP2 POP DUP1 MLOAD SWAP1 PUSH1 0x20 ADD SWAP1 DUP1 DUP4 DUP4 PUSH1 0x0 JUMPDEST DUP4 DUP2 LT ISZERO PUSH2 0x3D1 JUMPI DUP1 DUP3 ADD MLOAD DUP2 DUP5 ADD MSTORE PUSH1 0x20 DUP2 ADD SWAP1 POP PUSH2 0x3B6 JUMP JUMPDEST POP POP POP POP SWAP1 POP SWAP1 DUP2 ADD SWAP1 PUSH1 0x1F AND DUP1 ISZERO PUSH2 0x3FE JUMPI DUP1 DUP3 SUB DUP1 MLOAD PUSH1 0x1 DUP4 PUSH1 0x20 SUB PUSH2 0x100 EXP SUB NOT AND DUP2 MSTORE PUSH1 0x20 ADD SWAP2 POP JUMPDEST POP SWAP6 POP POP POP POP POP POP PUSH1 0x40 MLOAD DUP1 SWAP2 SUB SWAP1 RETURN JUMPDEST CALLVALUE DUP1 ISZERO PUSH2 0x41B JUMPI PUSH1 0x0 DUP1 REVERT JUMPDEST POP PUSH2 0x424 PUSH2 0xFF3 JUMP JUMPDEST PUSH1 0x40 MLOAD DUP1 DUP3 DUP2 MSTORE PUSH1 0x20 ADD SWAP2 POP POP PUSH1 0x40 MLOAD DUP1 SWAP2 SUB SWAP1 RETURN JUMPDEST CALLVALUE DUP1 ISZERO PUSH2 0x446 JUMPI PUSH1 0x0 DUP1 REVERT JUMPDEST POP PUSH2 0x44F PUSH2 0xFF9 JUMP JUMPDEST PUSH1 0x40 MLOAD DUP1 DUP3 DUP2 MSTORE PUSH1 0x20 ADD SWAP2 POP POP PUSH1 0x40 MLOAD DUP1 SWAP2 SUB SWAP1 RETURN JUMPDEST CALLVALUE DUP1 ISZERO PUSH2 0x471 JUMPI PUSH1 0x0 DUP1 REVERT JUMPDEST POP PUSH2 0x47A PUSH2 0x1006 JUMP JUMPDEST PUSH1 0x40 MLOAD DUP1 DUP3 DUP2 MSTORE PUSH1 0x20 ADD SWAP2 POP POP PUSH1 0x40 MLOAD DUP1 SWAP2 SUB SWAP1 RETURN JUMPDEST CALLVALUE DUP1 ISZERO PUSH2 0x49C JUMPI PUSH1 0x0 DUP1 REVERT JUMPDEST POP PUSH2 0x4DF PUSH1 0x4 DUP1 CALLDATASIZE SUB PUSH1 0x20 DUP2 LT ISZERO PUSH2 0x4B3 JUMPI PUSH1 0x0 DUP1 REVERT JUMPDEST DUP2 ADD SWAP1 DUP1 DUP1 CALLDATALOAD PUSH20 0xFFFFFFFFFFFFFFFFFFFFFFFFFFFFFFFFFFFFFFFF AND SWAP1 PUSH1 0x20 ADD SWAP1 SWAP3 SWAP2 SWAP1 POP POP POP PUSH2 0x100C JUMP JUMPDEST PUSH1 0x40 MLOAD DUP1 DUP3 ISZERO ISZERO ISZERO ISZERO DUP2 MSTORE PUSH1 0x20 ADD SWAP2 POP POP PUSH1 0x40 MLOAD DUP1 SWAP2 SUB SWAP1 RETURN JUMPDEST CALLVALUE DUP1 ISZERO PUSH2 0x505 JUMPI PUSH1 0x0 DUP1 REVERT JUMPDEST POP PUSH2 0x50E PUSH2 0x102C JUMP JUMPDEST STOP JUMPDEST CALLVALUE DUP1 ISZERO PUSH2 0x51C JUMPI PUSH1 0x0 DUP1 REVERT JUMPDEST POP PUSH2 0x525 PUSH2 0x11FF JUMP JUMPDEST PUSH1 0x40 MLOAD DUP1 DUP3 DUP2 MSTORE PUSH1 0x20 ADD SWAP2 POP POP PUSH1 0x40 MLOAD DUP1 SWAP2 SUB SWAP1 RETURN JUMPDEST CALLVALUE DUP1 ISZERO PUSH2 0x547 JUMPI PUSH1 0x0 DUP1 REVERT JUMPDEST POP PUSH2 0x550 PUSH2 0x120C JUMP JUMPDEST PUSH1 0x40 MLOAD DUP1 DUP1 PUSH1 0x20 ADD DUP3 DUP2 SUB DUP3 MSTORE DUP4 DUP2 DUP2 MLOAD DUP2 MSTORE PUSH1 0x20 ADD SWAP2 POP DUP1 MLOAD SWAP1 PUSH1 0x20 ADD SWAP1 DUP1 DUP4 DUP4 PUSH1 0x0 JUMPDEST DUP4 DUP2 LT ISZERO PUSH2 0x590 JUMPI DUP1 DUP3 ADD MLOAD DUP2 DUP5 ADD MSTORE PUSH1 0x20 DUP2 ADD SWAP1 POP PUSH2 0x575 JUMP JUMPDEST POP POP POP POP SWAP1 POP SWAP1 DUP2 ADD SWAP1 PUSH1 0x1F AND DUP1 ISZERO PUSH2 0x5BD JUMPI DUP1 DUP3 SUB DUP1 MLOAD PUSH1 0x1 DUP4 PUSH1 0x20 SUB PUSH2 0x100 EXP SUB NOT AND DUP2 MSTORE PUSH1 0x20 ADD SWAP2 POP JUMPDEST POP SWAP3 POP POP POP PUSH1 0x40 MLOAD DUP1 SWAP2 SUB SWAP1 RETURN JUMPDEST CALLVALUE DUP1 ISZERO PUSH2 0x5D7 JUMPI PUSH1 0x0 DUP1 REVERT JUMPDEST POP PUSH2 0x5E0 PUSH2 0x12AA JUMP JUMPDEST STOP JUMPDEST CALLVALUE DUP1 ISZERO PUSH2 0x5EE JUMPI PUSH1 0x0 DUP1 REVERT JUMPDEST POP PUSH2 0x631 PUSH1 0x4 DUP1 CALLDATASIZE SUB PUSH1 0x20 DUP2 LT ISZERO PUSH2 0x605 JUMPI PUSH1 0x0 DUP1 REVERT JUMPDEST DUP2 ADD SWAP1 DUP1 DUP1 CALLDATALOAD PUSH20 0xFFFFFFFFFFFFFFFFFFFFFFFFFFFFFFFFFFFFFFFF AND SWAP1 PUSH1 0x20 ADD SWAP1 SWAP3 SWAP2 SWAP1 POP POP POP PUSH2 0x1473 JUMP JUMPDEST PUSH1 0x40 MLOAD DUP1 DUP3 DUP2 MSTORE PUSH1 0x20 ADD SWAP2 POP POP PUSH1 0x40 MLOAD DUP1 SWAP2 SUB SWAP1 RETURN JUMPDEST CALLVALUE DUP1 ISZERO PUSH2 0x653 JUMPI PUSH1 0x0 DUP1 REVERT JUMPDEST POP PUSH2 0x717 PUSH1 0x4 DUP1 CALLDATASIZE SUB PUSH1 0x40 DUP2 LT ISZERO PUSH2 0x66A JUMPI PUSH1 0x0 DUP1 REVERT JUMPDEST DUP2 ADD SWAP1 DUP1 DUP1 CALLDATALOAD SWAP1 PUSH1 0x20 ADD SWAP1 SWAP3 SWAP2 SWAP1 DUP1 CALLDATALOAD SWAP1 PUSH1 0x20 ADD SWAP1 PUSH5 0x100000000 DUP2 GT ISZERO PUSH2 0x691 JUMPI PUSH1 0x0 DUP1 REVERT JUMPDEST DUP3 ADD DUP4 PUSH1 0x20 DUP3 ADD GT ISZERO PUSH2 0x6A3 JUMPI PUSH1 0x0 DUP1 REVERT JUMPDEST DUP1 CALLDATALOAD SWAP1 PUSH1 0x20 ADD SWAP2 DUP5 PUSH1 0x1 DUP4 MUL DUP5 ADD GT PUSH5 0x100000000 DUP4 GT OR ISZERO PUSH2 0x6C5 JUMPI PUSH1 0x0 DUP1 REVERT JUMPDEST SWAP2 SWAP1 DUP1 DUP1 PUSH1 0x1F ADD PUSH1 0x20 DUP1 SWAP2 DIV MUL PUSH1 0x20 ADD PUSH1 0x40 MLOAD SWAP1 DUP2 ADD PUSH1 0x40 MSTORE DUP1 SWAP4 SWAP3 SWAP2 SWAP1 DUP2 DUP2 MSTORE PUSH1 0x20 ADD DUP4 DUP4 DUP1 DUP3 DUP5 CALLDATACOPY PUSH1 0x0 DUP2 DUP5 ADD MSTORE PUSH1 0x1F NOT PUSH1 0x1F DUP3 ADD AND SWAP1 POP DUP1 DUP4 ADD SWAP3 POP POP POP POP POP POP POP SWAP2 SWAP3 SWAP2 SWAP3 SWAP1 POP POP POP PUSH2 0x148B JUMP JUMPDEST STOP JUMPDEST CALLVALUE DUP1 ISZERO PUSH2 0x725 JUMPI PUSH1 0x0 DUP1 REVERT JUMPDEST POP PUSH2 0x72E PUSH2 0x1636 JUMP JUMPDEST PUSH1 0x40 MLOAD DUP1 DUP3 DUP2 MSTORE PUSH1 0x20 ADD SWAP2 POP POP PUSH1 0x40 MLOAD DUP1 SWAP2 SUB SWAP1 RETURN JUMPDEST CALLVALUE DUP1 ISZERO PUSH2 0x750 JUMPI PUSH1 0x0 DUP1 REVERT JUMPDEST POP PUSH2 0x759 PUSH2 0x163C JUMP JUMPDEST PUSH1 0x40 MLOAD DUP1 DUP3 DUP2 MSTORE PUSH1 0x20 ADD SWAP2 POP POP PUSH1 0x40 MLOAD DUP1 SWAP2 SUB SWAP1 RETURN JUMPDEST CALLVALUE DUP1 ISZERO PUSH2 0x77B JUMPI PUSH1 0x0 DUP1 REVERT JUMPDEST POP PUSH2 0x784 PUSH2 0x1642 JUMP JUMPDEST PUSH1 0x40 MLOAD DUP1 DUP3 DUP2 MSTORE PUSH1 0x20 ADD SWAP2 POP POP PUSH1 0x40 MLOAD DUP1 SWAP2 SUB SWAP1 RETURN JUMPDEST CALLVALUE DUP1 ISZERO PUSH2 0x7A6 JUMPI PUSH1 0x0 DUP1 REVERT JUMPDEST POP PUSH2 0x7AF PUSH2 0x164F JUMP JUMPDEST PUSH1 0x40 MLOAD DUP1 DUP3 ISZERO ISZERO ISZERO ISZERO DUP2 MSTORE PUSH1 0x20 ADD SWAP2 POP POP PUSH1 0x40 MLOAD DUP1 SWAP2 SUB SWAP1 RETURN JUMPDEST CALLVALUE DUP1 ISZERO PUSH2 0x7D5 JUMPI PUSH1 0x0 DUP1 REVERT JUMPDEST POP PUSH2 0x802 PUSH1 0x4 DUP1 CALLDATASIZE SUB PUSH1 0x20 DUP2 LT ISZERO PUSH2 0x7EC JUMPI PUSH1 0x0 DUP1 REVERT JUMPDEST DUP2 ADD SWAP1 DUP1 DUP1 CALLDATALOAD SWAP1 PUSH1 0x20 ADD SWAP1 SWAP3 SWAP2 SWAP1 POP POP POP PUSH2 0x1662 JUMP JUMPDEST PUSH1 0x40 MLOAD DUP1 DUP3 PUSH20 0xFFFFFFFFFFFFFFFFFFFFFFFFFFFFFFFFFFFFFFFF AND PUSH20 0xFFFFFFFFFFFFFFFFFFFFFFFFFFFFFFFFFFFFFFFF AND DUP2 MSTORE PUSH1 0x20 ADD SWAP2 POP POP PUSH1 0x40 MLOAD DUP1 SWAP2 SUB SWAP1 RETURN JUMPDEST CALLVALUE DUP1 ISZERO PUSH2 0x850 JUMPI PUSH1 0x0 DUP1 REVERT JUMPDEST POP PUSH2 0x859 PUSH2 0x169E JUMP JUMPDEST STOP JUMPDEST CALLVALUE DUP1 ISZERO PUSH2 0x867 JUMPI PUSH1 0x0 DUP1 REVERT JUMPDEST POP PUSH2 0x870 PUSH2 0x1862 JUMP JUMPDEST PUSH1 0x40 MLOAD DUP1 DUP3 ISZERO ISZERO ISZERO ISZERO DUP2 MSTORE PUSH1 0x20 ADD SWAP2 POP POP PUSH1 0x40 MLOAD DUP1 SWAP2 SUB SWAP1 RETURN JUMPDEST CALLVALUE DUP1 ISZERO PUSH2 0x896 JUMPI PUSH1 0x0 DUP1 REVERT JUMPDEST POP PUSH2 0x89F PUSH2 0x1875 JUMP JUMPDEST STOP JUMPDEST PUSH1 0x3 SLOAD TIMESTAMP LT PUSH2 0x8FB JUMPI PUSH1 0x40 MLOAD PUSH32 0x8C379A000000000000000000000000000000000000000000000000000000000 DUP2 MSTORE PUSH1 0x4 ADD DUP1 DUP1 PUSH1 0x20 ADD DUP3 DUP2 SUB DUP3 MSTORE PUSH1 0x2B DUP2 MSTORE PUSH1 0x20 ADD DUP1 PUSH2 0x1CDB PUSH1 0x2B SWAP2 CODECOPY PUSH1 0x40 ADD SWAP2 POP POP PUSH1 0x40 MLOAD DUP1 SWAP2 SUB SWAP1 REVERT JUMPDEST PUSH1 0x1 ISZERO ISZERO PUSH1 0x1 PUSH1 0x14 SWAP1 SLOAD SWAP1 PUSH2 0x100 EXP SWAP1 DIV PUSH1 0xFF AND ISZERO ISZERO EQ PUSH2 0x967 JUMPI PUSH1 0x40 MLOAD PUSH32 0x8C379A000000000000000000000000000000000000000000000000000000000 DUP2 MSTORE PUSH1 0x4 ADD DUP1 DUP1 PUSH1 0x20 ADD DUP3 DUP2 SUB DUP3 MSTORE PUSH1 0x36 DUP2 MSTORE PUSH1 0x20 ADD DUP1 PUSH2 0x1AF7 PUSH1 0x36 SWAP2 CODECOPY PUSH1 0x40 ADD SWAP2 POP POP PUSH1 0x40 MLOAD DUP1 SWAP2 SUB SWAP1 REVERT JUMPDEST PUSH1 0x0 DUP2 EQ ISZERO PUSH2 0x9C1 JUMPI PUSH1 0x40 MLOAD PUSH32 0x8C379A000000000000000000000000000000000000000000000000000000000 DUP2 MSTORE PUSH1 0x4 ADD DUP1 DUP1 PUSH1 0x20 ADD DUP3 DUP2 SUB DUP3 MSTORE PUSH1 0x3B DUP2 MSTORE PUSH1 0x20 ADD DUP1 PUSH2 0x1D06 PUSH1 0x3B SWAP2 CODECOPY PUSH1 0x40 ADD SWAP2 POP POP PUSH1 0x40 MLOAD DUP1 SWAP2 SUB SWAP1 REVERT JUMPDEST PUSH1 0x0 PUSH1 0x5 PUSH1 0x0 CALLER PUSH20 0xFFFFFFFFFFFFFFFFFFFFFFFFFFFFFFFFFFFFFFFF AND PUSH20 0xFFFFFFFFFFFFFFFFFFFFFFFFFFFFFFFFFFFFFFFF AND DUP2 MSTORE PUSH1 0x20 ADD SWAP1 DUP2 MSTORE PUSH1 0x20 ADD PUSH1 0x0 KECCAK256 SLOAD EQ PUSH2 0xA59 JUMPI PUSH1 0x40 MLOAD PUSH32 0x8C379A000000000000000000000000000000000000000000000000000000000 DUP2 MSTORE PUSH1 0x4 ADD DUP1 DUP1 PUSH1 0x20 ADD DUP3 DUP2 SUB DUP3 MSTORE PUSH1 0x35 DUP2 MSTORE PUSH1 0x20 ADD DUP1 PUSH2 0x1DA8 PUSH1 0x35 SWAP2 CODECOPY PUSH1 0x40 ADD SWAP2 POP POP PUSH1 0x40 MLOAD DUP1 SWAP2 SUB SWAP1 REVERT JUMPDEST PUSH1 0x2 SLOAD CALLVALUE LT ISZERO PUSH2 0xAB4 JUMPI PUSH1 0x40 MLOAD PUSH32 0x8C379A000000000000000000000000000000000000000000000000000000000 DUP2 MSTORE PUSH1 0x4 ADD DUP1 DUP1 PUSH1 0x20 ADD DUP3 DUP2 SUB DUP3 MSTORE PUSH1 0x45 DUP2 MSTORE PUSH1 0x20 ADD DUP1 PUSH2 0x1D63 PUSH1 0x45 SWAP2 CODECOPY PUSH1 0x60 ADD SWAP2 POP POP PUSH1 0x40 MLOAD DUP1 SWAP2 SUB SWAP1 REVERT JUMPDEST DUP1 PUSH1 0x5 PUSH1 0x0 CALLER PUSH20 0xFFFFFFFFFFFFFFFFFFFFFFFFFFFFFFFFFFFFFFFF AND PUSH20 0xFFFFFFFFFFFFFFFFFFFFFFFFFFFFFFFFFFFFFFFF AND DUP2 MSTORE PUSH1 0x20 ADD SWAP1 DUP2 MSTORE PUSH1 0x20 ADD PUSH1 0x0 KECCAK256 DUP2 SWAP1 SSTORE POP PUSH1 0x4 DUP2 DUP2 SLOAD DUP2 LT PUSH2 0xB05 JUMPI INVALID JUMPDEST SWAP1 PUSH1 0x0 MSTORE PUSH1 0x20 PUSH1 0x0 KECCAK256 SWAP1 PUSH1 0x3 MUL ADD PUSH1 0x2 ADD PUSH1 0x0 DUP2 SLOAD DUP1 SWAP3 SWAP2 SWAP1 PUSH1 0x1 ADD SWAP2 SWAP1 POP SSTORE POP PUSH1 0x4 DUP2 DUP2 SLOAD DUP2 LT PUSH2 0xB33 JUMPI INVALID JUMPDEST SWAP1 PUSH1 0x0 MSTORE PUSH1 0x20 PUSH1 0x0 KECCAK256 SWAP1 PUSH1 0x3 MUL ADD PUSH1 0x1 ADD PUSH1 0x0 SWAP1 SLOAD SWAP1 PUSH2 0x100 EXP SWAP1 DIV PUSH1 0xFF AND ISZERO PUSH2 0xBC2 JUMPI PUSH1 0x7 CALLER SWAP1 DUP1 PUSH1 0x1 DUP2 SLOAD ADD DUP1 DUP3 SSTORE DUP1 SWAP2 POP POP SWAP1 PUSH1 0x1 DUP3 SUB SWAP1 PUSH1 0x0 MSTORE PUSH1 0x20 PUSH1 0x0 KECCAK256 ADD PUSH1 0x0 SWAP1 SWAP2 SWAP3 SWAP1 SWAP2 SWAP1 SWAP2 PUSH2 0x100 EXP DUP2 SLOAD DUP2 PUSH20 0xFFFFFFFFFFFFFFFFFFFFFFFFFFFFFFFFFFFFFFFF MUL NOT AND SWAP1 DUP4 PUSH20 0xFFFFFFFFFFFFFFFFFFFFFFFFFFFFFFFFFFFFFFFF AND MUL OR SWAP1 SSTORE POP POP PUSH2 0xC29 JUMP JUMPDEST PUSH1 0x8 CALLER SWAP1 DUP1 PUSH1 0x1 DUP2 SLOAD ADD DUP1 DUP3 SSTORE DUP1 SWAP2 POP POP SWAP1 PUSH1 0x1 DUP3 SUB SWAP1 PUSH1 0x0 MSTORE PUSH1 0x20 PUSH1 0x0 KECCAK256 ADD PUSH1 0x0 SWAP1 SWAP2 SWAP3 SWAP1 SWAP2 SWAP1 SWAP2 PUSH2 0x100 EXP DUP2 SLOAD DUP2 PUSH20 0xFFFFFFFFFFFFFFFFFFFFFFFFFFFFFFFFFFFFFFFF MUL NOT AND SWAP1 DUP4 PUSH20 0xFFFFFFFFFFFFFFFFFFFFFFFFFFFFFFFFFFFFFFFF AND MUL OR SWAP1 SSTORE POP POP JUMPDEST POP JUMP JUMPDEST PUSH1 0x1 PUSH1 0x0 SWAP1 SLOAD SWAP1 PUSH2 0x100 EXP SWAP1 DIV PUSH20 0xFFFFFFFFFFFFFFFFFFFFFFFFFFFFFFFFFFFFFFFF AND DUP2 JUMP JUMPDEST PUSH1 0x3 SLOAD TIMESTAMP LT PUSH2 0xCAC JUMPI PUSH1 0x40 MLOAD PUSH32 0x8C379A000000000000000000000000000000000000000000000000000000000 DUP2 MSTORE PUSH1 0x4 ADD DUP1 DUP1 PUSH1 0x20 ADD DUP3 DUP2 SUB DUP3 MSTORE PUSH1 0x2B DUP2 MSTORE PUSH1 0x20 ADD DUP1 PUSH2 0x1CDB PUSH1 0x2B SWAP2 CODECOPY PUSH1 0x40 ADD SWAP2 POP POP PUSH1 0x40 MLOAD DUP1 SWAP2 SUB SWAP1 REVERT JUMPDEST PUSH1 0x0 ISZERO ISZERO PUSH1 0x6 PUSH1 0x0 CALLER PUSH20 0xFFFFFFFFFFFFFFFFFFFFFFFFFFFFFFFFFFFFFFFF AND PUSH20 0xFFFFFFFFFFFFFFFFFFFFFFFFFFFFFFFFFFFFFFFF AND DUP2 MSTORE PUSH1 0x20 ADD SWAP1 DUP2 MSTORE PUSH1 0x20 ADD PUSH1 0x0 KECCAK256 PUSH1 0x0 SWAP1 SLOAD SWAP1 PUSH2 0x100 EXP SWAP1 DIV PUSH1 0xFF AND ISZERO ISZERO EQ PUSH2 0xD55 JUMPI PUSH1 0x40 MLOAD PUSH32 0x8C379A000000000000000000000000000000000000000000000000000000000 DUP2 MSTORE PUSH1 0x4 ADD DUP1 DUP1 PUSH1 0x20 ADD DUP3 DUP2 SUB DUP3 MSTORE PUSH1 0x25 DUP2 MSTORE PUSH1 0x20 ADD DUP1 PUSH2 0x1C7C PUSH1 0x25 SWAP2 CODECOPY PUSH1 0x40 ADD SWAP2 POP POP PUSH1 0x40 MLOAD DUP1 SWAP2 SUB SWAP1 REVERT JUMPDEST PUSH2 0xD5D PUSH2 0x1991 JUMP JUMPDEST PUSH1 0x40 MLOAD DUP1 PUSH1 0x80 ADD PUSH1 0x40 MSTORE DUP1 DUP5 DUP2 MSTORE PUSH1 0x20 ADD DUP4 ISZERO ISZERO DUP2 MSTORE PUSH1 0x20 ADD CALLER PUSH20 0xFFFFFFFFFFFFFFFFFFFFFFFFFFFFFFFFFFFFFFFF AND DUP2 MSTORE PUSH1 0x20 ADD PUSH1 0x0 DUP2 MSTORE POP SWAP1 POP PUSH1 0x4 DUP2 SWAP1 DUP1 PUSH1 0x1 DUP2 SLOAD ADD DUP1 DUP3 SSTORE DUP1 SWAP2 POP POP SWAP1 PUSH1 0x1 DUP3 SUB SWAP1 PUSH1 0x0 MSTORE PUSH1 0x20 PUSH1 0x0 KECCAK256 SWAP1 PUSH1 0x3 MUL ADD PUSH1 0x0 SWAP1 SWAP2 SWAP3 SWAP1 SWAP2 SWAP1 SWAP2 POP PUSH1 0x0 DUP3 ADD MLOAD DUP2 PUSH1 0x0 ADD SWAP1 DUP1 MLOAD SWAP1 PUSH1 0x20 ADD SWAP1 PUSH2 0xDE3 SWAP3 SWAP2 SWAP1 PUSH2 0x19D1 JUMP JUMPDEST POP PUSH1 0x20 DUP3 ADD MLOAD DUP2 PUSH1 0x1 ADD PUSH1 0x0 PUSH2 0x100 EXP DUP2 SLOAD DUP2 PUSH1 0xFF MUL NOT AND SWAP1 DUP4 ISZERO ISZERO MUL OR SWAP1 SSTORE POP PUSH1 0x40 DUP3 ADD MLOAD DUP2 PUSH1 0x1 ADD PUSH1 0x1 PUSH2 0x100 EXP DUP2 SLOAD DUP2 PUSH20 0xFFFFFFFFFFFFFFFFFFFFFFFFFFFFFFFFFFFFFFFF MUL NOT AND SWAP1 DUP4 PUSH20 0xFFFFFFFFFFFFFFFFFFFFFFFFFFFFFFFFFFFFFFFF AND MUL OR SWAP1 SSTORE POP PUSH1 0x60 DUP3 ADD MLOAD DUP2 PUSH1 0x2 ADD SSTORE POP POP POP PUSH1 0x1 PUSH1 0x6 PUSH1 0x0 CALLER PUSH20 0xFFFFFFFFFFFFFFFFFFFFFFFFFFFFFFFFFFFFFFFF AND PUSH20 0xFFFFFFFFFFFFFFFFFFFFFFFFFFFFFFFFFFFFFFFF AND DUP2 MSTORE PUSH1 0x20 ADD SWAP1 DUP2 MSTORE PUSH1 0x20 ADD PUSH1 0x0 KECCAK256 PUSH1 0x0 PUSH2 0x100 EXP DUP2 SLOAD DUP2 PUSH1 0xFF MUL NOT AND SWAP1 DUP4 ISZERO ISZERO MUL OR SWAP1 SSTORE POP POP POP POP JUMP JUMPDEST PUSH1 0x8 DUP2 DUP2 SLOAD DUP2 LT PUSH2 0xEC2 JUMPI INVALID JUMPDEST SWAP1 PUSH1 0x0 MSTORE PUSH1 0x20 PUSH1 0x0 KECCAK256 ADD PUSH1 0x0 SWAP2 POP SLOAD SWAP1 PUSH2 0x100 EXP SWAP1 DIV PUSH20 0xFFFFFFFFFFFFFFFFFFFFFFFFFFFFFFFFFFFFFFFF AND DUP2 JUMP JUMPDEST PUSH1 0x4 DUP2 DUP2 SLOAD DUP2 LT PUSH2 0xEFE JUMPI INVALID JUMPDEST SWAP1 PUSH1 0x0 MSTORE PUSH1 0x20 PUSH1 0x0 KECCAK256 SWAP1 PUSH1 0x3 MUL ADD PUSH1 0x0 SWAP2 POP SWAP1 POP DUP1 PUSH1 0x0 ADD DUP1 SLOAD PUSH1 0x1 DUP2 PUSH1 0x1 AND ISZERO PUSH2 0x100 MUL SUB AND PUSH1 0x2 SWAP1 DIV DUP1 PUSH1 0x1F ADD PUSH1 0x20 DUP1 SWAP2 DIV MUL PUSH1 0x20 ADD PUSH1 0x40 MLOAD SWAP1 DUP2 ADD PUSH1 0x40 MSTORE DUP1 SWAP3 SWAP2 SWAP1 DUP2 DUP2 MSTORE PUSH1 0x20 ADD DUP3 DUP1 SLOAD PUSH1 0x1 DUP2 PUSH1 0x1 AND ISZERO PUSH2 0x100 MUL SUB AND PUSH1 0x2 SWAP1 DIV DUP1 ISZERO PUSH2 0xFAA JUMPI DUP1 PUSH1 0x1F LT PUSH2 0xF7F JUMPI PUSH2 0x100 DUP1 DUP4 SLOAD DIV MUL DUP4 MSTORE SWAP2 PUSH1 0x20 ADD SWAP2 PUSH2 0xFAA JUMP JUMPDEST DUP3 ADD SWAP2 SWAP1 PUSH1 0x0 MSTORE PUSH1 0x20 PUSH1 0x0 KECCAK256 SWAP1 JUMPDEST DUP2 SLOAD DUP2 MSTORE SWAP1 PUSH1 0x1 ADD SWAP1 PUSH1 0x20 ADD DUP1 DUP4 GT PUSH2 0xF8D JUMPI DUP3 SWAP1 SUB PUSH1 0x1F AND DUP3 ADD SWAP2 JUMPDEST POP POP POP POP POP SWAP1 DUP1 PUSH1 0x1 ADD PUSH1 0x0 SWAP1 SLOAD SWAP1 PUSH2 0x100 EXP SWAP1 DIV PUSH1 0xFF AND SWAP1 DUP1 PUSH1 0x1 ADD PUSH1 0x1 SWAP1 SLOAD SWAP1 PUSH2 0x100 EXP SWAP1 DIV PUSH20 0xFFFFFFFFFFFFFFFFFFFFFFFFFFFFFFFFFFFFFFFF AND SWAP1 DUP1 PUSH1 0x2 ADD SLOAD SWAP1 POP DUP5 JUMP JUMPDEST PUSH1 0x2 SLOAD DUP2 JUMP JUMPDEST PUSH1 0x0 PUSH1 0x7 DUP1 SLOAD SWAP1 POP SWAP1 POP SWAP1 JUMP JUMPDEST PUSH1 0x3 SLOAD DUP2 JUMP JUMPDEST PUSH1 0x6 PUSH1 0x20 MSTORE DUP1 PUSH1 0x0 MSTORE PUSH1 0x40 PUSH1 0x0 KECCAK256 PUSH1 0x0 SWAP2 POP SLOAD SWAP1 PUSH2 0x100 EXP SWAP1 DIV PUSH1 0xFF AND DUP2 JUMP JUMPDEST PUSH1 0x3 SLOAD TIMESTAMP GT PUSH2 0x1086 JUMPI PUSH1 0x40 MLOAD PUSH32 0x8C379A000000000000000000000000000000000000000000000000000000000 DUP2 MSTORE PUSH1 0x4 ADD DUP1 DUP1 PUSH1 0x20 ADD DUP3 DUP2 SUB DUP3 MSTORE PUSH1 0x36 DUP2 MSTORE PUSH1 0x20 ADD DUP1 PUSH2 0x1B65 PUSH1 0x36 SWAP2 CODECOPY PUSH1 0x40 ADD SWAP2 POP POP PUSH1 0x40 MLOAD DUP1 SWAP2 SUB SWAP1 REVERT JUMPDEST PUSH1 0x0 PUSH1 0x5 PUSH1 0x0 CALLER PUSH20 0xFFFFFFFFFFFFFFFFFFFFFFFFFFFFFFFFFFFFFFFF AND PUSH20 0xFFFFFFFFFFFFFFFFFFFFFFFFFFFFFFFFFFFFFFFF AND DUP2 MSTORE PUSH1 0x20 ADD SWAP1 DUP2 MSTORE PUSH1 0x20 ADD PUSH1 0x0 KECCAK256 SLOAD SWAP1 POP PUSH1 0x0 DUP2 EQ ISZERO PUSH2 0x1124 JUMPI PUSH1 0x40 MLOAD PUSH32 0x8C379A000000000000000000000000000000000000000000000000000000000 DUP2 MSTORE PUSH1 0x4 ADD DUP1 DUP1 PUSH1 0x20 ADD DUP3 DUP2 SUB DUP3 MSTORE PUSH1 0x38 DUP2 MSTORE PUSH1 0x20 ADD DUP1 PUSH2 0x1B2D PUSH1 0x38 SWAP2 CODECOPY PUSH1 0x40 ADD SWAP2 POP POP PUSH1 0x40 MLOAD DUP1 SWAP2 SUB SWAP1 REVERT JUMPDEST PUSH1 0x0 PUSH1 0x4 DUP3 DUP2 SLOAD DUP2 LT PUSH2 0x1133 JUMPI INVALID JUMPDEST SWAP1 PUSH1 0x0 MSTORE PUSH1 0x20 PUSH1 0x0 KECCAK256 SWAP1 PUSH1 0x3 MUL ADD SWAP1 POP PUSH1 0x0 PUSH1 0xA SLOAD EQ ISZERO PUSH2 0x1157 JUMPI PUSH2 0x1156 PUSH2 0x169E JUMP JUMPDEST JUMPDEST PUSH1 0x1 PUSH1 0xA SLOAD EQ DUP1 ISZERO PUSH2 0x1177 JUMPI POP DUP1 PUSH1 0x1 ADD PUSH1 0x0 SWAP1 SLOAD SWAP1 PUSH2 0x100 EXP SWAP1 DIV PUSH1 0xFF AND JUMPDEST DUP1 PUSH2 0x119F JUMPI POP PUSH1 0x2 PUSH1 0xA SLOAD EQ DUP1 ISZERO PUSH2 0x119E JUMPI POP DUP1 PUSH1 0x1 ADD PUSH1 0x0 SWAP1 SLOAD SWAP1 PUSH2 0x100 EXP SWAP1 DIV PUSH1 0xFF AND ISZERO JUMPDEST JUMPDEST DUP1 PUSH2 0x11AC JUMPI POP PUSH1 0x3 PUSH1 0xA SLOAD EQ JUMPDEST ISZERO PUSH2 0x11FB JUMPI CALLER PUSH20 0xFFFFFFFFFFFFFFFFFFFFFFFFFFFFFFFFFFFFFFFF AND PUSH2 0x8FC PUSH1 0xB SLOAD SWAP1 DUP2 ISZERO MUL SWAP1 PUSH1 0x40 MLOAD PUSH1 0x0 PUSH1 0x40 MLOAD DUP1 DUP4 SUB DUP2 DUP6 DUP9 DUP9 CALL SWAP4 POP POP POP POP ISZERO DUP1 ISZERO PUSH2 0x11F9 JUMPI RETURNDATASIZE PUSH1 0x0 DUP1 RETURNDATACOPY RETURNDATASIZE PUSH1 0x0 REVERT JUMPDEST POP JUMPDEST POP POP JUMP JUMPDEST PUSH1 0x0 PUSH1 0x8 DUP1 SLOAD SWAP1 POP SWAP1 POP SWAP1 JUMP JUMPDEST PUSH1 0x0 DUP1 SLOAD PUSH1 0x1 DUP2 PUSH1 0x1 AND ISZERO PUSH2 0x100 MUL SUB AND PUSH1 0x2 SWAP1 DIV DUP1 PUSH1 0x1F ADD PUSH1 0x20 DUP1 SWAP2 DIV MUL PUSH1 0x20 ADD PUSH1 0x40 MLOAD SWAP1 DUP2 ADD PUSH1 0x40 MSTORE DUP1 SWAP3 SWAP2 SWAP1 DUP2 DUP2 MSTORE PUSH1 0x20 ADD DUP3 DUP1 SLOAD PUSH1 0x1 DUP2 PUSH1 0x1 AND ISZERO PUSH2 0x100 MUL SUB AND PUSH1 0x2 SWAP1 DIV DUP1 ISZERO PUSH2 0x12A2 JUMPI DUP1 PUSH1 0x1F LT PUSH2 0x1277 JUMPI PUSH2 0x100 DUP1 DUP4 SLOAD DIV MUL DUP4 MSTORE SWAP2 PUSH1 0x20 ADD SWAP2 PUSH2 0x12A2 JUMP JUMPDEST DUP3 ADD SWAP2 SWAP1 PUSH1 0x0 MSTORE PUSH1 0x20 PUSH1 0x0 KECCAK256 SWAP1 JUMPDEST DUP2 SLOAD DUP2 MSTORE SWAP1 PUSH1 0x1 ADD SWAP1 PUSH1 0x20 ADD DUP1 DUP4 GT PUSH2 0x1285 JUMPI DUP3 SWAP1 SUB PUSH1 0x1F AND DUP3 ADD SWAP2 JUMPDEST POP POP POP POP POP DUP2 JUMP JUMPDEST PUSH1 0x1 PUSH1 0x0 SWAP1 SLOAD SWAP1 PUSH2 0x100 EXP SWAP1 DIV PUSH20 0xFFFFFFFFFFFFFFFFFFFFFFFFFFFFFFFFFFFFFFFF AND PUSH20 0xFFFFFFFFFFFFFFFFFFFFFFFFFFFFFFFFFFFFFFFF AND CALLER PUSH20 0xFFFFFFFFFFFFFFFFFFFFFFFFFFFFFFFFFFFFFFFF AND EQ PUSH2 0x1350 JUMPI PUSH1 0x40 MLOAD PUSH32 0x8C379A000000000000000000000000000000000000000000000000000000000 DUP2 MSTORE PUSH1 0x4 ADD DUP1 DUP1 PUSH1 0x20 ADD DUP3 DUP2 SUB DUP3 MSTORE PUSH1 0x3A DUP2 MSTORE PUSH1 0x20 ADD DUP1 PUSH2 0x1CA1 PUSH1 0x3A SWAP2 CODECOPY PUSH1 0x40 ADD SWAP2 POP POP PUSH1 0x40 MLOAD DUP1 SWAP2 SUB SWAP1 REVERT JUMPDEST PUSH1 0x0 PUSH2 0x135A PUSH2 0x11FF JUMP JUMPDEST PUSH2 0x1362 PUSH2 0xFF9 JUMP JUMPDEST ADD EQ PUSH2 0x13B9 JUMPI PUSH1 0x40 MLOAD PUSH32 0x8C379A000000000000000000000000000000000000000000000000000000000 DUP2 MSTORE PUSH1 0x4 ADD DUP1 DUP1 PUSH1 0x20 ADD DUP3 DUP2 SUB DUP3 MSTORE PUSH1 0x3D DUP2 MSTORE PUSH1 0x20 ADD DUP1 PUSH2 0x1BDA PUSH1 0x3D SWAP2 CODECOPY PUSH1 0x40 ADD SWAP2 POP POP PUSH1 0x40 MLOAD DUP1 SWAP2 SUB SWAP1 REVERT JUMPDEST PUSH1 0x3 SLOAD TIMESTAMP GT PUSH2 0x1413 JUMPI PUSH1 0x40 MLOAD PUSH32 0x8C379A000000000000000000000000000000000000000000000000000000000 DUP2 MSTORE PUSH1 0x4 ADD DUP1 DUP1 PUSH1 0x20 ADD DUP3 DUP2 SUB DUP3 MSTORE PUSH1 0x36 DUP2 MSTORE PUSH1 0x20 ADD DUP1 PUSH2 0x1B65 PUSH1 0x36 SWAP2 CODECOPY PUSH1 0x40 ADD SWAP2 POP POP PUSH1 0x40 MLOAD DUP1 SWAP2 SUB SWAP1 REVERT JUMPDEST CALLER PUSH20 0xFFFFFFFFFFFFFFFFFFFFFFFFFFFFFFFFFFFFFFFF AND PUSH2 0x8FC ADDRESS PUSH20 0xFFFFFFFFFFFFFFFFFFFFFFFFFFFFFFFFFFFFFFFF AND BALANCE SWAP1 DUP2 ISZERO MUL SWAP1 PUSH1 0x40 MLOAD PUSH1 0x0 PUSH1 0x40 MLOAD DUP1 DUP4 SUB DUP2 DUP6 DUP9 DUP9 CALL SWAP4 POP POP POP POP ISZERO DUP1 ISZERO PUSH2 0x1470 JUMPI RETURNDATASIZE PUSH1 0x0 DUP1 RETURNDATACOPY RETURNDATASIZE PUSH1 0x0 REVERT JUMPDEST POP JUMP JUMPDEST PUSH1 0x5 PUSH1 0x20 MSTORE DUP1 PUSH1 0x0 MSTORE PUSH1 0x40 PUSH1 0x0 KECCAK256 PUSH1 0x0 SWAP2 POP SWAP1 POP SLOAD DUP2 JUMP JUMPDEST PUSH1 0x3 SLOAD TIMESTAMP LT PUSH2 0x14E5 JUMPI PUSH1 0x40 MLOAD PUSH32 0x8C379A000000000000000000000000000000000000000000000000000000000 DUP2 MSTORE PUSH1 0x4 ADD DUP1 DUP1 PUSH1 0x20 ADD DUP3 DUP2 SUB DUP3 MSTORE PUSH1 0x2B DUP2 MSTORE PUSH1 0x20 ADD DUP1 PUSH2 0x1CDB PUSH1 0x2B SWAP2 CODECOPY PUSH1 0x40 ADD SWAP2 POP POP PUSH1 0x40 MLOAD DUP1 SWAP2 SUB SWAP1 REVERT JUMPDEST PUSH1 0x1 ISZERO ISZERO PUSH1 0x1 PUSH1 0x14 SWAP1 SLOAD SWAP1 PUSH2 0x100 EXP SWAP1 DIV PUSH1 0xFF AND ISZERO ISZERO EQ PUSH2 0x1551 JUMPI PUSH1 0x40 MLOAD PUSH32 0x8C379A000000000000000000000000000000000000000000000000000000000 DUP2 MSTORE PUSH1 0x4 ADD DUP1 DUP1 PUSH1 0x20 ADD DUP3 DUP2 SUB DUP3 MSTORE PUSH1 0x36 DUP2 MSTORE PUSH1 0x20 ADD DUP1 PUSH2 0x1AF7 PUSH1 0x36 SWAP2 CODECOPY PUSH1 0x40 ADD SWAP2 POP POP PUSH1 0x40 MLOAD DUP1 SWAP2 SUB SWAP1 REVERT JUMPDEST PUSH1 0x0 PUSH1 0x4 DUP4 DUP2 SLOAD DUP2 LT PUSH2 0x1560 JUMPI INVALID JUMPDEST SWAP1 PUSH1 0x0 MSTORE PUSH1 0x20 PUSH1 0x0 KECCAK256 SWAP1 PUSH1 0x3 MUL ADD SWAP1 POP CALLER PUSH20 0xFFFFFFFFFFFFFFFFFFFFFFFFFFFFFFFFFFFFFFFF AND DUP2 PUSH1 0x1 ADD PUSH1 0x1 SWAP1 SLOAD SWAP1 PUSH2 0x100 EXP SWAP1 DIV PUSH20 0xFFFFFFFFFFFFFFFFFFFFFFFFFFFFFFFFFFFFFFFF AND PUSH20 0xFFFFFFFFFFFFFFFFFFFFFFFFFFFFFFFFFFFFFFFF AND EQ PUSH2 0x1618 JUMPI PUSH1 0x40 MLOAD PUSH32 0x8C379A000000000000000000000000000000000000000000000000000000000 DUP2 MSTORE PUSH1 0x4 ADD DUP1 DUP1 PUSH1 0x20 ADD DUP3 DUP2 SUB DUP3 MSTORE PUSH1 0x3F DUP2 MSTORE PUSH1 0x20 ADD DUP1 PUSH2 0x1B9B PUSH1 0x3F SWAP2 CODECOPY PUSH1 0x40 ADD SWAP2 POP POP PUSH1 0x40 MLOAD DUP1 SWAP2 SUB SWAP1 REVERT JUMPDEST DUP2 DUP2 PUSH1 0x0 ADD SWAP1 DUP1 MLOAD SWAP1 PUSH1 0x20 ADD SWAP1 PUSH2 0x1630 SWAP3 SWAP2 SWAP1 PUSH2 0x1A51 JUMP JUMPDEST POP POP POP POP JUMP JUMPDEST PUSH1 0xB SLOAD DUP2 JUMP JUMPDEST PUSH1 0xA SLOAD DUP2 JUMP JUMPDEST PUSH1 0x0 PUSH1 0x4 DUP1 SLOAD SWAP1 POP SWAP1 POP SWAP1 JUMP JUMPDEST PUSH1 0x1 PUSH1 0x14 SWAP1 SLOAD SWAP1 PUSH2 0x100 EXP SWAP1 DIV PUSH1 0xFF AND DUP2 JUMP JUMPDEST PUSH1 0x7 DUP2 DUP2 SLOAD DUP2 LT PUSH2 0x166F JUMPI INVALID JUMPDEST SWAP1 PUSH1 0x0 MSTORE PUSH1 0x20 PUSH1 0x0 KECCAK256 ADD PUSH1 0x0 SWAP2 POP SLOAD SWAP1 PUSH2 0x100 EXP SWAP1 DIV PUSH20 0xFFFFFFFFFFFFFFFFFFFFFFFFFFFFFFFFFFFFFFFF AND DUP2 JUMP JUMPDEST PUSH1 0x0 PUSH1 0xA SLOAD EQ PUSH2 0x16F9 JUMPI PUSH1 0x40 MLOAD PUSH32 0x8C379A000000000000000000000000000000000000000000000000000000000 DUP2 MSTORE PUSH1 0x4 ADD DUP1 DUP1 PUSH1 0x20 ADD DUP3 DUP2 SUB DUP3 MSTORE PUSH1 0x22 DUP2 MSTORE PUSH1 0x20 ADD DUP1 PUSH2 0x1D41 PUSH1 0x22 SWAP2 CODECOPY PUSH1 0x40 ADD SWAP2 POP POP PUSH1 0x40 MLOAD DUP1 SWAP2 SUB SWAP1 REVERT JUMPDEST PUSH1 0x0 ISZERO ISZERO PUSH1 0x9 PUSH1 0x0 SWAP1 SLOAD SWAP1 PUSH2 0x100 EXP SWAP1 DIV PUSH1 0xFF AND ISZERO ISZERO EQ PUSH2 0x1765 JUMPI PUSH1 0x40 MLOAD PUSH32 0x8C379A000000000000000000000000000000000000000000000000000000000 DUP2 MSTORE PUSH1 0x4 ADD DUP1 DUP1 PUSH1 0x20 ADD DUP3 DUP2 SUB DUP3 MSTORE PUSH1 0x25 DUP2 MSTORE PUSH1 0x20 ADD DUP1 PUSH2 0x1C17 PUSH1 0x25 SWAP2 CODECOPY PUSH1 0x40 ADD SWAP2 POP POP PUSH1 0x40 MLOAD DUP1 SWAP2 SUB SWAP1 REVERT JUMPDEST PUSH1 0x3 SLOAD TIMESTAMP GT PUSH2 0x17BF JUMPI PUSH1 0x40 MLOAD PUSH32 0x8C379A000000000000000000000000000000000000000000000000000000000 DUP2 MSTORE PUSH1 0x4 ADD DUP1 DUP1 PUSH1 0x20 ADD DUP3 DUP2 SUB DUP3 MSTORE PUSH1 0x40 DUP2 MSTORE PUSH1 0x20 ADD DUP1 PUSH2 0x1C3C PUSH1 0x40 SWAP2 CODECOPY PUSH1 0x40 ADD SWAP2 POP POP PUSH1 0x40 MLOAD DUP1 SWAP2 SUB SWAP1 REVERT JUMPDEST PUSH1 0x0 PUSH2 0x17C9 PUSH2 0xFF9 JUMP JUMPDEST SWAP1 POP PUSH1 0x0 PUSH2 0x17D5 PUSH2 0x11FF JUMP JUMPDEST SWAP1 POP PUSH1 0x0 DUP1 SWAP1 POP DUP2 DUP4 GT ISZERO PUSH2 0x17F4 JUMPI PUSH1 0x1 PUSH1 0xA DUP2 SWAP1 SSTORE POP DUP3 SWAP1 POP PUSH2 0x181B JUMP JUMPDEST DUP2 DUP4 LT ISZERO PUSH2 0x180C JUMPI PUSH1 0x2 PUSH1 0xA DUP2 SWAP1 SSTORE POP DUP2 SWAP1 POP PUSH2 0x181A JUMP JUMPDEST PUSH1 0x3 PUSH1 0xA DUP2 SWAP1 SSTORE POP DUP2 DUP4 ADD SWAP1 POP JUMPDEST JUMPDEST DUP1 ADDRESS PUSH20 0xFFFFFFFFFFFFFFFFFFFFFFFFFFFFFFFFFFFFFFFF AND BALANCE DUP2 PUSH2 0x183B JUMPI INVALID JUMPDEST DIV PUSH1 0xB DUP2 SWAP1 SSTORE POP PUSH1 0x1 PUSH1 0x9 PUSH1 0x0 PUSH2 0x100 EXP DUP2 SLOAD DUP2 PUSH1 0xFF MUL NOT AND SWAP1 DUP4 ISZERO ISZERO MUL OR SWAP1 SSTORE POP POP POP POP JUMP JUMPDEST PUSH1 0x9 PUSH1 0x0 SWAP1 SLOAD SWAP1 PUSH2 0x100 EXP SWAP1 DIV PUSH1 0xFF AND DUP2 JUMP JUMPDEST PUSH1 0x3 SLOAD TIMESTAMP LT PUSH2 0x18CF JUMPI PUSH1 0x40 MLOAD PUSH32 0x8C379A000000000000000000000000000000000000000000000000000000000 DUP2 MSTORE PUSH1 0x4 ADD DUP1 DUP1 PUSH1 0x20 ADD DUP3 DUP2 SUB DUP3 MSTORE PUSH1 0x2B DUP2 MSTORE PUSH1 0x20 ADD DUP1 PUSH2 0x1CDB PUSH1 0x2B SWAP2 CODECOPY PUSH1 0x40 ADD SWAP2 POP POP PUSH1 0x40 MLOAD DUP1 SWAP2 SUB SWAP1 REVERT JUMPDEST PUSH1 0x1 PUSH1 0x0 SWAP1 SLOAD SWAP1 PUSH2 0x100 EXP SWAP1 DIV PUSH20 0xFFFFFFFFFFFFFFFFFFFFFFFFFFFFFFFFFFFFFFFF AND PUSH20 0xFFFFFFFFFFFFFFFFFFFFFFFFFFFFFFFFFFFFFFFF AND CALLER PUSH20 0xFFFFFFFFFFFFFFFFFFFFFFFFFFFFFFFFFFFFFFFF AND EQ PUSH2 0x1975 JUMPI PUSH1 0x40 MLOAD PUSH32 0x8C379A000000000000000000000000000000000000000000000000000000000 DUP2 MSTORE PUSH1 0x4 ADD DUP1 DUP1 PUSH1 0x20 ADD DUP3 DUP2 SUB DUP3 MSTORE PUSH1 0x3A DUP2 MSTORE PUSH1 0x20 ADD DUP1 PUSH2 0x1CA1 PUSH1 0x3A SWAP2 CODECOPY PUSH1 0x40 ADD SWAP2 POP POP PUSH1 0x40 MLOAD DUP1 SWAP2 SUB SWAP1 REVERT JUMPDEST PUSH1 0x1 DUP1 PUSH1 0x14 PUSH2 0x100 EXP DUP2 SLOAD DUP2 PUSH1 0xFF MUL NOT AND SWAP1 DUP4 ISZERO ISZERO MUL OR SWAP1 SSTORE POP JUMP JUMPDEST PUSH1 0x40 MLOAD DUP1 PUSH1 0x80 ADD PUSH1 0x40 MSTORE DUP1 PUSH1 0x60 DUP2 MSTORE PUSH1 0x20 ADD PUSH1 0x0 ISZERO ISZERO DUP2 MSTORE PUSH1 0x20 ADD PUSH1 0x0 PUSH20 0xFFFFFFFFFFFFFFFFFFFFFFFFFFFFFFFFFFFFFFFF AND DUP2 MSTORE PUSH1 0x20 ADD PUSH1 0x0 DUP2 MSTORE POP SWAP1 JUMP JUMPDEST DUP3 DUP1 SLOAD PUSH1 0x1 DUP2 PUSH1 0x1 AND ISZERO PUSH2 0x100 MUL SUB AND PUSH1 0x2 SWAP1 DIV SWAP1 PUSH1 0x0 MSTORE PUSH1 0x20 PUSH1 0x0 KECCAK256 SWAP1 PUSH1 0x1F ADD PUSH1 0x20 SWAP1 DIV DUP2 ADD SWAP3 DUP3 PUSH1 0x1F LT PUSH2 0x1A12 JUMPI DUP1 MLOAD PUSH1 0xFF NOT AND DUP4 DUP1 ADD OR DUP6 SSTORE PUSH2 0x1A40 JUMP JUMPDEST DUP3 DUP1 ADD PUSH1 0x1 ADD DUP6 SSTORE DUP3 ISZERO PUSH2 0x1A40 JUMPI SWAP2 DUP3 ADD JUMPDEST DUP3 DUP2 GT ISZERO PUSH2 0x1A3F JUMPI DUP3 MLOAD DUP3 SSTORE SWAP2 PUSH1 0x20 ADD SWAP2 SWAP1 PUSH1 0x1 ADD SWAP1 PUSH2 0x1A24 JUMP JUMPDEST JUMPDEST POP SWAP1 POP PUSH2 0x1A4D SWAP2 SWAP1 PUSH2 0x1AD1 JUMP JUMPDEST POP SWAP1 JUMP JUMPDEST DUP3 DUP1 SLOAD PUSH1 0x1 DUP2 PUSH1 0x1 AND ISZERO PUSH2 0x100 MUL SUB AND PUSH1 0x2 SWAP1 DIV SWAP1 PUSH1 0x0 MSTORE PUSH1 0x20 PUSH1 0x0 KECCAK256 SWAP1 PUSH1 0x1F ADD PUSH1 0x20 SWAP1 DIV DUP2 ADD SWAP3 DUP3 PUSH1 0x1F LT PUSH2 0x1A92 JUMPI DUP1 MLOAD PUSH1 0xFF NOT AND DUP4 DUP1 ADD OR DUP6 SSTORE PUSH2 0x1AC0 JUMP JUMPDEST DUP3 DUP1 ADD PUSH1 0x1 ADD DUP6 SSTORE DUP3 ISZERO PUSH2 0x1AC0 JUMPI SWAP2 DUP3 ADD JUMPDEST DUP3 DUP2 GT ISZERO PUSH2 0x1ABF JUMPI DUP3 MLOAD DUP3 SSTORE SWAP2 PUSH1 0x20 ADD SWAP2 SWAP1 PUSH1 0x1 ADD SWAP1 PUSH2 0x1AA4 JUMP JUMPDEST JUMPDEST POP SWAP1 POP PUSH2 0x1ACD SWAP2 SWAP1 PUSH2 0x1AD1 JUMP JUMPDEST POP SWAP1 JUMP JUMPDEST PUSH2 0x1AF3 SWAP2 SWAP1 JUMPDEST DUP1 DUP3 GT ISZERO PUSH2 0x1AEF JUMPI PUSH1 0x0 DUP2 PUSH1 0x0 SWAP1 SSTORE POP PUSH1 0x1 ADD PUSH2 0x1AD7 JUMP JUMPDEST POP SWAP1 JUMP JUMPDEST SWAP1 JUMP INVALID SLOAD PUSH9 0x6520546F7069632068 PUSH2 0x7320 PUSH15 0x6F74206265656E206D616465207075 PUSH3 0x6C6963 KECCAK256 PUSH3 0x792074 PUSH9 0x652063726561746F72 KECCAK256 PUSH26 0x65742E596F7520646964206E6F7420766F746520647572696E67 KECCAK256 PUSH21 0x686520706572696F642C20736F20796F752063616E PUSH15 0x6F7420636C61696D2E596F75206361 PUSH15 0x206F6E6C7920636C61696D20796F75 PUSH19 0x20726577617264732061667465722074686520 PUSH21 0x696D6520706572696F642E596F75206D7573742062 PUSH6 0x207468652063 PUSH19 0x6561746F72206F66207468697320617267756D PUSH6 0x6E7420746F20 PUSH14 0x6F646966792069747320636F6E74 PUSH6 0x6E7473546865 KECCAK256 PUSH14 0x6F6E657920676F657320746F2074 PUSH9 0x652070656F706C6520 PUSH24 0x686F2070617274696369706174656420696E207468652070 PUSH19 0x6F636573732E546F70696320697320616C7265 PUSH2 0x6479 KECCAK256 PUSH14 0x61726B656420617320636F6D706C PUSH6 0x7465642E4D61 PUSH11 0x6F726974792063616E206F PUSH15 0x6C792062652063616C63756C617465 PUSH5 0x2061667465 PUSH19 0x207468652074696D6520706572696F64206861 PUSH20 0x20656E6465642E596F75206861766520616C7265 PUSH2 0x6479 KECCAK256 PUSH4 0x72656174 PUSH6 0x6420616E2061 PUSH19 0x67756D656E742E596F75206D75737420626520 PUSH21 0x68652063726561746F72206F66207468697320546F PUSH17 0x696320696E206F7264657220746F20646F KECCAK256 PUSH21 0x6869732E54686520706572696F6420666F72207468 PUSH6 0x20546F706963 KECCAK256 PUSH9 0x617320616C72656164 PUSH26 0x20656E6465642E596F752063616E6E6F7420766F746520666F72 KECCAK256 PUSH21 0x686520617267756D656E742067656E657261746564 KECCAK256 PUSH3 0x792074 PUSH9 0x6520636F6E74726163 PUSH21 0x2E4D616A6F726974792068617320616C7265616479 KECCAK256 PUSH3 0x65656E KECCAK256 PUSH5 0x6563696465 PUSH5 0x2E596F7520 PUSH14 0x75737420696E7665737420617420 PUSH13 0x6561737420746865206D696E69 PUSH14 0x756D20616D6F756E746173206465 PUSH4 0x69646564 KECCAK256 PUSH3 0x792074 PUSH9 0x652063726561746F72 0x2e MSIZE PUSH16 0x75206861766520616C72656164792076 PUSH16 0x7465642E20596F75206D6179206E6F74 KECCAK256 PUSH4 0x68616E67 PUSH6 0x20796F757220 PUSH23 0x6F74652EA265627A7A7231582006B9AF093F0B284CEFB8 0xd3 DUP2 0x22 SWAP14 0xbf 0xc6 PUSH27 0x610B11A9CC3DEC62BE105534C558B364736F6C634300050B003259 PUSH16 0x75206861766520616C72656164792063 PUSH19 0x656174656420616E20617267756D656E742E54 PUSH9 0x6520706572696F6420 PUSH7 0x6F722074686520 SLOAD PUSH16 0x7069632068617320616C726561647920 PUSH6 0x6E6465642E59 PUSH16 0x752068617665206E6F742063686F7365 PUSH15 0x207965742077686574686572207468 PUSH6 0x207374617465 PUSH14 0x656E742069732074727565206F72 KECCAK256 PUSH7 0x616C7365A26562 PUSH27 0x7A723158204A6B0636BB929AF1A208B08326CD7CBE5DD781EF549A DUP2 PUSH21 0x516807A464B8841D64736F6C634300050B00320000 "},"gasEstimates":{"creation":{"codeDepositCost":"2106200","executionCost":"2243","totalCost":"2108443"},"external":{"createTopic(string,uint256,uint256)":"infinite","deployedTopics(uint256)":"839","getDeployedTopics()":"infinite"}},"methodIdentifiers":{"createTopic(string,uint256,uint256)":"0a5e47bb","deployedTopics(uint256)":"d7f0007a","getDeployedTopics()":"b93ad27a"}},"userdoc":{"methods":{}}}